:020000041000EA
:1000000000B5324B212058609868022188439860DF
:10001000D860186158612E4B002199600221596106
:100020000121F02299502B49196001219960352056
:1000300000F044F80222904214D00621196600F024
:1000400034F8196E01211966002018661A6600F04E
:100050002CF8196E196E196E052000F02FF8012189
:100060000842F9D1002199601B49196000215960AB
:100070001A491B48016001219960EB211966A021F2
:10008000196600F012F800219960164914480160C1
:100090000121996001BC002800D000471248134993
:1000A000086003C880F30888084703B5996A0420EC
:1000B0000142FBD001200142F8D103BD02B5186610
:1000C0001866FFF7F2FF186E186E02BD00000240BE
:1000D000000000180000070000035F00212200005C
:1000E000F4000018222000A00001001008ED00E03C
:1000F00000000000000000000000000074B24E7A12
:1001000000200420F7010010C3010010C5010010F9
:10011000C1010010C1010010C1010010C101001097
:10012000C1010010C1010010C1010010C701001081
:10013000C1010010C1010010C9010010CB01001065
:10014000CD010010CD010010CD010010CD01001037
:10015000CD010010CD010010CD010010CD01001027
:10016000CD010010CD010010CD010010CD01001017
:10017000CD010010CD010010CD010010CD01001007
:10018000CD010010CD010010CD010010CD010010F7
:10019000CD010010CD010010CD010010CD010010E7
:1001A000CD010010CD010010CD010010CD010010D7
:1001B000CD010010CD010010CD010010CD010010C7
:1001C00000BE00BE00BE00BE00BE00BEEFF3058054
:1001D000103800BEF2EB887110520010305200103F
:1001E0003402001090A31AE700201F49086006C8D7
:1001F00081F3088810471D48006800282FD10DA4FE
:100200000ECC002902D000F012F8F9E71849194A7B
:10021000002000E001C19142FCD1174988471749ED
:1002200088471749884700BEFDE701C901C29A42C5
:10023000FBD3704730520010C0000020B0130020E4
:10024000206500100000042000000420206500103C
:10025000001004200010042000000000704709482E
:1002600002F088F90047000008ED00E0000000D02F
:10027000B013002068230020ED230010ED070010CC
:10028000E12400105756000006005250ABB36053F3
:10029000D44F001006005250861C0302E44F001099
:1002A000060052505422A29DEC4F001005005250FF
:1002B000DE65F46820650010F8B5C04610B5064C40
:1002C0002378002B07D1054B002B02D0044800E017
:1002D00000BF0123237010BDB816002000000000ED
:1002E000084F0010044B10B5002B03D003490448FD
:1002F00000E000BF10BDC04600000000BC1600209A
:10030000084F00101B4AF0B59369DB062ED41A4E35
:100310000024376810213800184DFF2820D80130FC
:1003200093691942FCD1136801242B549369194233
:10033000F3D030600423124CFF33E054002200233A
:10034000104DAA5CE1180133DBB2CA701A00834277
:10035000F7D30D4A137001230C4A63701370F0BD7C
:10036000002CE6D1002FFAD03800E3E7024B1F68DB
:10037000F8E7C04600400340E0210020432200206F
:10038000D4160020442200205D2300205A230020A0
:10039000F0B5C64600B5BE4CE378FA2B02D080BC5F
:1003A000B846F0BD2379522B1CD0572BF7D104232C
:1003B000FF33E35C052BF2D1A379092B00D104E1D3
:1003C000022B00D10AE12021B248B34AC51C93692F
:1003D0001942FCD10378013013608542F7D1002324
:1003E0006370DCE70423FF33E35C052BD7D162792C
:1003F000A579A270092D00D9E0E0A849AB00CB583F
:100400009F462021A64BA7481B78A34A0371C51D10
:1004100093691942FCD10378013013608542F7D10A
:10042000DDE7A14DA14B6A70A1481A8864215043B1
:1004300080B2188002F0D0F84B424B4115222021A7
:100440005B4293432033944A2800AB710A35936989
:100450001942FCD10378013013608542F7D1BEE721
:10046000944B954E954F1B7872707A70002B00D18B
:10047000BDE08E4B8E481F886421784380B2984639
:1004800002F0AAF8002900D001254346F800C71B56
:100490007801C01B000280B2F5706421188002F060
:1004A0009BF8317120217C4AF51D93691942FCD1DA
:1004B000337801361360AE42F7D190E7E379012B30
:1004C00000D1C9E0022B00D10AE1032B00D144E1A5
:1004D000042B00D122E1052B00D080E7784D794E26
:1004E0006A70724A7248138847215E435843B6B215
:1004F000168080B202F070F80A31E97030004721AE
:1005000002F06AF820200A31297163492A00073570
:100510008B691842FCD1137801320B60AA42F7D1E3
:100520005DE720215B485C4AC51C93691942FCD1F8
:100530000378013013608542F7D150E720215548F8
:10054000554AC51C93691942FCD1037801301360E8
:100550008542F7D143E7554B5B4D55486A701A8881
:100560006421504380B2188002F036F8002301293C
:1005700000DD64332021484A2800EB70063593697A
:100580001942FCD10378013013608542F7D126E788
:10059000E1794E4B4E485A70427001294FD00229E2
:1005A00000D01CE73C4AC51D1E3193691942FCD19D
:1005B0000378013013608542F7D110E70023454AE4
:1005C00063701370444A1360E9E6E379012B02D0AB
:1005D000002B00D0F7E6324A1370F4E6E379012BE2
:1005E00002D0002B00D0EEE6324A1370EBE62F4B20
:1005F0002F481E886421704380B2984601F0ECFFBA
:100600004B4259411D254B421D404346F000861B7D
:100610007001801B000280B20B21188001F0DCFF0A
:1006200001356D1820211C4A3D71FD1D9369194249
:10063000FCD13B7801371360AF42F7D1CFE6180009
:10064000154ADD1D1F3193691942FCD10378013031
:1006500013608542F7D1C2E6204D144B6A701448EE
:100660001A886421504380B2188001F0B5FF4B1EF8
:100670009941E9702021084A28000E3593691942F2
:10068000FCD10378013013608542F7D1A7E6C0465C
:10069000D4160020840E002000400340084F0010B4
:1006A00059230020580E0020680E0020880E0020DC
:1006B000504600005B230020480E0020600E002002
:1006C000180E002000D9FFFF280E0020500E002039
:1006D000400E00205A230020E0210020300E002090
:1006E000384D39496A70394B0A88394853430B8071
:1006F00000235043EB70062180B201F06DFF85317D
:1007000029712021334A2800073593691942FCD109
:100710000378013013608542F7D160E62E482B4BF9
:100720004270294A11884B439BB213802B4A2C49B3
:1007300053430222D34112328B4200D9002220219E
:100740004B32C270234A851D93691942FCD103784C
:10075000013013608542F7D141E61B4B1C481E88CF
:10076000204D70436A70062180B2984601F034FF34
:10077000164B1B4873439AB2184B41315343022224
:10078000D3411232834200D900228A180023EA7032
:100790004246154813807043062180B201F01CFFC9
:1007A000552355312800297120210A4A6B710830E0
:1007B00093691942FCD12B78013513608542F7D13A
:1007C0000DE6C046740E0020880E002000D9FFFF01
:1007D0005046000000400340200E0020295C8FC2DC
:1007E000285C8F027C0E002000D0FFFF0122F8B5AC
:1007F0004D4B4E491A7000230A7064214C4A502513
:1008000013604C4A4C4E1160FA214C4A8900136027
:100810004B4A3370116063214A4A192015604A4AD5
:100820004A4C11604A4A0D2713601422494B1A6042
:1008300000F0BCF8D02380221B0692045A6202F01A
:1008400051F996212000090101F008FB0221002046
:1008500000F094F80221012000F090F8E12120003E
:10086000490201F06BFBC022236B120213403A4A8B
:10087000142013606022E36A5A406E231340374A03
:1008800013601023E16A0B401360354900F086F9CC
:100890000121142000F04AF93823A563626B314925
:1008A0001340314A463D1360304B00220020185E51
:1008B0002023002A2CD1A84231D0A2691342FCD1B6
:1008C00025600A7801310D3A55426A410D78D2B25D
:1008D000002DEED18022264C264F20000021520010
:1008E0003D6001F091FF0423033CFF33E554224DAA
:1008F00004E0FFF74DFD012000F028FF04F058FA56
:1009000028806378002BF4D133703B606370F2E78A
:10091000A2691342D4D0A2691342F9D1D0E7A269E7
:100920001342FCD12760C8E75B2300205923002035
:10093000D81D0020D41D00205A230020382200207A
:1009400034220020402200203C22002000400340AE
:10095000EC210020E8210020305003402C500340BF
:1009600005030010304F0010345003404423002092
:10097000D7160020E0210020880E0020094A8300BD
:1009800094464022634410B51C68C0006240C024F5
:1009900014408022520113431C60034B9C46604468
:1009A000416010BD04C00140004001400123D0223D
:1009B0008340120693629361094A83009446402261
:1009C00063441968C0004A40C0211140802252018E
:1009D00013431960034B9C460523604443607047F2
:1009E00004C0014000400140024B18688007C00F5E
:1009F0007047C04600C0064070B5EFF3108C72B669
:100A00000D4D2B68002BFCD0BFF35F8F0724CB0864
:100A1000C618C05C01230C40A3401C0004400342E4
:100A200007D103433370BFF35F8F2C608CF31088C2
:100A300070BD100001F058FD2C0100D0F8B54746FC
:100A4000CE46884680B5EFF3108C72B6214D2C68E7
:100A5000002CFCD0BFF35F8F9A422CD8D408072714
:100A6000055D061901241740BC402C421FD0072108
:100A70000127894609E0D408055D06194C4639006E
:100A80001440A1400C00294211D001329342F2D20D
:100A900001204042BFF35F8F00220E4B1A608CF39F
:100AA000108800280FDBC0BCB946B046F8BD2C4307
:100AB00010003470EEE7BFF35F8F00232B608CF3E0
:100AC0001088012040424346002BECD0089801F0EA
:100AD0000BFDC0462C0100D00021044B044ABFF39B
:100AE0005F8F02C39342FAD17047C046000100D025
:100AF000800100D0044A1078431CDBB2172B00D9C8
:100B0000102313707047C0468A0E002000B5054BB5
:100B100083B00100009318221F230348FFF78EFFC4
:100B200003B000BD404F0010341D0020012383405E
:100B3000002904D0034A1360034A13607047034A34
:100B40001360FBE780E200E000E100E080E100E00C
:100B500001238340014A13607047C04600E200E071
:100B6000084B10309B688000C358002B07D0064A02
:100B700000209B1A2F229A424041C0B270470020A9
:100B8000FCE7C04600ED00E08C0E0020024B103068
:100B90009B688000C058704700ED00E070B50D0004
:100BA000EFF3108672B60F4A1368002BFCD0BFF328
:100BB0005F8F0D4B10309B6884001B590B4A93428A
:100BC00003D09D4201D001F0A7FC074B9B681D514B
:100BD000BFF35F8FBFF35F8F0022024B1A6086F373
:100BE000108870BD240100D000ED00E0CD010010A0
:100BF000F0B557464E46DE464546E0B585B00600A0
:100C000002911700EFF3108B72B6674A1368002B3E
:100C1000FCD0BFF35F8F0025644B5D579A46002DD3
:100C200000DAA4E06B00624C03935B199B009846CA
:100C3000A146C1444B4652469B79103613705D4B1A
:100C4000B2009B68019299580B1B2F2B34D95A4B39
:100C5000994200D0A4E0039B584A9C46584B6544F7
:100C6000AD006353434602336519E418554B012127
:100C7000043B1B1B1B055B0D13436B80524BEF7139
:100C8000AB80FF23AB71029BAB604B460B4319005B
:100C9000484B019A9B689950BFF35F8FBFF35F8FFA
:100CA0000022414B1A608BF3108805B0F0BCBB46A4
:100CB000B246A946A046F0BD01200A008243D3797E
:100CC000BB422FD845464E46130040491B1B5B4193
:100CD0005943090D3A4B63533A4B02356519043BAE
:100CE0005B1B1B05354D5B0D2B4373800426B446FF
:100CF000E0444444131F1B1B4C46A17102991B0581
:100D0000A16049465B0D2B43A380314BE771014342
:100D10001360BDE75800C01880002018C679BE4295
:100D20002BD902000623D356002BF3DA101D82467E
:100D30002848804604267642B446E14450464E4652
:100D4000361A3005400D824656461C4895710643BA
:100D50009680039A944665441D4AAD00641922604A
:100D60004246A371029BA280E771A36090E701F065
:100D7000D3FB002553465D5754E7101D82469088EB
:100D80004005001584464046D44466460430201889
:100D9000301AE0260005400D360230438046C9E790
:100DA00001F0BAFB57E7C046240100D061230020C0
:100DB0008C0E002000ED00E0CD01001000E0FFFFF0
:100DC00000A1FFFFBC0E002001BDFFFFAAAA00008A
:100DD0000148804701BD0000F0B5DE4657464E464B
:100DE0004546E0B50C0083B0EFF3108972B6584A5F
:100DF0001368002BFCD0BFF35F8F564B9A6803003B
:100E000010339F00D559544A9046954232D0A5429E
:100E100043D0524EAA1B2F2A2CD801228240924640
:100E200051464F4A12681140019151464D4A116096
:100E3000BFF35F8FEFF305829346002A33D101237E
:100E40002A009A4393689C4208D177E04B005B18D4
:100E50009B00F3189968A1422AD01A000621515626
:100E60000029F3DA019B002B19D052463E4B1A6041
:100E70003B4B1A60374B9B68DD51BFF35F8FBFF36D
:100E80005F8F0022324B1A6089F3108803B0F0BCE8
:100E9000BB46B246A946A046F0BD1500EAE7524659
:100EA000304B1A60E6E79342C9D001F035FBC6E744
:100EB00006215956002921DB4A00501880003418B9
:100EC0008046A0689860E079D87106202056987115
:100ED000002824DBA488F01A640524154444001972
:100EE000E0240005400D24022043988052181F4B37
:100EF0009200B6181A781970B271B3E759460029F2
:100F00000FD1FF3191711A49918018490A789A716D
:100F1000184A9B1B5B415A43120D0A70A2E7164800
:100F2000E3E7164A1649D21A083A5002400D014327
:100F30009980144952080A43DA8093E706215156F2
:100F400013000029B8DA5A46002AEAD14546DCE700
:100F5000240100D000ED00E0CD0100108C0E002037
:100F600000E100E080E100E080E200E06123002099
:100F700001BDFFFFAAAA000001BD0000C60E0020AF
:100F800000F0FFFF00F8FFFF70B5EFF305810124CB
:100F90000443EFF3108C72B6214A1368002BFCD087
:100FA000BFF35F8F1F4B05001F4AED1A6D416A4367
:100FB000120D1E4D8900AE6852B27658A6421CD062
:100FC0000621595691421CD012215956914222D0E5
:100FD0001E215956914220D02A215956032491426C
:100FE00010D0134B19781A708171BFF35F8F0022F4
:100FF0000B4B1A608CF3108870BDAB680D4C5C50C5
:10100000EFE700246100091989005B18FF2199713D
:1010100009499980E5E70124F4E70224F2E7C04694
:10102000240100D08C0E0020AAAA000000ED00E0F0
:1010300061230020CD01001001BDFFFF054B064AD2
:101040001360064A136053609360D3601361536169
:10105000936170478080808000E400E004E400E059
:1010600000B5074B83B0010000930022052305481B
:10107000FFF7E4FC002801DB1F23181A03B000BDB2
:101080005C4F001066230020024B9C46614489009F
:10109000016070474000003410B50400FFF72AFDDE
:1010A00001002000FFF7F0FFFF232371BFF35F8FE4
:1010B00010BDC04610B50400FFF71CFD0100200064
:1010C000FFF7E2FFFF23A380BFF35F8F10BDC04691
:1010D00010B504000120FFF719FD044B9C46604445
:1010E00080002060BFF35F8F10BDC0464000003419
:1010F000034B9C46614489000160BFF35F8F7047DA
:101100004000003483680B4810B584466144624453
:10111000090112019A18591854684B6801209C4221
:1011200001D802D00020C0B210BD12680B689A42EC
:10113000F9D8F7E7FFFFFF0F0A4B1968EFF31080AC
:1011400072B60A68002AFCD0BFF35F8F1B68BFF33A
:101150005F8F00221A6080F3108840BF00200021BA
:101160007047C04618220020F8B557464E464546FF
:10117000DE46E0B599460CAB1C780DAB1B7806003B
:1011800090469A460768002C11D1BC7B002C42D0B7
:1011900065003B682D19033D59194B78BB73002B33
:1011A00000D1FB7300238B704B700B7004E0650063
:1011B0003B682D19033D5919B2682A4B94464246A3
:1011C000E3181B0163441A604A465A600A9A9A60FF
:1011D0000B9ADA6000238B704B700B707B7B9B4605
:1011E000002B2BD022005946B8687B6898473A6894
:1011F000002816D05B4658465B005B445519033BFC
:10120000A870D118D35C002B00D06B705B460C70BB
:101210007B73A34513D0F0BCBB46B246A946A0469B
:10122000F8BD5B465B005B44033BD3189C705119CF
:10123000525D002A00D05A705B460B707C734246A8
:101240004B46307D00F0A2FB051E06D05346002B16
:1012500003D12100306800F0C3FD0E9B002BDAD0D3
:101260001D70D8E7FFFFFF0FF0B5DE4657464E462C
:1012700045460023E0B58BB00893664B8200D458F6
:1012800000239B46099000F021FB626806000F00D6
:10129000EFF3108572B61368002BFCD0BFF35F8F9D
:1012A00023689C465B7B9946002B68D0A2685A4B0A
:1012B00090464B441B01984443461A685B681000F3
:1012C0001900801BB941002963DD099800F05EFB1D
:1012D00000230022984600230692079300239A4693
:1012E0006368BFF35F8F5A461A6085F310885346D0
:1012F000002B08D10028C6D10BB0F0BCBB46B246CB
:10130000A946A046F0BD089B414618024B4618432B
:10131000D047626806000F00EFF3108572B61368BD
:10132000002BFCD0BFF35F8F002F4FDB33003B431C
:1013300002D02369002B60D12368D97B002907D014
:101340004A00521819688C4649466244033A517063
:101350009A7B002A01D14A469A734A46DA734B4671
:10136000E168013BCA5C0132CA545B462361636891
:10137000BFF35F8F5A461A6085F3108883E7002316
:1013800000229846002306920793002300209A46E5
:10139000A6E7002901D1002897D10021604600F07E
:1013A0009DFC43461A685B680692079343469B6818
:1013B0009A464346DB689846E3684B44013B1B78FA
:1013C00008931B0203432361002089E72369002B54
:1013D000B2D0069A079B921BBB41002B15DB5946E6
:1013E00004910121039149460291414601915146E0
:1013F00020000091FFF7B8FEB7E700F067FA32006F
:101400003B0012184B41002BE9DA0122034B5242F8
:10141000E5E7C046FC210020FFFFFF0FFFFFFF7F35
:1014200010B5144C6368002B04D00A211248FFF752
:101430002BFE10BD2300114A1021206800F068FB2C
:10144000032000F037FA032000F010FB03200C49C2
:1014500000F056FAFFF74EFB0A4B9C460323237518
:10146000D0231B061B6860446375074B80006060D7
:10147000DC60DAE7D40E00201822002005110010ED
:101480006912001040000034FC2100200048704721
:10149000D40E0020F0B557464E464546DE46E0B530
:1014A00085B0019310AB1B780600039300239A4686
:1014B000984600927268EFF3108972B61368002B99
:1014C000FCD0BFF35F8F3568AC7B002C49D0670040
:1014D0002B683F19033FDB195A78AA73002A00D101
:1014E000EA73B168484A8C4600980199A218120123
:1014F0006244106051600E9991600F99D16042462C
:101500009A705A701A706B7B9B46002B45D0220054
:101510001900A8686B6898472A68002830D05B4695
:1015200058465B005B44D719033BB870D118D35CB5
:10153000002B00D07B705B460C706B735C452DD02C
:10154000F3681B19013B18787368BFF35F8F42463D
:101550001A6089F310885346002B2CD100022043D7
:1015600007E07368BFF35F8F1C6089F31088012068
:10157000404205B0F0BCBB46B246A946A046F0BD0D
:101580005B465B005B44033BD3189C70D119D25D72
:10159000002A00D05A705B460B706C73307D009A45
:1015A000019B00F0F3F982460028C9D02100306881
:1015B00000F016FCC4E7039B002B23D00E9B0020F9
:1015C0000F999847030004000D000B431AD000291F
:1015D0000ADA009A019B121BAB4100920193002B87
:1015E0000ADB039B9A4665E700F070F924184D4129
:1015F00000940195002DF4DA0123044C5B42009322
:101600000194EEE70020B4E7FFFFFF0FFFFFFF7F2D
:1016100070B542680400EFF3108572B61368002BB2
:10162000FCD0BFF35F8F2068CEB2437BB3420AD0B9
:10163000FF230B405A00D318026894466344033BCF
:101640009B78002B13D0E268FF2394460B40634441
:10165000013B0A0A1978D2B291420ED00020636889
:10166000BFF35F8F00221A6085F3108870BD226976
:101670008A42F3D100202361F1E7310000F0B0FB92
:10168000EDE7C046407D7047F0B504000D0006262A
:101690007642F717C64636196F4100B584B08F42BF
:1016A00014D811D000F012F932003B00121A8B410D
:1016B000002B15DC002B3ED02000290000F010F993
:1016C00004B080BCB846F0BD8642EBD900260027A6
:1016D00000F0FCF832003B00121A8B41002BE9DDD0
:1016E000002302930193154B3200009314483B00F2
:1016F000FFF7D0FE0028DFDB00239846BC46114AE6
:10170000114F7B6A9C4504D8B96A8E42D4D99C4556
:10171000D2D11168EFF3108072B60B68002BFCD0A9
:10172000BFF35F8F1368BFF35F8F4146196080F38B
:10173000108820BFE5E7002ABED0D1E7391100109C
:10174000D40E0020182200200040054070B506008D
:1017500000F0BCF8FA2204000D0000233000002144
:10176000920000F0E7FF00196941002902DBFFF752
:101770008BFF70BD012001494042F8E7FFFFFF7F6A
:1017800070B5EFF3058305000C0084B0002B0AD080
:10179000164A0020536A9C4203D8926A0130AA423A
:1017A0001FD304B070BD124E02930193114B02007F
:1017B000009330000B00FFF76DFE011EE8DD20BF37
:1017C0003000FFF725FF094B0020596A8C42E8D80A
:1017D0009B6A0130AB42E4D2641A631E9C41E0B2C2
:1017E000DFE7E41A631E9C41E0B2DAE700400540FF
:1017F000D40E002039110010F0B5EFF30582D64663
:101800004F4646461000C0B51038EFF3108872B648
:10181000214C2368002BFCD0BFF35F8F01231900FC
:1018200081401E4D1F006963AA461D4D29601D4D54
:101830002E78AC463500C5402F402B4209D1BFF36E
:101840005F8F276088F31088E0BCBA46B146A8468F
:10185000F0BD5346144D5F6A83005D59AF420ED30D
:10186000124A8E439B5862461670BFF35F8F002268
:10187000226088F31088002BE6D09847E4E70C4BF1
:1018800092009C46624413681360BFF35F8F00238D
:10189000236088F31088D7E7280100D00040054076
:1018A0003C70054065230020242200201C1C0020E1
:1018B000D03F054010B50100024A0348FFF79CF8ED
:1018C00010BDC046784F001060230020034B596ABA
:1018D0000A00986A596A8A42FAD170470040054066
:1018E000064A536A9942FCD807D1044B02E05A6A6F
:1018F000914202D19A6A8242F9D370470040054072
:1019000070B504000D00EFF3108672B61A4A136822
:10191000002BFCD0BFF35F8F002D1BD02000FFF702
:1019200035F9164981420AD02000FFF737F9012125
:101930002000FFF7FBF80123A340114A1360114B6D
:10194000A400E550BFF35F8F00220B4B1A6086F3B3
:10195000108870BD0B4BA200D5500122A2400A494D
:1019600020000B7893430B700449FFF735FA0021F0
:101970002000FFF7DBF8E5E7280100D0F917001099
:10198000386005401C1C002065230020F0B54F4640
:10199000D6464646C0B507002F4C616A0D00A66AC0
:1019A000616AA942FAD18B4208D805D00120E0BC77
:1019B000BA46B146A846F0BDB242F7D9EFF3108A55
:1019C00072B6264801680029FCD0BFF35F8F01255D
:1019D000BD402349204C8846097889462943C9B22D
:1019E0008C46414660460870391D1E488900656373
:1019F0000A51B9000B50216A0020294219D0616AAE
:101A00000800A66A616A8142FAD18B4219D801D1D5
:101A1000B24216D8CC451DD00F4B1F201D625D630E
:101A200001230740BB40104A1E38136043464A4614
:101A30001A70BFF35F8F0022084B1A608AF3108878
:101A4000B5E70020BFF35F8F0022044B1A608AF3D2
:101A50001088ACE70120ECE700400540280100D0E9
:101A6000652300202422002080E200E0EFF3108CA8
:101A700072B60A490B68002BFCD0BFF35F8F0123BD
:101A80008340074A0748136202789A430270BFF303
:101A90005F8F00230B608CF310887047280100D003
:101AA000004005406523002070B5050014001600B5
:101AB000002915D00C00002A12D080686B68984766
:101AC000296800280ED073009B196200033B12198D
:101AD000CB18033A9C7088188A5C002A15D10670CE
:101AE000200070BD63001B197200033B9219CB18D4
:101AF000033A9E7088188A5C002A02D10470340070
:101B0000EEE75A7004703400EAE75A700670E7E7AF
:101B100030B583600023CCB2437301330473426059
:101B20008373C4730D000068012C06D9421C013375
:101B3000DBB2137003329C42F9D1FF2129404B00E4
:101B40005918002340180338437030BDF8B5CE460D
:101B5000474606000C0080B5002907D04D000368F9
:101B60006D18033D5A195778002F04D12000C0BCCE
:101B7000B946B046F8BD7900C919033988464344CF
:101B80005978894600215970517073683A002100D4
:101B9000806898473368002814D042469A18947099
:101BA00059195B5D002B00D053700F702700494618
:101BB0003000FFF7CBFF390002003000FFF774FF61
:101BC0000400D3E7424641465D19AF709A185B5C4A
:101BD000002B00D06B701470E9E7C046F0B5574693
:101BE0004546DE464E46E0B50D006B0001685B19C8
:101BF000DF1E0400C85D83B00192CA19002850D0CE
:101C000043001B18033BCB185E78B446002E1AD154
:101C1000019E002E42D0E67B002E04D073009B195B
:101C2000CB18033B5D70A37B002B00D1A573E5733C
:101C300000282FD10023537003B0F0BCBB46B2463E
:101C4000A946A046F0BD72006244033A89184A785A
:101C5000904600224A7091465A70010032002000DE
:101C6000FFF722FF43468246002B07D05B00216826
:101C70004344033BCB185A78002A16D142465146BA
:101C80002000FFF711FF2168019BCA19002BC2D168
:101C90000028CFD043001B18033BCB1800219970BC
:101CA000C8E7019B002BB6D1C4E750008018033869
:101CB00009184878834648464870587041462000C5
:101CC000FFF7F2FE594680462000FFF73FFF4146EE
:101CD00002002000FFF7E8FE8046CFE7F0B5574648
:101CE0004546DE464E46E0B583B00191457B040093
:101CF0006B0000685B19DF1EC15DC219002952D05C
:101D00004B005B18033BC3185E78B446002E1CD111
:101D1000019E002E44D0E67B002E04D073009B1958
:101D2000C318033B5D70A37B002B00D1A573E57343
:101D3000002931D1002328005370617303B0F0BC37
:101D4000BB46B246A946A046F0BD72006244033AC3
:101D50008018427890460022427091465A702000C6
:101D60003200FFF7A1FE43468246002B07D05B00FE
:101D700021684344033BCB185A78002A17D14246C6
:101D800051462000FFF790FE019B01002068C21918
:101D9000002BC0D10029CDD04B005B18033BC318EA
:101DA00000209870C6E7019B002BB4D1C2E7500019
:101DB0008018033809184878834648464870587098
:101DC00041462000FFF770FE594680462000FFF78D
:101DD000BDFE414602002000FFF766FE8046CEE7CA
:101DE00070B5040000292CD0437B8B422ED00568AF
:101DF00048004018033828188278002A21D0530060
:101E00009B18033BEA5CEE188A4202D11BE0002AD1
:101E100008D053009B18033BEB185A788A42F6D13E
:101E200042785A7000230122837043702000FFF72C
:101E3000D5FE617B02002000FFF736FE60730120B3
:101E400000E0002070BD43783370EBE701221900F9
:101E5000FFF7C4FE60730120F4E7C046F8B5040044
:101E600006200D0000F0FCF9002844D02A4B2B4935
:101E7000E21853425A418023DB039C469205284BCB
:101E800062441A60274B1A6010008B689843FBD19C
:101E9000214B8021E3185A425341234A5B004900F9
:101EA0009952062000F0DCF92900C00000F0BCFBCC
:101EB000C30921D140270121260080256162A36248
:101EC00000232C36AD0135432B60062000F0C8F905
:101ED0003900800000F0A8FB6023E26A53406E22C4
:101EE0001A4080235B0133431A60104B2363102395
:101EF0002B600D3BA364F8BD0D4A934203D9002328
:101F00000C4F0D49D8E77F221040013040089F0157
:101F100019003F180300CFE70080FCBF00C000405D
:101F200000E0004000F000404423002001030000D6
:101F3000FEFF0000C0FF3F00FFFF000070B504007F
:101F400006200D0000F08CF92900C00000F06CFBA9
:101F5000C30906D0104A934215D900230F4D104AE9
:101F600001E04025012280206262A36200238001FB
:101F70002C3404432360062000F072F9290080000D
:101F800000F052FB70BD7F221040013040089D01DF
:101F90001A002D180300E6E7FEFF0000C0FF3F0017
:101FA000FFFF000030B50C2083B000F0B7F9FEF75A
:101FB0001BFD00280ED0944B944A1A605A609A6018
:101FC000DA601A615A619A61DA611A62904A5A6259
:101FD00003B030BD8F4CA06700F0F4F901228E4BA6
:101FE0001A60636C012BFCD103228C4B1A60894A66
:101FF000936B012BFCD101330121894A894800935D
:10200000043300F033F90523874A00930121874800
:1020100000F02CF9864B5A68FF2A02D88022520021
:102020005A608022784C7D4B21691201804D1A60E4
:10203000002905D0606900F0F7FA01300138FDD1C0
:10204000E0217B4B02201A681140802252012A4372
:1020500011601968484003210140116004219A6809
:102060001142FCD08022802192012A430901116093
:10207000802252005A606F4B23616F4B5968FF29D1
:1020800000D85A600321644A6B4B116002399A6888
:102090001142FCD0E0201A681040802252011A43FD
:1020A0001060186848400321014002201160624915
:1020B0008A681042FCD080229201134380221201D0
:1020C0001A6080225D4B52004A6063615C4B596824
:1020D000FF2900D85A6080225A4BE1691201584DFD
:1020E0001A60002905D0606900F09EFA01300138BD
:1020F000FDD1E02252490B681A4080235B012B433B
:102100001A60802380229B012B4312011A608022D7
:102110003E4B52004A60E3614B4B5968FF2900D89F
:102120005A608022494B216A1201474D1A600029EA
:1021300005D0606900F078FA01300138FDD1E02265
:1021400041490B681A4080235B012B431A608023AE
:1021500080229B012B4312011A60802380225B00A6
:102160004B602A4BD2022362394B5968914200D20C
:102170005A608022374B616A1201354D1A6000297E
:1021800005D0606900F050FA01300138FDD1E0223D
:102190002F490B681A4080235B012B431A60802370
:1021A00080229B012B4312011A608023DB024B60CB
:1021B000174B6362284B5A68FF2A02D880225200CC
:1021C0005A608022254BA1691201234D1A60002913
:1021D00005D0606900F028FA01300138FDD1E02215
:1021E0001D490B681A4080235B012B431A60802332
:1021F00080229B012B4312011A6080235B004B60FD
:102200000E4BA361E4E6C046381D0020006CDC02E2
:102210001BB70000008000403CB0004030B00040E0
:10222000002F685900800240008C864700C00240A1
:1022300030800040001BB7003C80004040597307CD
:102240005480004054B000406080004060B00040C6
:102250006C8000406CB000404880004048B00040B6
:10226000014B8000C0587047381D0020F0B5C646AD
:10227000040000B50C2090461F000E0000F0D4F9B9
:102280004101091A8D01691AC900091889014046DE
:1022900000F0CAF9069B3F041A0323681743002B7A
:1022A00022DB1A4B1A4DE21853425A4180235B013C
:1022B0009C461203174B62441A60174B1A601100B8
:1022C000AB689943FBD1C022231D92011A432123FD
:1022D0002660A06013602368002BFCDA0823E76007
:1022E000136080BCB846F0BD3F2322681340B34260
:1022F000D7D1A3681B051B0D8342D2D1EE22E36820
:10230000D2021340BB42CCD1EBE7C0460040FDBF38
:1023100000C0004000E0004000F000408023024A7E
:102320009B000343D36270470080054010B5140042
:1023300080221B4BD2051A6000281AD00123194AAB
:102340001843194BDA61194A42401A62596298627D
:102350008022134BD2051A601549164A1160E022FB
:10236000D2041A60002C07D18022134B12061A6087
:1023700010BD0D4BD861EBE763011B1B9A00802356
:10238000121912015B049A4200D30C4A0C4B1A60DA
:10239000054B5A608022084BD2051A60E8E7C04618
:1023A00000B00540D3C007B0008005402D3FF84F76
:1023B000FCFF01000820014000A00540FFFFFF00D6
:1023C000E4210020AA23064A1B0113602F2305499C
:1023D000D360054B19605368002BFCDA7047C04688
:1023E0000040024000B0FA00006002402C4B2D4A31
:1023F00070B51A602C4A2D4B2D491A6014008B6859
:102400009C43FBD12B4D2C4EB54208D2013E761B8E
:10241000B60808CD984723000134B342F9D1FFF73D
:10242000C1FD264A214B1A60214A9368DB43DB0138
:10243000DD09002BF9D14022214B224C224E9A6714
:102440005A671A67DA66B44208D223682000002B64
:1024500020D00834FEF72EFEB442F6D31B4E1C4C9F
:10246000C022A168300000F0D5F9A660FEF734FB69
:10247000FEF7E4FDFEF7D4FF164C174EB44208D227
:10248000013E361BB60808CC98472B0001359E420A
:10249000F9D170BD0834FEF7FFFDB442D5D3DDE7B6
:1024A00000E00040BFCDFBFEFE7F3C0000F000409E
:1024B00000C0004098130020A8130020FFFFFF0178
:1024C00000F001409013002098130020000000202D
:1024D00000ED00E0A8130020B013002000BEFDE7CF
:1024E00010B5FFF7FBFFC0460FB400B5084883B036
:1024F00000F0C2FA049B002B07D005A91800019137
:1025000000F018F8034800F0B7FA0120FFF7E6FFE3
:102510009C4F0010AC4F001010B50148FFF7E4FFCE
:10252000B04F001010B5002800D110BD00F058FACF
:10253000FBE7C04610B5094A0300146884B0002CBC
:1025400008D0012200910648524203A9A047012069
:1025500004B010BD00F090FA0020F9E7DC21002063
:102560002525001001480421014B1847000F0020C9
:1025700095250010142310B50100188804331B881A
:10258000984710BD162310B50100188802331B8828
:10259000984710BDF8B54746CE4680B50F1E19D0F6
:1025A00014239946043304000025012698464B461F
:1025B0001888434621681B88984701C4431E9841E8
:1025C000013540420640AF42F1D13000C0BCB946AF
:1025D000B046F8BD0126F8E7124A936F9B0815D262
:1025E0009066D166002905D0FFE7FFE7FFE7516F4E
:1025F000106F704704B580210906C21751400028AA
:1026000000D0C84302F038FC002104BDF0B5146EC0
:10261000556E576F166FFFF7E3FF146655665767E1
:102620001667F0BD000000D0114A936F9B0813D2CB
:1026300010665166002905D0FFE7FFE7FFE7516FFD
:10264000106F704704B5002801D00020C04302F08D
:1026500013FC002104BDC046F0B5146E556E576FD3
:10266000166FFFF7E5FF1466556657671667F0BDEE
:10267000000000D0132370B51D78012D15D010DD9A
:102680001C48FFF77FFF1C4C01008022200000F057
:10269000C1F8022D06D01948FFF76CFF184B1860DF
:1026A00070BD154C174BA364F5E7164B124C236015
:1026B0006360A360E36023616361A361E3612362FC
:1026C0006362A362E36223636363A363E3632364DC
:1026D0006364A364E36423656365A365E3652366BC
:1026E0006366A366E36623676367A367E367A36420
:1026F000D1E7C04653440000B81400204C3300001A
:10270000142200200927001007B5604601880A0A34
:102710000230DF2AFAD1C9B2820804D30288408885
:102720000004104300E00068014A5050039007BDC8
:10273000B814002051434343C9188C46110C83B28E
:102740004B4310B4040C614392B280B250436243D5
:102750001C041B0C001910BC59411304120CC018A6
:102760005141614470470000132310B512481C7892
:10277000FFF708FF0100012C0AD003DD80220F487B
:1027800000F048F80E48FFF7F5FE0E4B186010BD3C
:102790000A4C5422200000F03DF80B4B6365A36502
:1027A000E36523666366A366E36623676367A367DF
:1027B000E3672362E361E5E753460000B8150020B4
:1027C0004C33000014220020CD27001007B56046CE
:1027D00001880A0A0230DF2AFAD1C9B2820804D37A
:1027E000028840880004104300E00068014A50500D
:1027F000039007BDB815002001480421014B18477C
:10280000100F002095250010014B1B681847000091
:10281000100F0020014B5B6818470000100F0020CC
:10282000030010B5080011001B68984710BDC04692
:10283000F0B546464F46D646C0B5437D80460E00AD
:102840001700002B46D0002A3FDD4B1E9946244B33
:102850000125002400209A460DE04B461B5D0D3BF0
:102860005A425341325DDBB20A2A0BD02B000134AD
:1028700001359F421ADD002CEFD14346325D1B7DAE
:102880000A2AF3D1002BF1D1A04204DA4346211ADF
:102890001B6830189847434650461B6802219847EA
:1028A000013428002B0001359F42E4DC874204DD1F
:1028B0004346391A1B6830189847F619013E337899
:1028C0000D3B5A42534142461375E0BCBA46B146ED
:1028D000A846F0BD0368110030009847F5E7C046F0
:1028E0001C500010F0B5DE4657464E464546E0B552
:1028F00085B017001C0006000D00FEF7E7FF00235F
:10290000304A12184B41002B58DB2F4908008A46E9
:1029100002F0CAFA01906B1C03D1300002F062FA97
:102920000500002C25D1294B9846294B1C68002C0A
:1029300015D0002F20D1274F02E02469002C0ED0A3
:102940002368002BF9D03B68002B01D0A342F4D1BF
:1029500020002A003100C0472469002CF0D1019BDF
:10296000002B27D105B0F0BCBB46B246A946A04615
:10297000F0BD194B9846D8E7164B994602ABDF1DC0
:102980000A239B4602E02469002CE8D02368002B30
:10299000F9D04B461B68002B01D0A342F3D12A008B
:1029A00031002000C0475B460122390020003B7007
:1029B000C047E8E7504602F057FAD3E70122074B39
:1029C0005242A2E740420F0090130020312800102D
:1029D000C81D0020D01D002021280010FFFFFF7F10
:1029E000F0B5CE46474680B583B06B460600DD1D88
:1029F0002870FEF76BFF00231A4A12184B41002B78
:102A00002BDB19490800884602F04EFA174B814625
:102A10001C68002C14D0164F02E02469002C0FD043
:102A20002368002BF9D03B68002B01D0A342F4D1DE
:102A3000200001222900FFF7FBFE2469002CEFD1C2
:102A40004B46002B05D1300003B0C0BCB946B046A0
:102A5000F0BD404602F008FAF5E70122054B52426C
:102A6000CFE7C04640420F0090130020C81D002051
:102A7000D01D0020FFFFFF7F70B5040002F0B2F907
:102A800000230100050001222000FFF72BFF084B67
:102A90001C68002C06D06368002B05D09847246979
:102AA000002CF8D1280070BD2469002CF3D1F9E77F
:102AB000C81D00200A4A1368002B05D10CE01A003B
:102AC0001B691032002B07D09842F8D1002902D19F
:102AD00003691360016170470029FCD01060FAE7B8
:102AE000C81D002010B500F0D9F910BD7047C046D0
:102AF0000022014B1A707047622300204B7900209E
:102B0000FF2B0BD18B79002B08D1CB79012B05D171
:102B1000082A03D98A78024B09301A707047C046D8
:102B2000622300200120704770B5012909D11549A1
:102B30005379107909781B0203430020994202D08F
:102B400070BD0120FCE75378012B08D0022BF7D190
:102B5000002064220021FFF7E9FB0120F0E79478D0
:102B6000D278050012021443D20502D5620A9340BE
:102B70001D000548FFF7FEFC7F21030021402800CF
:102B80009847C0466223002055420000012303708D
:102B9000004870472050001048780B788A7800026F
:102BA0001843120410439622CB7810B51B0603433A
:102BB000D200934200D010BD0348FFF7DBFC002198
:102BC000030008009847C04655420000024B1860B9
:102BD000024B19607047C0462C1D0020301D00209C
:102BE00010B5024B1878FDF7B3FF10BD632300202A
:102BF000114B70B51A68002A1AD0EFF3108172B623
:102C000010680028FCD0BFF35F8F00220B4859608A
:102C100002701B68BFF35F8F1A6081F31088002475
:102C20000025074B1878FDF793FF2900200070BDA1
:102C3000FA240025A400F4E7F421002064230020F6
:102C40006323002070B5040000200E0001F002FB99
:102C5000002835D0002001F015FB002830D0FEF709
:102C600035FE0023184A12184B41002B24DB174D68
:102C7000280002F019F9002822D0002001F0EAFA19
:102C800000280BD1012000210324404200F0CCFC9D
:102C90006442280002F0E8F8200070BD002001F036
:102CA000F1FA0028EED021003200002001F0F6FAFF
:102CB000041EEED1033CECE70122054B5242D6E75D
:102CC00003246442E8E7C04640420F001C22002073
:102CD000FFFFFF7FF8B5DE46574680B505000C00C4
:102CE000FEF7F4FD0023364A12184B41002B5ADB45
:102CF000344908008A4602F0D7F8002803D1C0BC46
:102D0000BB46B246F8BD002001F0A4FA00284ED020
:102D10000026002C43DD2C4B9B4614E0A919002013
:102D200001F030FB070001200021404200F07CFC54
:102D3000002001F0EBFAFEF7C9FD234BF6191860ED
:102D40005960B4422BDD002001F036FBA71B0200C6
:102D5000B84200DD3A00002AE0D1012000214042C3
:102D600000F062FC002001F0D1FA002001F072FABC
:102D7000002814D0002001F01FFB0028E1D1FEF74D
:102D8000A5FD5B460F001A685B68002184460F486A
:102D900012184B419F4202D8D3D19445D1D9504605
:102DA00002F062F8ABE70122094B5242A0E7002093
:102DB0000021054B18605960504602F055F89EE717
:102DC00040420F001C220020B014002020A1070068
:102DD000FFFFFF7F10B5244C84B00021200002F0DB
:102DE00053F800281CD1214B1A68002A16D0EFF3A3
:102DF000108172B610680028FCD0BFF35F8F0124E9
:102E00001B48596002781B68D2B20470BFF35F8F11
:102E10000020186081F31088002A0AD004B010BD89
:102E200001200021404200F0FFFB200002F01CF8CE
:102E3000F4E7FEF72BFB0400FEF748FDFA2200231F
:102E4000920012184B41002B09DB01210291002155
:102E50000191084920000091FEF71CFBDEE70122EA
:102E6000054B5242F1E7C0461C220020F42100200D
:102E700064230020F12B0010FFFFFF7F054B10B5EE
:102E80001868002804D0044B0022196801F044F8A7
:102E900010BDC0462C1D0020301D0020D02310B5D1
:102EA0001B0684B01C68FEF7F1FAFEF7EBFBA042AC
:102EB00002D0002004B010BD264B1B7801F066FC48
:102EC0002548FEF7E9F80120FEF7CAF8FF23234C56
:102ED000234920701840FDF761FE20780121FDF79D
:102EE00025FE0520FDF73CFE002822D1FEF7CEFA94
:102EF0000400FEF7EBFCFA220023920012184B416B
:102F0000002B22DB012102910021019115492000B3
:102F10000091FEF7BFFA0822040000211248FFF7D3
:102F200073FC002CC5DB11480121FFF7C3FD012014
:102F3000C0E700220E490520FDF75AFEFDF7DAFD35
:102F400001000948FEF7D4F8EDE70122094B52428F
:102F5000D8E7C0462C5200101C220020632300201A
:102F6000D52D0010F12B0010F4210020200F00209F
:102F7000E12B0010FFFFFF7F00487047D850001082
:102F8000004870478450001070B50400174803785B
:102F9000002B21D0002C06D1C1241548154BA400CC
:102FA0004380048070BD052C1DD8134B1048A4002D
:102FB000E558811C002304E001330A800231132B01
:102FC0000ED0EA5CDCB2002AF6D1C0230134E4B2B0
:102FD00064009B001C43E4E7112100F017F8D9E7D7
:102FE000CA24A400DDE70020DCE7C0464823002017
:102FF000A01D002009040000EC50001010B502488C
:1030000000F0D8F810BDC0460C22002030B54B1E91
:10301000012900D1A7E0664A11780D112C00303447
:103020009F2900D9A2E00470012B00D1BEE00F213E
:10303000147821400C003034092900DD98E04470F8
:10304000022B00D1B2E054782511290030319F2C99
:1030500000D990E08170032B00D1A7E00F2121401F
:103060000C003034092900DD87E0C470042B00D146
:103070009CE094782511290030319F2C00D97FE005
:103080000171052B00D191E00F2121400C0030345B
:10309000092900DD76E04471062B00D186E0D47862
:1030A0002511290030319F2C00D96EE08171072B4A
:1030B00000D17BE00F2121400C003034092966DC6F
:1030C000C471082B00D171E0147925112900303129
:1030D0009F2C5FD80172092B68D00F2121400C0072
:1030E0003034092958DC44720A2B5FD054792511F9
:1030F000290030319F2C52D881720B2B56D00F21D2
:1031000021400C00303409294BDCC4720C2B4DD00B
:1031100094792511290030319F2C00D90731017392
:103120000D2B43D00F2121400C003034092901DD43
:1031300037310C0044730E2B38D0D1790C1122009A
:1031400030329F2900D9073282730F2B2ED00F22E5
:103150000A4011003731092A01DC30321100C173F5
:10316000102B23D010300023037030BD07345AE7F2
:1031700037310C0063E707316CE737310C0074E737
:1031800007317DE737310C0085E707318EE73731AE
:103190000C0095E707319DE737310C00A3E70731B5
:1031A000AAE737310C00C4720C2BB1D1C018DAE792
:1031B0000C22002030B5002589B00400092200212E
:1031C00001A80095FFF720FB0922002105A804951E
:1031D000FFF71AFB4B236A466846137004A90D22B9
:1031E00001F03AFE1521082220006944FFF712FB86
:1031F00009B030BD10B501210520FDF797FC10BDC9
:1032000010B500220021024800F05AF910BDC04656
:10321000FC1D00208022024B5202DA647047C04637
:1032200000201150F0B5C64600B5060000F022F9A6
:103230000C231B4DFF22AB6705201A49FDF7D8FC74
:1032400040239846184C402200212000FFF7DCFA6A
:1032500043460127238321210023144A6770A2607B
:10326000136063545F31618441462187053963549B
:103270000F4A10496360E260A1620B606362E26220
:1032800001F0E2FD80239B052F64EB6490230A4A42
:103290003000EA50FFF7BEFF80BCB846F0BDC04624
:1032A00000001150F9040020DC1D002084001050A3
:1032B000000110508000105010D001000B785B0608
:1032C00002D14B78052B00D070478A78014B1A60E9
:1032D000FAE7C04600001150F0B5C64600B54B797C
:1032E0000C791B0288782343CC787F21A407014006
:1032F000C509A20F4F001400324E7A195201B218BC
:10330000907001206840507000205B055B0DD0700C
:103310001383D4768046CA00012D33D02A488446D0
:10332000880162448446B44460468260404610602E
:10333000002933D0254AC900904662464144516075
:103340003F223F339343022C00D15B0020487A197F
:1033500001685201B218D1601E4ACB180360514077
:103360005340802288465201934228D84346A406FF
:103370001C4380237F197F011B06F6191C437368C9
:103380001C6011E014488446880162448446B444B9
:103390006046826240461060002909D100236D0119
:1033A000761973600D4BF360012080BCB846F0BD08
:1033B000084AC9009046624641445162C0E7FFF79F
:1033C000ABF8D3E7DC1D002084001050040010503F
:1033D000F02100200000105080001050000110501B
:1033E00010B501F031FD10BD10B57F200C0020405C
:1033F0004000E409110000191A00034B4001C018F5
:1034000000F05EF8012010BDDC1D00207F221300BB
:1034100010B50B400A420BD0C90980225800401851
:103420000649400140181201002101F065FD10BD60
:1034300002220348C909521A8266EEE7DC1D002009
:10344000002011507F22100010B508400A4200D120
:1034500010BD0023C9094000401804494001081864
:1034600000220349C37001F047FDF1E7DC1D002095
:10347000FFF7FFFF80220D4B520410B51A600C4B72
:103480000C491A6010008B689843FBD10A4C9C22AF
:1034900000212000FFF7B8F98022002152010748DF
:1034A000FFF7B2F90923636710BDC04600E0004092
:1034B00000F0004000C0004000001150000010501B
:1034C00070B5837E04000D001600002B17D1002379
:1034D000E38201332000A682A376256101F0F4FC8B
:1034E000002804D080219023084A8902D15020006E
:1034F00001F0FAFC002805D00123237770BD01F00C
:10350000EBFCE4E7200001F0D7FCF7E700201150C6
:10351000024B5878431E9841C0B27047001B0020F0
:10352000024B18784007C00F7047C046001B0020B0
:10353000034B1878FF38431E9841C0B27047C0460D
:103540005C0F0020F8B5CE46474680B52C4E0500EE
:1035500033780120FF2B03D0C0BCB946B046F8BD7C
:10356000532200212748FFF74FF9274C2000FDF791
:1035700093FD264B1C60264C20001430FDF7A8FD5F
:10358000200001F0D1FB234B234F1C60234B9846B6
:10359000002B04D03800FFF7F9FA214B186042469F
:1035A00000243B78002A23D01E4A90461C4A9146AC
:1035B000A34212D80FD14346984701343B78E4B276
:1035C000A342F5D228003570FFF72CFE2800FFF744
:1035D00011FE0120C0E70020BEE74A4612686300E2
:1035E00094461B19DB006344002BF4D01B68E3E70F
:1035F00000F0EEFE3B780020002BADD1E2E7C046A4
:103600005C0F0020001B0020B81A0020541B002073
:10361000400F0020581B00205C2300208D2B001041
:10362000D8170020D1430010F0B5DE4657464E466D
:103630004546E0B58BB001F0AFF8002800D10FE1AE
:10364000CD4BCE4D9946CE4B07AC9B462E6872694A
:10365000EFF3108172B61368002BFCD0BFF35F8FBD
:10366000B1613000210001F0A1F97269B369BFF3C3
:103670005F8F0021116083F31088002800D1EFE0F4
:103680006378082BE2D84A469B00D3589F4663686C
:10369000002BDBD0A0689847D8E77F222179B84E6D
:1036A0000A405000CB093618F61830000127303098
:1036B000C378BB43C370C3780337BB43C370002ACE
:1036C00000D1F2E0AF4AF37C002A06D0AE4A12786D
:1036D000934200D244E19B1ADBB2002B00D0BFE042
:1036E000AA4E62792078A368B047AFE75B46012213
:1036F0001B78012113435A46137033235846D25C7A
:103700005E468A43C254C25C04208243F2540133B1
:10371000F25C8A43F254F25C8243F2542378002034
:103720009A4600F005FD602223791A40602A0DD0E8
:10373000402A00D1BFE0DB06DB0E012B00D137E1D0
:10374000022B00D1D4E0002B00D1C3E0207800216F
:10375000FFF75CFE80212078FFF758FE76E7884E61
:103760003378DB0700D471E7894B002B00D16DE77C
:1037700000E000BF6AE7824E3378DB0700D465E7DC
:10378000844B002B00D161E730780007C00F00E0C8
:1037900000BF5BE77C4B7B4A9846002627781B7866
:1037A000002A00D179E07C4A92469E425FD319D12B
:1037B0007A4B38009847434601361B78F6B2B3423D
:1037C000F3D26F4E532200213000FFF71DF8102274
:1037D000FF21F01CFFF718F830002022FF211330E2
:1037E000FFF712F800F09AFC6D4B002B00D12DE78B
:1037F00000E000BF2AE7644B624A9846002627781B
:103800001B78002A1FD0644A92469E423AD321D1A7
:10381000624B38009847434601361B78F6B2B342F4
:10382000F3D2574E532200213000FEF7EDFF102255
:10383000FF21F01CFEF7E8FF30002022FF211330AB
:10384000FEF7E2FF07E0380000F000FE43461B7879
:10385000002BE6D04A4E00F061FC2379B370F5E608
:103860000BB0F0BCBB46B246A946A046F0BD5246DE
:103870001268730094469B19DB006344002BB1D09F
:103880005B6896E752461268730094469B19DB000A
:103890006344002BDED05B68BBE7380000F0D6FD48
:1038A00043461B78002B9DD18BE762792078A36873
:1038B00000F052FCCAE63B48002800D146E700F081
:1038C00037FC0121504608AA00E000BF002800D0C4
:1038D000BCE63BE7202A00D19FE0002A00D035E774
:1038E0006379092B00D931E72F4A9B00D3589F46B3
:1038F0007023217A0B4200D028E758460F330B4043
:103900005B00CE09C0181F4F8019C07C002F06D065
:103910001D4F3F78B84200D2A1E0C01BC0B20028C2
:1039200000D097E0002A00D048E1204F02206279C1
:1039300090468243012A00D143E14246002A00D04A
:1039400004E75B449E193036F37806AA9B07DB0F29
:10395000023213805046022308A900F081FB75E66D
:103960005A00D3180C4ADB001268D318002B00D180
:1039700076E71E69B5E6C0466C510010581B002062
:10398000001B00208D2B00105C23002045460010FA
:103990000000000000000000D81700204D44001077
:1039A000000000000000000090510010F8510010CD
:1039B000237A0F2B00D9C9E6AA4A5B44DB78002A98
:1039C00005D0A94A127893425ED39B1ADBB2002B32
:1039D00000D0BBE6A548A64E00F0AAFB0121504648
:1039E000F36808AA9847002800D02FE66022160046
:1039F00023791E401A4200D0A8E663790A3B012BC6
:103A000000D9A3E600F094FB63790A2B00D120E1F2
:103A1000504608A900F00CFB18E6237A0F2B00D9BA
:103A200094E6904A5B44DB78002A06D08E4A1278EE
:103A3000934200D2E6E09B1ADBB2002B00D085E671
:103A40008A488B4E00F074FB01215046F36808AAA7
:103A500098473BE70027002A00D167E776E6470052
:103A60003818844FC0003F683F18002A00D15DE736
:103A7000002F00D16AE6F86800F05AFB0121504699
:103A8000FB6808AA984721E77A4A5E00F31816688F
:103A9000DB00F618002E00D158E6F0689CE7A2790A
:103AA000019273789A4207D07378002B00D045E1D9
:103AB000019B002B00D0E9E05B46019A504608A923
:103AC0005A7000F0B5FAC1E5737806AA0232137095
:103AD0005046012308A900F0C3FAB7E5E088030ABD
:103AE000C0B20F2B00D931E663499A008A58974635
:103AF00008A800F023FB5046A179FFF781FB0222C2
:103B0000337813433370A1E5E388012B00D01DE621
:103B10000822337893435A46137079E702203178AC
:103B200006AB9A1C8B068908DB0F01400B4310E79C
:103B3000E388012B00D009E6082233781343EAE733
:103B40004E4B002B00D101E600E000BF021E00D169
:103B5000FCE5D37891781B020B43504608A900F08E
:103B60007FFAB3E6464B002B00D1EFE500E000BF43
:103B7000021E00D1EAE55046137808A900F070FA59
:103B8000A4E62189FFF700FA021EF4D1DEE5022B3C
:103B900000D111E13B4B002B00D1D7E500E000BF85
:103BA0000200002A00D1D1E5D3E7FFF7E5F912239F
:103BB000020008A9504600F053FA87E62B482C4F24
:103BC0005AE7E288002A08D142465B449E19303603
:103BD000F378012A21D09B072ED5002F00D135E59F
:103BE000F86800F0A5FAFB6808AA0121504698473A
:103BF000002000F09DFA34235A46D35CDB0700D541
:103C000024E505E71B4A5E00F3181668DB00F6188A
:103C1000002E00D19AE5F06814E79B07DDD51A4B1A
:103C20001878FFF70FFC0222F37893434246F370B3
:103C3000F3789343F370D0E7134B1878FFF7E6FB64
:103C40000222F37813430122F370F3781343F370E5
:103C5000C3E706AB9A1C5046012308A9167000F072
:103C6000FFF9F3E48D2B00105C2300206145001068
:103C7000F8510010D8170020B851001000000000C3
:103C800000000000000000005C0F0020581EC0B2C1
:103C9000FFF776F9002800D158E543780593022B09
:103CA00000D053E50121C2790700931152110B4056
:103CB0000A4012015B0113435A4612782F318A439E
:103CC00013435A461370C37882781B021343C318F8
:103CD00009370393039BBB4200D8ACE001227B78F9
:103CE00000920B2B03D1FB7800933B78FF187B7875
:103CF000042B00D02AE50026039B584ADB1B9BB20D
:103D00000293574B04931B78B24263D0B846B34238
:103D100056D800D01AE5534B534F41465046029AAD
:103D20009847082803D9029A824200D38AE0049B6C
:103D300001361B78F6B2B342E9D207E55046FFF7E9
:103D40004FFBB378454A0093454B002698461B78B5
:103D5000002A0DD0454FB34225D820D1444B5046C0
:103D60009847434601361B78F6B2B342F3D206E0D9
:103D7000504600F06BFB43461B78002B0FD15322BB
:103D800000215846FEF740FD5B461022FF21D81C5B
:103D9000FEF73AFD2022FF213648FEF735FD5B464F
:103DA000009A9A7084E618233A68734394466344F1
:103DB000002BF4D05B68D2E7FFF7E2F80200F0E6F0
:103DC0002A4B1F6818237343FF18002F00D1BDE44E
:103DD000BB68A2E7029B39001A005046984600F0E3
:103DE0004BFB082800D8B1E44246824200D2ADE441
:103DF0001D4B9846009B012B28D000220AE0BB787F
:103E0000D318DBB25B44D978FF2900D09EE401329D
:103E1000DE70D2B2009B9A42F1D18046330002009C
:103E20003900144800F03CFD049B47441B78B34222
:103E300000D34FE78AE4104B002B00D13CE600E0B2
:103E400000BF39E63B0047469846D3E74246054B5C
:103E500092689A42D1D1059B0093CEE78D2B00103A
:103E60005C23002079440010F8510010D81700207E
:103E70004D440010131B002000000000F8B5574609
:103E80004E46DE4645460C00E0B516001F00002AEF
:103E90003CD0702398461E4B00259B461D4B9A46EE
:103EA0001AE05B461B78200099465346997800F04B
:103EB000BBFC00281CD021004846FFF70DFA002863
:103EC00016D0A378DA09012A19D00A9A013513709D
:103ED0002378E418B54219DA6378052B08D1E37822
:103EE0009B079B0FBB4203D14246A3781A42D8D00E
:103EF0000020F0BCBB46B246A946A046F8BD0B9ACE
:103F0000013513702378E418B542E5DB0120F0E7B2
:103F10005C0F0020001B0020802310B51B0184B023
:103F200001930E4B02901C6803916269EFF31083BA
:103F300072B611680029FCD0BFF35F8FA361200027
:103F400001A900F0F9FD6269A369BFF35F8F002149
:103F5000116083F3108804B010BDC046581B0020C8
:103F6000702270B58B780C001A4201D0002070BD11
:103F7000064B20001D78064B997800F055FC002870
:103F8000F4D021002800FFF7A7F9F0E75C0F00202C
:103F9000001B0020074B080019687F2310B5034061
:103FA000C0095B0033301818034B181800F0F8FBF9
:103FB00010BDC046541B0020001B0020074B08000A
:103FC00019687F2310B50340C0095B00333018180F
:103FD000034B181800F00CFC10BDC046541B002009
:103FE000001B00207F2070B508400F4C4000CD0919
:103FF000241864193034E5780020ED0700D570BD31
:104000000126E578094835430078E570FFF7ECF9BB
:104010000028F4D10122E3789343E370E37803327C
:104020009343E370EBE7C046001B00205C0F0020C9
:1040300070B50A4E0500300008220C00FEF7EAFBBE
:1040400000237F21F3602278B36091425B41280016
:10405000D90100220023FFF7C5FF70BDA41A00207C
:10406000F8B5CE46474691462A4E80B5082207004D
:1040700030000D009846FEF7CDFB4B46B3600023A1
:10408000F381EC79A97924020C43231C444500D91F
:1040900043469AB29046B381002C13D0002A1FD019
:1040A0004B46002B34D0131C402A1FD89BB2984695
:1040B00033787F2B20D80021174A43463800FFF77A
:1040C00091FF09E07F222B7838009A426441002357
:1040D0000022E101FFF786FFC0BCB946B046F8BD3B
:1040E00033787F2B11D980210022E6E740239BB251
:1040F000984633787F2BDED9074C4246494620004C
:10410000FEF788FB80212200D7E700210022D4E7B8
:104110000020E1E7A41A0020C01A002010B51422E4
:1041200000210248FEF770FB10BDC046A41A002013
:10413000014B18617047C046A41A002010B5054C09
:10414000010008222000FEF765FB0023A360E36066
:1041500010BDC046A41A0020F8B53B4C1D002378C2
:104160000600DA09C9098A4213D00020002D00D0C8
:10417000F8BD364B002B03D021003000FFF79EF82E
:104180002369002B44D022000321300098470120EE
:10419000EEE77F2B06D8A068002837D02A002C49EC
:1041A000FEF738FBA368E28959195219E38892B2E5
:1041B000E281A160934214D03F2D12D9A589A81A9B
:1041C000071C80B240282FD82378BFB27F2B2DD870
:1041D0000021AA4235D01E4A3B003000FFF702FF03
:1041E000C6E72369002B05D0220002213000984742
:1041F00000280FD07F220021237830009A424941C5
:1042000000230022C901FFF7EDFEB1E70020AFE770
:104210000120ADE700213000FFF7F8F830008021E1
:10422000FFF7F4F80120A3E74027CDE7AA4207D023
:10423000074C3A002000FEF7EDFA80212200CBE780
:1042400080210022C8E7C046A41A0020BD32001019
:10425000C01A002010B50400FFF75AF9002801D158
:10426000002010BDFFF75CF90028F9D1B2208000D2
:10427000444303480019037901201840F1E7C04680
:10428000DC170020B2239B00584310B5024B1030BE
:10429000C01800F057FB10BDDC170020F0B5B225A8
:1042A000AD0045432C00C646174F1034E41900B545
:1042B000200092B200F0CAFB0600200000F060FB74
:1042C0003F2803D8300080BCB846F0BD7B190020E1
:1042D000D9789846FFF75EFE0028F3D0200000F062
:1042E0004FFB3F280AD992239B00EA184346D21974
:1042F000D97800204023FFF775FEE3E7434600200E
:10430000D978FFF75BFEDDE7DC170020F8B5040085
:10431000FFF7FEF8002801D10020F8BDFFF700F9F3
:104320000028F9D1B220800044432500144E2435E2
:10433000AD19280000F006FB0028EDD03719002049
:10434000B978FFF727FE0028E6D0A2239B009C4601
:104350006444A41921002800402200F077FBB978BA
:10436000051E08D0030022000020FFF73BFE0028B6
:10437000D2D02800D1E70020FFF720FECCE7C046CE
:10438000DC17002070B5B224A4004443094B243448
:10439000E418050092B2200000F012FC0600200094
:1043A00000F0D0FA3F2801D8300070BD2800FFF798
:1043B000ADFFF9E7DC170020B2239B00584310B58E
:1043C000024B2430C01800F0DBFA10BDDC170020CF
:1043D000B222F0B51B4C83B0002120009200FEF702
:1043E00013FAFF236371184B80260025E380012711
:1043F0000823210020007600237332002781383102
:104400000095073B103000F065FA2100200039319B
:104410003200FF3101230097243000F05BFA8E2335
:104420009B00E6183000FCF737FE90239B002662C5
:10443000E6183000E561FCF72FFE2663656303B0E4
:10444000F0BDC046DC17002000C2FFFF10B5094CCC
:10445000052200212000FEF7D7F920002434103077
:1044600000F062FC200000F05FFC0121200000F061
:104470007BFC10BDDC170020F0B54B79060083B043
:10448000022B02D18B79022B03D00025280003B028
:10449000F0BD304FBB78002BF7D18B7809253B70EE
:1044A0000C780C196378242B0BD1082A02D80FE062
:1044B000AA420DD32378E418ED186378ADB2242B0B
:1044C000F6D0052B21D0042B02D163790A2B2FD0F3
:1044D000214C200000F054FA3F28D7D92600103E86
:1044E0000020F178FFF756FD0028CFD0200000F023
:1044F00047FA3F2817D98E239B00E218F93BF17841
:10450000FF3B0020FFF76EFDC0E721003000FFF702
:1045100027FD0028B9D0A3787B702378ED18E41824
:104520006378ADB2CFE7F1780020FFF747FDADE744
:104530000A4B2778019301330093022202233000B3
:10454000E119FFF79BFC00289FD00E35ED19ADB2A5
:10455000BEE7C046DC170020EC170020DE17002065
:10456000F8B5602314001278050013400020202BBA
:1045700012D12F4A6379277916781B023B439E425A
:104580000AD16378222B27D007D8202B17D0212BD4
:1045900002D101293DD00120F8BD232BFCD10129F6
:1045A0003FD00329F7D1234B002BF4D0E178A37837
:1045B00009020020194300E000BF0120ECE70129B7
:1045C00027D00329E7D11C4B002BE4D00020911DFC
:1045D000FEF7E2FA0120DFE7012922D00329DAD130
:1045E00001252E00A378E478023924021C431471BB
:1045F000264024321000714000F0B6FB0F4B002B18
:10460000C9D06208002031002A4000E000BF01202C
:10461000C2E7072321002800094AFFF721FD0120F6
:10462000BAE721002800FFF703FD0120B4E7C046E8
:10463000DC17002000000000992B00100000000093
:10464000E2170020F8B557464E464546DE46E0B52F
:10465000494F8046FA780C001E008A4264D19AB213
:1046600092239B00FD1810239B46BB44290058460B
:1046700000F0A6FA414BD946002B18D07B79D946D9
:10468000FF2B14D0002E12D0AA19924603E0013558
:1046900055450CD07B792A789A42F8D1484600F0EB
:1046A00067F90028F3D1797900E000BFEFE7344BD8
:1046B000002B04D0484600F05BF9002852D0484651
:1046C00000F05EF93F2834D84A46103A9378A34266
:1046D00007D001242000F0BCBB46B246A946A04644
:1046E000F8BD284B002B02D0002000E000BF0020C6
:1046F000FFF70CFE0028ECD1234D280000F022F932
:104700000028E6D1002EE4D0B306E2D1243D404695
:10471000A978FFF73FFC041EDBD0002300224046AF
:10472000A978FFF75FFCD5E7BB788B42D9D000248E
:10473000D0E74D46103D0020E978FFF72BFC00281C
:1047400001D1AB78C3E7484600F01AF93F280CD9ED
:104750008E22920040230020E9784A44FFF742FC71
:10476000AB78B4E7FEF78AFBA9E70020E978FFF70A
:1047700025FCAB78ABE7C046DC170020000000004A
:104780007D2E0010000000000018002010B5002051
:10479000FEF7D8FE10BDC04610B5FEF7C9FE10BD2D
:1047A000037870B5DB0704000E00DD0F002B17D176
:1047B00003785B0701D5280070BD01213000494214
:1047C00000F06AFB2378DB07DD0F002B0AD123788A
:1047D0005B0708D40422237801251343237002E0E9
:1047E0000025E8E70025300000F03EFBE3E7C04687
:1047F00070B50D00012104004942280000F04CFB77
:1048000023785B07DE0F002B04DB280000F02CFB75
:10481000300070BD2378DB0704D40422237893434F
:104820002370F2E70026F0E710B5437904791B0204
:1048300023435B055A0DC3789B079B0F022B05D0C2
:10484000032B15D00020012B08D010BD02291CD04D
:104850000020402393424041C0B2F6E702394B4268
:1048600059410D4B9C46614491424041C0B2ECE736
:1048700002394B425941F023002049429B00194024
:10488000403191424041C0B2DFE7044BD3185A4255
:104890005341D8B2D9E7C046FF03000000FEFFFF36
:1048A0008A1870B5914207D27F264C78052C04D027
:1048B0000C7809198A42F8D870BD34008D782C40E4
:1048C00064000419ED0963550C7809198A42ECD883
:1048D000F2E7C046F0B5C64600B5040006A8057864
:1048E0008020884617001E000002824227D8E06818
:1048F000002803D00121494200F0CEFA20690028A7
:1049000003D00121494200F0C7FA434623607304F3
:104910005B0CED031D430023E0686381A780E58005
:104920002381002801D000F09FFA2069012400288B
:1049300001D000F099FA200080BCB846F0BD0024F8
:10494000F9E7C04610B5048941898288A3B288B2CC
:104950008C4207D31B1A9BB2101C9A4200D9181C18
:1049600080B210BD5100091A5B189BB2F4E7C04633
:10497000030000895B89C01A43425841C0B27047A6
:1049800010B5048941898288A3B288B28C4207D3CA
:104990001B1A9BB200209A4201D9D31A98B210BDBB
:1049A0005100091A5B189BB2F4E7C04670B50400C9
:1049B00000690E00002803D00121494200F06CFA82
:1049C00025896089A288A9B283B285422CD3CD1AE9
:1049D000ADB2002D2ED0AA4208D2914231D38B1A0B
:1049E0009BB263819A4203D89B1A9BB29A42FBD92D
:1049F000E28821685204520C53433000C918FDF775
:104A000009FF618901254B1C9BB2A288994214D9E8
:104A1000002352009B1A9BB220696381002801D0B9
:104A200000F022FA280070BD5500ED1A4D19ADB204
:104A3000002DD0D1002563899BB252009342EBDB5D
:104A4000E8E789188BB26381CCE7C046F0B54646EB
:104A50004F46D646C0B506000069894690460028F4
:104A600003D00121494200F017FA31897289B588D3
:104A70008BB294B2914257D31F1BBFB2002F4DD0BF
:104A8000BD4205D2AB4254D25B199CB22F00748157
:104A90004346B84540D89FB2A54203D8641BA4B290
:104AA000A542FBD9F288281B5204530C19009846E2
:104AB000336861439C4680B26144874226D94346AD
:104AC000584383B21A0048469A46FDF7A3FE434670
:104AD00048467D1B64195C4331685044A2B2FDF71F
:104AE00099FE7189B588CB199BB26A00994217D992
:104AF0009B1A9BB230697381002801D000F0B4F991
:104B00003800E0BCBA46B146A846F0BD4246484629
:104B10007A43FDF77FFEE4E73B1CBCE773899BB259
:104B20006A009342E6DBE3E76F003F1BDF19BFB289
:104B3000A4E75B1B9CB2A9E7F8B50400C0680E00AF
:104B4000002803D00121494200F0A6F925892089D7
:104B50006189A288ADB283B28FB2884228D3DB1BB1
:104B60009BB29A4209D8E779FF0906D1E06800288C
:104B700001D000F079F93800F8BD2B00954203D33D
:104B80009B1A9BB29342FBD2E28821685204520CDA
:104B90005343C8183100FDF73DFEA2886B1C9BB241
:104BA00052009D4209D99B1A9BB201272381DDE760
:104BB0005100C91B5B189BB2D3E79342F5DBF2E7C8
:104BC000F0B54E464546DE465746E0B589460500F7
:104BD000140083B0002A6ED0C068002803D00121E1
:104BE000494200F059F92F89EA796B89BFB29BB22B
:104BF000D20942D1AE889F4267D27200D31AFB1805
:104C00009BB2002290469E4231D9F31A1A1C9BB2E5
:104C1000A34200D9221C93B29846E8884346FB1869
:104C20009BB29B463C00B74203D3A41BA4B2B44240
:104C3000FBD24004430C18009A462B6860439C4604
:104C4000311B89B2604441454ED3524643464946E2
:104C50005A43FDF7DFFDAB885B00BB4501D39B45A5
:104C600003DB5A46D31A9BB29B465B462B81E8680E
:104C7000002822D000F0F8F81FE0AA88904694425D
:104C800026D29F4244D34146FA1A92B249001219E1
:104C90008A4209DB42469A1892B2171BBFB293466A
:104CA000BB423AD97F1ABFB2E3199BB246469B4634
:104CB000A046E888B6E700239846404603B0F0BC1B
:104CC000BB46B246A946A046F0BDFB1A9BB298E788
:104CD000E888A21A4404640C54434246A144002AC2
:104CE000C5D046461F0099E75346594389B20A008A
:104CF00001914946FDF78EFD43469A1B5346A21883
:104D00005A430199286892B24944FDF783FDA2E70E
:104D10005100CA1ABA1892B2B9E7B942C2DD464682
:104D2000E888A0467EE7C04610B50400C0680028A9
:104D300003D00121494200F0AFF82069002803D0D8
:104D40000121494200F0A8F80023E0686381238133
:104D5000002801D000F088F82069002801D000F078
:104D600083F8012010BDC04670B50400C0680D0076
:104D7000002803D00121494200F08EF82069002864
:104D800003D00121494200F087F87F21E379ED014A
:104D90001940E0682943E171002801D000F064F86F
:104DA0002069002801D000F05FF8012070BDC046E6
:104DB000094B10B51C68094AA83420686168084B83
:104DC000FDF7B8FC01220023801859412060616082
:104DD0004800400810BDC046600F00202D7F954C54
:104DE0002DF4515810B583070AD00300032102E0C7
:104DF00001330B4205D01A78002AF9D1181A10BDD8
:104E0000030019680C4A0D4C8A188A4322420FD1BC
:104E10005968094A04338A188A43224208D15968DA
:104E2000054A04338A188A432242F1D000E0013354
:104E30001A78002AFBD1E1E7FFFEFEFE8080808029
:104E4000F8B5C0460000000001B40248844601BC29
:104E5000604700BF9503002001B40248844601BCAE
:104E6000604700BFD102002001B40248844601BC63
:104E7000604700BF3102002001B40248844601BCF3
:104E8000604700BFA10D002001B40248844601BC68
:104E9000604700BFC100002001B40248844601BC45
:104EA000604700BFA101002001B40248844601BC54
:104EB000604700BF0501002001B40248844601BCE0
:104EC000604700BF750B002001B40248844601BC56
:104ED000604700BFD109002001B40248844601BCEC
:104EE000604700BF110B002001B40248844601BC9A
:104EF000604700BFF909002001B40248844601BCA4
:084F0000604700BF1D0B0020FB
:104F080090050010560500103C0500102205001001
:104F1800BC0400106004001022040010BC0500103E
:104F2800BC050010020400100A48656C6F20776FFA
:104F3800726C64210D0A00004E6F207370696E6CEC
:104F48006F636B732061726520617661696C616261
:104F58006C6500004E6F207573657220495251735D
:104F68002061726520617661696C61626C65000020
:104F7800486172647761726520616C61726D202589
:104F88006420616C726561647920636C61696D6528
:104F9800640000000A2A2A2A2050414E4943202A48
:104FA8002A2A0A000A0000004861726420617373AB
:104FB8006572740052656C6561736500626F6F7429
:104FC800325F77323571303830000000312E352E9F
:104FD800300000007069636F00000000626C696E49
:104FE8006B0000004F6374203331203230323300BD
:104FF80006005250BBFF3CB6DC4F00100600525072
:10500800E182887FC44F001006005250D3F07542E9
:10501800BC4F00100D0A0000ED2A0010F12A001004
:10502800FD2A0010292B0010252B0010000000007D
:1050380055534220737464696E202F207374646F13
:10504800757400000600525053B4F4A13850001093
:1050580052617370626572727920506900000000B5
:105068005069636F00000000426F6172642043441E
:105078004300000052657365740000000902540083
:10508800030100807D080B000202020000090400F1
:10509800000102020004052400200105240100018A
:1050A80004240202052406000107058103080010F4
:1050B80009040100020A000000070502024000007E
:1050C800070582024000000904020000FF000105F4
:1050D80012010002EF0201408A2E0A0000010102BB
:1050E8000301000000000000585000106850001034
:1050F80048230020705000107C500010556E6861E5
:105108006E646C65642049525120307825780A0015
:1051180065702025642025732077617320616C7287
:105128006561647920617661696C61626C65000013
:1051380043616E277420636F6E74696E756520789D
:10514800666572206F6E20696E616374697665208A
:105158006570202564202573000000006F757400B9
:10516800696E00004C360010F637001094370010B6
:105178004C360010763700105E370010EC36001001
:105188009A3600108E3600101C3B0010083B0010A9
:105198004C370010303B00104C370010F03A00102C
:1051A800DC3A00104C370010C83A00109E3A001044
:1051B8004C370010AA3B00108E3B0010823B0010B9
:1051C8004C3700104C370010643B00108E3B001029
:1051D8004C3700104C3700104C3700104C3700107B
:1051E8004C3700104C3700104C370010403B001073
:1051F800D14300104D44001079440010614500105F
:08520800454600100000000003
:10521000AC020010A002001094020010F84F001021
:105220008802001004500010105000104C50001064
:1052300003000068EFF3108C72B60268002AFCD0FD
:10524000BFF35F8F04229A56002A0BDB00290FD090
:1052500000200A601B68BFF35F8F00221A608CF386
:1052600010887047D0221206126801201A71F1E7E7
:105270000020EFE7F0B5C646150000B504001E009B
:105280000268EFF3108172B61368002BFCD0BFF3F5
:105290005F8F0423E356002B2DDB2268BFF35F8F63
:1052A0000020106081F31088D0221206127852B2CA
:1052B00090469A4203D1002080BCB846F0BD00273A
:1052C0000BE02368BFF35F8F1F6081F31088280015
:1052D000310000F051FE0028EDD12268EFF310817B
:1052E00072B61368002BFCD0BFF35F8F23797F2B3E
:1052F000E7D9434602E0D0231B061B6823712368CD
:10530000BFF35F8F00221A6081F310880120D3E77A
:10531000F0B5C64600B50D00040000F0FDFDFA2210
:1053200006000F00002328000021920000F014FE68
:1053300036184F41002F2CDBD0231B061B6800259D
:1053400098460BE02368BFF35F8F1D6081F31088E0
:105350003000390000F010FE002818D12268EFF369
:10536000108172B61368002BFCD0BFF35F8F2379D6
:105370007F2BE7D9434623712368BFF35F8F002259
:105380001A6081F31088012080BCB846F0BD00206F
:10539000FAE70126014F7642CEE7C046FFFFFF7FC6
:1053A0000268EFF3108172B61368002BFCD0BFF3D4
:1053B0005F8FFF2303710368BFF35F8F00221A60C2
:1053C00081F3108840BF7047084810B50378002B60
:1053D0000AD180230649074A5B051C68CC50043378
:1053E0009342FAD10123037010BDC0465F23002011
:1053F0002C1C00100001001010B5024B013398471F
:1054000010BDC0462C1C0020034B1A68C0239B0013
:105410009343024A136070470C8001400C90014096
:10542000054B1A6880239B005340C0229200134012
:10543000024A13607047C0460C8001400C90014046
:105440001423F0B5D6464F4646469A4681461888FC
:105450000433C0B598460E001B88274914009847AE
:10546000534607001888434624491B8898475346EB
:1054700005001888434622491B8898478046FFF755
:10548000A3FFB847A847FFF7CBFF002C1BD0C021D4
:1054900022000827022049053D008B6A1D40184262
:1054A0000BD0002C09D0131B0D2B1FD84B461B789B
:1054B000013C0B6601239C46E1442300002D0CD1E6
:1054C0001343002BE8D1FFF79FFFC047FFF794FF7E
:1054D000E0BCBA46B146A846F0BD002AF1D00B6E3A
:1054E000013A3370130001362343EAE7002DD3D08D
:1054F000002AD1D0F3E7C0464946000045580000D5
:105500004643000000231C4A10B59360D3601B4A39
:1055100000219360D3601A4A1A489360D3601A4AF4
:105520009360D360194A9360D360194A9360D36043
:10553000184A9360D360184A9360D360174A936007
:10554000D360174A9360D360164A9360D360164ABB
:105550009360D360154A9360D360154A9360D3601B
:10556000144A9360D360F022920000F0FDFC124BCD
:10557000124A1A6010BDC0460000105008001050BA
:10558000100010501C1E0020180010502000105059
:1055900028001050300010503800105040001050BB
:1055A000480010505000105058001050600010502B
:1055B0006800105070001050F02100208001105041
:1055C000F0B55746DE464E464546E0B5234B87B01C
:1055D0009F6D002F23D0224B00249946012398462B
:1055E000204B01269A4604E001347600E4B2202CD8
:1055F00015D03E42F8D04B469E65434665086D0087
:10560000A343ED186D015544280000F0A1FB0028CC
:105610000CD10134B743E4B27600002FE7D107B0D4
:10562000F0BCBB46B246A946A046F0BDAB78082206
:105630009B46EB8A002103A8019300F095FC072309
:10564000594602AA5371019B117203A801210593C7
:1056500000F0A6FB280000F013FBDAE70000115071
:1056600000301150DC1D00209823D14A70B5D55868
:1056700080232C009B02102684B01C401D4278D051
:10568000CC4BCD4C9A6ACD4B00261A603B23E35C91
:10569000022B00D1D7E07B23E35C022B00D11AE27E
:1056A000BB23E35C022B00D103E2FB23E35C022B70
:1056B00000D1ECE13C23FF33E35C022B00D1D1E1CC
:1056C0007C23FF33E35C022B00D1B6E1BC23FF3324
:1056D000E35C022B00D19BE1FC23FF33E35C022B54
:1056E00000D14FE1B64BE35C022B00D136E1B54B64
:1056F000E35C022B00D11DE1B34BE35C022B00D134
:1057000004E1B24BE35C022B00D1EBE0B04BE35C75
:10571000022B00D1D2E0AF4BE35C022B00D1B9E009
:10572000AD4BE35C022B00D19EE0AC4BE35C022B63
:1057300000D1E2E1002E08D1A94B1B78002B04D147
:105740008021A84A90338902D15001AE984B0C2297
:10575000002130009C6C00F007FC03236405640DFD
:105760007370300002940121802400F019FB9E4EDA
:10577000A402EB0663D480235B021D4214D00122F5
:1057800023211C438C4B5A54DA70C023974ADB0008
:10579000019302AB03CA03C3012101A800F000FB7F
:1057A0008022904B92021A6580235B011D422FD10B
:1057B0008023DB011D421AD180231B021D4204D12C
:1057C000AC4200D0B3E104B070BD01AE0C220021A8
:1057D00030001C4300F0C8FB05230121737030002A
:1057E00000F0DEFA80227F4B12011A65E8E701AE75
:1057F0000C22002130001C4300F0B6FB04230121E1
:105800007370300000F0CCFA1022764B1A65D3E7A3
:1058100000221C43664B01AE1A60FFF773FE0C2298
:105820000021300000F0A0FB012301217370300043
:1058300000F0B6FA80226B4B12031A65B8E7FFF747
:10584000BFFE340097E73833E65C002E00D122E734
:105850000233E25C002A00D11DE700222000E2545E
:10586000203000F03FFA16E7614BE35C002B00D1DB
:105870005BE7EF239B00E25C002A00D04FE1574B2F
:10588000E35C022B00D060E75A4BE35C002B00D0B6
:1058900038E15AE7584BE35C002B00D140E7DF22A8
:1058A0009200A15C1E00002900D139E70023A35417
:1058B000D8239B00E01800F015FA31E74F4BE35C6A
:1058C000002B00D127E7CF229200A15C1E00002907
:1058D00000D120E70023A354C8239B00E01800F068
:1058E00001FA18E7464BE35C002B00D10EE7BF221C
:1058F0009200A15C1E00002900D107E70023A354F9
:10590000B8239B00E01800F0EDF9FFE63D4BE35CA7
:10591000002B00D1F5E6AF229200A15C1E00002909
:1059200000D1EEE60023A354A8239B00E01800F06A
:10593000D9F9E6E6344BE35C002B00D1DCE69F228C
:105940009200A15C1E00002900D1D5E60023A354DB
:1059500098239B00E01800F0C5F9CDE62B4BE35CE3
:10596000002B00D1C3E68F229200A15C1E0000290B
:1059700000D1BCE60023A35488239B00E01800F06C
:10598000B1F9B4E6F933FF33E35C002B00D1A9E6AB
:10599000FE225200A15C1E00002900D1A2E62000D8
:1059A0000023E130A354FF3000F09CF99AE6C04692
:1059B0000000115000400540DC1D0020CC1D0020DF
:1059C0003B0200007B020000BB020000FB02000063
:1059D0003B0300007B030000BB030000FB0300004F
:1059E0005E23002000301150100002000000105013
:1059F000BA030000FA0300007A0300003A03000033
:105A0000FA020000BA0200007A0200003A02000026
:105A1000B933FF33E35C002B00D15DE6DE22520098
:105A2000A15C1E00002900D156E620000023A13011
:105A3000A354FF3000F056F94EE67933FF33E35CB0
:105A4000002B00D142E6BE225200A15C1E000029BC
:105A500000D13BE6200000236130A354FF3000F06A
:105A600041F933E63933FF33E35C002B00D127E6FD
:105A70009E225200A15C1E00002900D120E62000D9
:105A800000232130A354FF3000F02CF918E6F8333E
:105A9000E35C002B00D10DE6FC22A15C1E00002976
:105AA00000D107E600232000A354E03000F01AF9EB
:105AB00000E6B833E35C002B00D1F6E5BC22A15C24
:105AC0001E00002900D1F0E500232000A354A030DF
