:020000041000EA
:1000000000B5324B212058609868022188439860DF
:10001000D860186158612E4B002199600221596106
:100020000121F02299502B49196001219960352056
:1000300000F044F80222904214D00621196600F024
:1000400034F8196E01211966002018661A6600F04E
:100050002CF8196E196E196E052000F02FF8012189
:100060000842F9D1002199601B49196000215960AB
:100070001A491B48016001219960EB211966A021F2
:10008000196600F012F800219960164914480160C1
:100090000121996001BC002800D000471248134993
:1000A000086003C880F30888084703B5996A0420EC
:1000B0000142FBD001200142F8D103BD02B5186610
:1000C0001866FFF7F2FF186E186E02BD00000240BE
:1000D000000000180000070000035F00212200005C
:1000E000F4000018222000A00001001008ED00E03C
:1000F00000000000000000000000000074B24E7A12
:1001000000200420F7010010C3010010C5010010F9
:10011000C1010010C1010010C1010010C101001097
:10012000C1010010C1010010C1010010C701001081
:10013000C1010010C1010010C9010010CB01001065
:10014000CD010010CD010010CD010010CD01001037
:10015000CD010010CD010010CD010010CD01001027
:10016000CD010010CD010010CD010010CD01001017
:10017000CD010010CD010010CD010010CD01001007
:10018000CD010010CD010010CD010010CD010010F7
:10019000CD010010CD010010CD010010CD010010E7
:1001A000CD010010CD010010CD010010CD010010D7
:1001B000CD010010CD010010CD010010CD010010C7
:1001C00000BE00BE00BE00BE00BE00BEEFF3058054
:1001D000103800BEF2EB8871F46100101462001058
:1001E0003402001090A31AE700201F49086006C8D7
:1001F00081F3088810471D48006800282FD10DA4FE
:100200000ECC002902D000F012F8F9E71849194A7B
:10021000002000E001C19142FCD1174988471749ED
:1002200088471749884700BEFDE701C901C29A42C5
:10023000FBD3704714620010C0000020301800206B
:10024000847900100000042000000420847900104C
:10025000001004200010042000000000704709482E
:1002600002F048FB0047000008ED00E0000000D06D
:1002700030180020102700203927001069030010D3
:10028000612800105756000006005250ABB360536F
:10029000B85F001006005250861C0302C85F0010B1
:1002A000060052505422A29DD05F0010050052500B
:1002B000DE65F46884790010F8B5C04610B5064CC8
:1002C0002378002B07D1054B002B02D0044800E017
:1002D00000BF0123237010BD381B00200000000068
:1002E000F85E0010044B10B5002B03D003490448FE
:1002F00000E000BF10BDC046000000003C1B002015
:10030000F85E0010154AF0B59369DB0616D4144B5D
:10031000144F00269E5F3B6810215C1C0D2320209B
:100320009C4693691942FCD113689569284206D00E
:100330009369250001341942F3D03D60F0BD0133CB
:10034000DDB2AE4204D093691842FCD11560EFE7EC
:1003500093691842FCD163461360F4E70040034000
:10036000EC260020E8200020F0B5D6464F46464651
:10037000C0B502F073FF04F0F3FDE121674C4902C0
:10038000200001F011FF0221002000F049FB0221B2
:10039000012000F045FBE1212000490201F074FF3B
:1003A000C022236B120213405D4A142013606022A6
:1003B000E36A5A406E2313405A4A13601023E16ADD
:1003C0000B401360584900F03BFC0121142000F061
:1003D000FFFB5023A363626B183B1340534A142066
:1003E000136000F035FBD024802324065B03636296
:1003F0001520A36100F02CFB80239B03636219206E
:10040000A36100F025FB80239B04636207E00120C9
:100410000021404203F0C4FC0A2001F03DFB03F040
:1004200033FC0028F3D0424B00279A46012399461B
:10043000404D414C414EFA239B009846012000213B
:10044000404203F0ADFC022004F0C0FA002844D181
:1004500001F0E2FB00293BD0FA220023920002F0D7
:10046000B9FA2368C01A404508D3FA22920094468C
:100470000122634423603378534033702B78002B80
:100480003FD1012001F008FB01F0C6FB002915D087
:10049000FA220023920002F09DFAFA23C21B5B00AD
:1004A0009A42CBD3D0224946120653685B0E1942BA
:1004B0002FD180239B0407005361BCE7FA218900F8
:1004C00002F04AFAFA23C21B5B009A42B6D3E9E76C
:1004D000FA21890002F040FAC3E7002004F08EFA06
:1004E0000028B5D0802251460020520004F092FA34
:1004F0000028ADD04B46C1B250462B7000F03AFAFE
:10050000A6E7002004F0BEFA00F026F800232B70C6
:10051000B7E780239B04070093618CE7004003400A
:10052000305003402C50034005030010345003406A
:10053000EC2500200B270020D025002008270020D4
:10054000436910B51A6801239340D02212069361C3
:1005500001F0FAF9002010BD0023024A1370024A8C
:10056000137070470E27002005270020F0B5CE46F7
:10057000474680B5437804000278057985B0522B50
:1005800024D0572B04D005B0C0BCB946B046F0BD4E
:10059000DA2A46D0032002F0D9FC03240500D44B0C
:1005A0001A8802809B78837029002200002004F0C2
:1005B000D3FA241A2D1801200021404203F0F0FB49
:1005C000002CF1D1002004F08BFADCE78678C378A8
:1005D000FA2A20D0DA2AD6D1012B00D104E1022B4D
:1005E000D1D1062002F0B2FC06240500C14B1A68E6
:1005F00002609B884670838029002200002004F05E
:10060000ABFA241A2D1801200021404203F0C8FB48
:10061000002CF1D1D6E7062BB5D8B74A9B00D358AA
:100620009F46D0231B06994680234A465B035361AD
:100630001423B24F64263D713B6000F087FFFA221D
:1006400080462800002370439200002102F01CFC29
:100650000B0039000197AA4F083102910200009760
:10066000404601F071F823794A46984680239B035F
:1006700053614346A34C23711523236000F066FFAA
:10068000FA2205004046002370439200002102F048
:10069000FBFB0B00210008310200029128000194AD
:1006A000009701F051F875E7422002F04FFC050079
:1006B00042244222944902F069FC6E702900220013
:1006C000002004F049FA241A2D180120002140428C
:1006D00003F066FB002CF1D174E7072002F036FC32
:1006E00007240500894B1A6802609A8882809B79EA
:1006F0004670837129002200002004F02DFA241A8C
:100700002D1801200021404203F04AFB002CF1D1BA
:1007100058E7012D00D18BE0022D00D1A9E0032D77
:1007200000D1CBE0042D00D108E1052D00D02AE74F
:10073000072002F00BFC07240500754B1A680260C5
:100740009A8882809B79467083712900220000205C
:1007500004F002FA241A2D1801200021404203F06F
:100760001FFB002CF1D12DE7062002F0EFFB062441
:100770000500684B1A6802609B88467083802900D8
:100780002200002004F0E8F9241A2D18012000218D
:10079000404203F005FB002CF1D113E7082002F0E2
:1007A000D5FB070002005C4B03CB03C27E70012D1A
:1007B00034D0022D37D0032D7BD0042D0FD0082448
:1007C00039002200002004F0C7F9241A3F18012044
:1007D0000021404203F0E4FA002CF1D1F2E61023AC
:1007E000FB704E4BBB80EAE7062002F0AFFB06240D
:1007F00005004B4B1A6802609B8846708380290075
:100800002200002004F0A8F9241A2D18012000214C
:10081000404203F0C5FA002CF1D1D3E60223FF33A6
:10082000FD70BB80CBE70423FB703E4BBB80C6E76B
:10083000092002F08BFB02003B4B050003CB03C2F7
:100840001B78092413700023EB70384B6E70AB805B
:100850000423AB7129002200002004F07DF9241A42
:100860002D1801200021404203F09AFA002CF1D10A
:10087000A8E6072002F06AFB2D4B05001A68072442
:1008800002609A8882809B79467083710023C370CE
:100890008A33037129002200002004F05DF9241A34
:1008A0002D1801200021404203F07AFA002CF1D1EA
:1008B00088E60823FB701F4BBB8080E7082002F00E
:1008C00045FB0500020008241B4B03CB03C26E70DE
:1008D00029002200002004F03FF9241A2D180120DD
:1008E0000021404203F05CFA002CF1D16AE6C046D8
:1008F0008C0E0020200E0020F85E0010B00E0020AC
:1009000041050010D00E0020400E0020980E00205F
:10091000180E0020900E0020F00E00201010000095
:10092000280E002004040000A00E00200203000096
:10093000840E002008080000380E0020062002F077
:1009400005FB062405000A4B1A6802609B88467066
:10095000838029002200002004F0FEF8241A2D18BC
:1009600001200021404203F01BFA002CF1D129E6BE
:10097000300E0020F8B5060000290CD00023254DCC
:100980002A78012A43D0022A06D0002A0CD001334B
:10099000D8B28842F5D3F8BD00221F4C0133227033
:1009A0002A70DAB29142F6D9F25CFA2A08D0DA2A31
:1009B00006D00133DAB29142EDD9F25CFA2AF6D1CF
:1009C0000022154C15482270F25C0133027001229E
:1009D0002A70DAB29142DED94A1E94462278013258
:1009E000D2B22270F75C87549C450BD00133DAB247
:1009F0009142D0D922780132D2B22270F75C87546A
:100A00009C45F3D1FFF7B2FD02232B70C3E7024CE4
:100A10000248E1E7052700200C270020C025002020
:100A2000094A830094464022634410B51C68C00004
:100A30006240C02414408022520113431C60034BC7
:100A40009C466044416010BD04C00140004001402C
:100A50000123D0228340120693629361094A8300E6
:100A60009446402263441968C0004A40C0211140A6
:100A70008022520113431960034B9C4605236044B6
:100A80004360704704C0014000400140024B1868B9
:100A90008007C00F7047C04600C0064070B5EFF336
:100AA000108C72B60D4D2B68002BFCD0BFF35F8FFE
:100AB0000724CB08C618C05C01230C40A3401C00CF
:100AC0000440034207D103433370BFF35F8F2C60B0
:100AD0008CF3108870BD100001F0C6FE2C0100D010
:100AE000F8B54746CE46884680B5EFF3108C72B60F
:100AF000214D2C68002CFCD0BFF35F8F9A422CD87C
:100B0000D4080727055D061901241740BC402C4274
:100B10001FD007210127894609E0D408055D061981
:100B20004C4639001440A1400C00294211D001323A
:100B30009342F2D201204042BFF35F8F00220E4B5E
:100B40001A608CF3108800280FDBC0BCB946B04691
:100B5000F8BD2C4310003470EEE7BFF35F8F002325
:100B60002B608CF31088012040424346002BECD0D0
:100B7000089801F079FEC0462C0100D00021044BFA
:100B8000044ABFF35F8F02C39342FAD17047C04655
:100B9000000100D0800100D0044A1078431CDBB271
:100BA000172B00D9102313707047C046F80E002091
:100BB00000B5054B83B00100009318221F230348A2
:100BC000FFF78EFF03B000BD145F0010EC20002083
:100BD00001238340002904D0034A1360034A1360B1
:100BE0007047034A1360FBE780E200E000E100E0A9
:100BF00080E100E001238340014A13607047C04652
:100C000000E200E0084B10309B688000C358002BC6
:100C100007D0064A00209B1A2F229A424041C0B2B8
:100C200070470020FCE7C04600ED00E0FC0E00200D
:100C3000024B10309B688000C058704700ED00E008
:100C400070B50D00EFF3108672B60F4A1368002BD3
:100C5000FCD0BFF35F8F0D4B10309B6884001B5995
:100C60000B4A934203D09D4201D001F015FE074B81
:100C70009B681D51BFF35F8FBFF35F8F0022024B54
:100C80001A6086F3108870BD240100D000ED00E0EA
:100C9000CD010010F0B557464E46DE464546E0B55C
:100CA00085B0060002911700EFF3108B72B6674A09
:100CB0001368002BFCD0BFF35F8F0025644B5D579A
:100CC0009A46002D00DAA4E06B00624C03935B1996
:100CD0009B009846A146C1444B4652469B7910362C
:100CE00013705D4BB2009B68019299580B1B2F2B20
:100CF00034D95A4B994200D0A4E0039B584A9C46F1
:100D0000584B6544AD006353434602336519E418FC
:100D1000554B0121043B1B1B1B055B0D13436B80D3
:100D2000524BEF71AB80FF23AB71029BAB604B4624
:100D30000B431900484B019A9B689950BFF35F8F92
:100D4000BFF35F8F0022414B1A608BF3108805B010
:100D5000F0BCBB46B246A946A046F0BD01200A0041
:100D60008243D379BB422FD845464E4613004049B3
:100D70001B1B5B415943090D3A4B63533A4B0235F8
:100D80006519043B5B1B1B05354D5B0D2B437380C5
:100D90000426B446E0444444131F1B1B4C46A17177
:100DA00002991B05A16049465B0D2B43A380314B83
:100DB000E77101431360BDE75800C0188000201898
:100DC000C679BE422BD902000623D356002BF3DA94
:100DD000101D82462848804604267642B446E144E7
:100DE00050464E46361A3005400D824656461C483F
:100DF000957106439680039A944665441D4AAD005A
:100E0000641922604246A371029BA280E771A3602D
:100E100090E701F041FD002553465D5754E7101D52
:100E2000824690884005001584464046D444664674
:100E300004302018301AE0260005400D36023043F9
:100E40008046C9E701F028FD57E7C046240100D0DD
:100E500006270020FC0E002000ED00E0CD01001070
:100E600000E0FFFF00A1FFFF2C0F002001BDFFFFEE
:100E7000AAAA00000148804701BD0000F0B5DE4687
:100E800057464E464546E0B50C0083B0EFF3108957
:100E900072B6584A1368002BFCD0BFF35F8F564BD5
:100EA0009A68030010339F00D559544A90469542E2
:100EB00032D0A54243D0524EAA1B2F2A2CD8012251
:100EC0008240924651464F4A126811400191514664
:100ED0004D4A1160BFF35F8FEFF305829346002AFE
:100EE00033D101232A009A4393689C4208D177E0CA
:100EF0004B005B189B00F3189968A1422AD01A0096
:100F0000062151560029F3DA019B002B19D05246D5
:100F10003E4B1A603B4B1A60374B9B68DD51BFF369
:100F20005F8FBFF35F8F0022324B1A6089F3108806
:100F300003B0F0BCBB46B246A946A046F0BD1500C2
:100F4000EAE75246304B1A60E6E79342C9D001F017
:100F5000A3FCC6E706215956002921DB4A00501898
:100F6000800034188046A0689860E079D871062027
:100F700020569871002824DBA488F01A64052415F3
:100F800044440019E0240005400D240220439880C9
:100F900052181F4B9200B6181A781970B271B3E745
:100FA000594600290FD1FF3191711A499180184992
:100FB0000A789A71184A9B1B5B415A43120D0A70BA
:100FC000A2E71648E3E7164A1649D21A083A500231
:100FD000400D01439980144952080A43DA8093E78F
:100FE0000621515613000029B8DA5A46002AEAD1E0
:100FF0004546DCE7240100D000ED00E0CD01001003
:10100000FC0E002000E100E080E100E080E200E072
:101010000627002001BDFFFFAAAA000001BD0000B5
:10102000360F002000F0FFFF00F8FFFF70B5EFF370
:10103000058101240443EFF3108C72B6214A136832
:10104000002BFCD0BFF35F8F1F4B05001F4AED1A2A
:101050006D416A43120D1E4D8900AE6852B276583A
:10106000A6421CD00621595691421CD01221595635
:10107000914222D01E215956914220D02A21595600
:101080000324914210D0134B19781A708171BFF369
:101090005F8F00220B4B1A608CF3108870BDAB6819
:1010A0000D4C5C50EFE700246100091989005B18C2
:1010B000FF21997109499980E5E70124F4E70224A9
:1010C000F2E7C046240100D0FC0E0020AAAA0000CE
:1010D00000ED00E006270020CD01001001BDFFFF5C
:1010E000054B064A1360064A136053609360D36051
:1010F00013615361936170478080808000E400E059
:1011000004E400E000B5074B83B001000093002227
:1011100005230548FFF7E4FC002801DB1F23181A0C
:1011200003B000BD305F00100F270020024B9C462B
:1011300061448900016070474000003410B504002C
:10114000FFF72AFD01002000FFF7F0FFFF232371C6
:10115000BFF35F8F10BDC04610B50400FFF71CFD44
:1011600001002000FFF7E2FFFF23A380BFF35F8FA2
:1011700010BDC04610B504000120FFF719FD044B57
:101180009C46604480002060BFF35F8F10BDC04666
:1011900040000034034B9C46614489000160BFF36A
:1011A0005F8F70474000003483680B4810B5844659
:1011B00061446244090112019A18591854684B6835
:1011C00001209C4201D802D00020C0B210BD12689C
:1011D0000B689A42F9D8F7E7FFFFFF0F10B5080038
:1011E0000B690C009847002802D02068616810BD88
:1011F000E06000210020FAE70A4B1968EFF3108045
:1012000072B60A68002AFCD0BFF35F8F1B68BFF379
:101210005F8F00221A6080F3108840BF00200021F9
:101220007047C046CC250020F8B557464E46454687
:10123000DE46E0B599460CAB1C780DAB1B7806007A
:1012400090469A460768002C11D1BC7B002C42D0F6
:1012500065003B682D19033D59194B78BB73002B72
:1012600000D1FB7300238B704B700B7004E06500A2
:101270003B682D19033D5919B2682A4B94464246E2
:10128000E3181B0163441A604A465A600A9A9A603E
:101290000B9ADA6000238B704B700B707B7B9B4644
:1012A000002B2BD022005946B8687B6898473A68D3
:1012B000002816D05B4658465B005B445519033B3B
:1012C000A870D118D35C002B00D06B705B460C70FB
:1012D0007B73A34513D0F0BCBB46B246A946A046DB
:1012E000F8BD5B465B005B44033BD3189C7051190F
:1012F000525D002A00D05A705B460B707C734246E8
:101300004B46307D00F0E8FC051E06D05346002B0E
:1013100003D12100306800F009FF0E9B002BDAD0CA
:101320001D70D8E7FFFFFF0FF0B5DE4657464E466B
:1013300045460023E0B58BB00893664B8200D45835
:1013400000239B46099000F067FC626806000F00CE
:10135000EFF3108572B61368002BFCD0BFF35F8FDC
:1013600023689C465B7B9946002B68D0A2685A4B49
:1013700090464B441B01984443461A685B68100032
:101380001900801BB941002963DD099800F0A4FC15
:1013900000230022984600230692079300239A46D2
:1013A0006368BFF35F8F5A461A6085F3108853460F
:1013B000002B08D10028C6D10BB0F0BCBB46B2460A
:1013C000A946A046F0BD089B414618024B4618436B
:1013D000D047626806000F00EFF3108572B61368FD
:1013E000002BFCD0BFF35F8F002F4FDB33003B435C
:1013F00002D02369002B60D12368D97B002907D054
:101400004A00521819688C4649466244033A5170A2
:101410009A7B002A01D14A469A734A46DA734B46B0
:10142000E168013BCA5C0132CA545B4623616368D0
:10143000BFF35F8F5A461A6085F3108883E7002355
:1014400000229846002306920793002300209A4624
:10145000A6E7002901D1002897D10021604600F0BD
:10146000E3FD43461A685B680692079343469B6810
:101470009A464346DB689846E3684B44013B1B7839
:1014800008931B0203432361002089E72369002B93
:10149000B2D0069A079B921BBB41002B15DB594625
:1014A000049101210391494602914146019151461F
:1014B00020000091FFF7B8FEB7E700F0ADFB320067
:1014C0003B0012184B41002BE9DA0122034B524238
:1014D000E5E7C046A8250020FFFFFF0FFFFFFF7FC5
:1014E00010B5144C6368002B04D00A211248FFF792
:1014F0001DFE10BD2300114A1021206800F0AEFC33
:10150000032000F07DFB032000F056FC03200C4973
:1015100000F09CFBFFF740FB0A4B9C46032323751E
:10152000D0231B061B6860446375074B8000606016
:10153000DC60DAE7440F0020CC250020A911001060
:101540002913001040000034A825002000487047EF
:10155000440F0020F0B557464E464546DE46E0B5FE
:1015600085B0019310AB1B780600039300239A46C5
:10157000984600927268EFF3108972B61368002BD8
:10158000FCD0BFF35F8F3568AC7B002C49D067007F
:101590002B683F19033FDB195A78AA73002A00D140
:1015A000EA73B168484A8C4600980199A218120162
:1015B0006244106051600E9991600F99D16042466B
:1015C0009A705A701A706B7B9B46002B45D0220094
:1015D0001900A8686B6898472A68002830D05B46D5
:1015E00058465B005B44D719033BB870D118D35CF5
:1015F000002B00D07B705B460C706B735C452DD06C
:10160000F3681B19013B18787368BFF35F8F42467C
:101610001A6089F310885346002B2CD10002204316
:1016200007E07368BFF35F8F1C6089F310880120A7
:10163000404205B0F0BCBB46B246A946A046F0BD4C
:101640005B465B005B44033BD3189C70D119D25DB1
:10165000002A00D05A705B460B706C73307D009A84
:10166000019B00F039FB82460028C9D02100306878
:1016700000F05CFDC4E7039B002B23D00E9B0020F1
:101680000F999847030004000D000B431AD000295E
:101690000ADA009A019B121BAB4100920193002BC6
:1016A0000ADB039B9A4665E700F0B6FA24184D4121
:1016B00000940195002DF4DA0123044C5B42009361
:1016C0000194EEE70020B4E7FFFFFF0FFFFFFF7F6D
:1016D00070B542680400EFF3108572B61368002BF2
:1016E000FCD0BFF35F8F2068CEB2437BB3420AD0F9
:1016F000FF230B405A00D318026894466344033B0F
:101700009B78002B13D0E268FF2394460B40634480
:10171000013B0A0A1978D2B291420ED000206368C8
:10172000BFF35F8F00221A6085F3108870BD2269B5
:101730008A42F3D100202361F1E7310000F0F6FC8A
:10174000EDE7C046407D7047F0B54E464546DE4663
:101750005746E0B585B01099050089461100194338
:1017600000D1D8E0D81704005440260004005C40A3
:1017700001002700361A8F4149460E980A600F9AD9
:101780008D6008614B604A6100F046FA801979412A
:1017900000900191002900DAC7E00023A8469B468B
:1017A0001F0043465A68EFF3108A72B61368002B85
:1017B000FCD0BFF35F8F43461E68B47B002C00D182
:1017C00085E063001B19033B1A00944603933368BA
:1017D00063445A78B273002A00D1F2734146896893
:1017E000564A8C4600980199A21812016244106072
:1017F0005160534991604946D1605A469A705A7077
:101800001A70757B002D00D176E022002900B068A7
:10181000736898473268002863D003996B005B199E
:101820005118033B8D70D018D35C002B00D07AE0A8
:10183000047075733E00AC425FD043464246DB689D
:1018400052681B19013B1B78BFF35F8F594611602B
:101850008AF31088002E0CD101261B021C434B4634
:101860003000DC6005B0F0BCBB46B246A946A046DD
:10187000F0BD4846036998470700031E01D10024C4
:10188000EDE74A461468556822002A4353D0002DDC
:101890000EDA009A019B121BAB4100920193002BC0
:1018A00000DB7EE70123274C5B420093019478E73D
:1018B00000F0B2F924184D4100940195002D00DB91
:1018C0006FE701231F4C5B420093019469E75B685B
:1018D000BFF35F8F1C608AF31088012400266442E6
:1018E000BDE76B005B19033B0398D3189C7011187C
:1018F000125C002A14D10D7074734346187D009A4F
:10190000019B00F0E9F9061E97D0434621001868B4
:1019100000F00CFC91E701260027012200232BE7B1
:101920005A700D70E8E74B7082E70123054C5B426B
:101930000093019431E71E00002490E7FFFFFF0FA2
:10194000DD110010FFFFFF7FF0B5C646C36804003D
:1019500000B50020002B02D180BCB846F0BDA568C0
:101960006968EFF3108672B60A68002AFCD0BFF3EC
:101970005F8F2868D9B2427B8A4224D0FF221A4066
:101980005700B84607689044BC4647466744033F43
:10199000BF78002F12D0EF681B0ABC466244013AA0
:1019A0001278DBB29A4211D000206A68BFF35F8FD1
:1019B0000023136086F31088E360CDE72A69934221
:1019C000F2D12F61F0E7FF221A40E4E700F0AEFB0E
:1019D000EBE7C046F0B504000D0006267642F71787
:1019E000C64636196F4100B584B08F4214D811D065
:1019F00000F012F932003B00121A8B41002B15DC6B
:101A0000002B3ED02000290000F010F904B080BC6B
:101A1000B846F0BD8642EBD90026002700F0FCF85E
:101A200032003B00121A8B41002BE9DD00230293A8
:101A30000193154B3200009314483B00FFF78AFDD9
:101A40000028DFDB00239846BC46114A114F7B6A11
:101A50009C4504D8B96A8E42D4D99C45D2D111682C
:101A6000EFF3108072B60B68002BFCD0BFF35F8FD2
:101A70001368BFF35F8F4146196080F3108820BF61
:101A8000E5E7002ABED0D1E7F9110010440F00208D
:101A9000CC2500200040054070B5060000F0BCF8E1
:101AA000FA2204000D00002330000021920001F012
:101AB000EBF900196941002902DBFFF78BFF70BDCC
:101AC000012001494042F8E7FFFFFF7F70B5EFF3C7
:101AD000058305000C0084B0002B0AD0164A0020B4
:101AE000536A9C4203D8926A0130AA421FD304B0C1
:101AF00070BD124E02930193114B0200009330000F
:101B00000B00FFF727FD011EE8DD20BF3000FFF7C7
:101B1000DFFD094B0020596A8C42E8D89B6A0130EE
:101B2000AB42E4D2641A631E9C41E0B2DFE7E41AE0
:101B3000631E9C41E0B2DAE700400540440F0020FC
:101B4000F9110010F0B5EFF30582D6464F46464630
:101B50001000C0B51038EFF3108872B6214C23681E
:101B6000002BFCD0BFF35F8F0123190081401E4D75
:101B70001F006963AA461D4D29601D4D2E78AC4695
:101B80003500C5402F402B4209D1BFF35F8F27603E
:101B900088F31088E0BCBA46B146A846F0BD53466B
:101BA000144D5F6A83005D59AF420ED3124A8E43D3
:101BB0009B5862461670BFF35F8F0022226088F345
:101BC0001088002BE6D09847E4E70C4B92009C4627
:101BD000624413681360BFF35F8F0023236088F3B0
:101BE0001088D7E7280100D0004005403C70054030
:101BF0000D270020DC250020D01F0020D03F05400D
:101C000010B50100024A0348FEF748FF10BDC04668
:101C10004C5F001004270020034B596A0A00986AA1
:101C2000596A8A42FAD1704700400540064A536A11
:101C30009942FCD807D1044B02E05A6A914202D182
:101C40009A6A8242F9D370470040054070B504009B
:101C50000D00EFF3108672B61A4A1368002BFCD001
:101C6000BFF35F8F002D1BD02000FEF7E1FF164968
:101C700081420AD02000FEF7E3FF01212000FEF799
:101C8000A7FF0123A340114A1360114BA400E550A4
:101C9000BFF35F8F00220B4B1A6086F3108870BD74
:101CA0000B4BA200D5500122A2400A4920000B781C
:101CB00093430B700449FFF7E1F800212000FEF781
:101CC00087FFE5E7280100D0451B0010386005407C
:101CD000D01F00200D270020F0B54F46D6464646BF
:101CE000C0B507002F4C616A0D00A66A616AA9425F
:101CF000FAD18B4208D805D00120E0BCBA46B146E3
:101D0000A846F0BDB242F7D9EFF3108A72B6264862
:101D100001680029FCD0BFF35F8F0125BD40234936
:101D2000204C8846097889462943C9B28C464146E9
:101D300060460870391D1E48890065630A51B90064
:101D40000B50216A0020294219D0616A0800A66A56
:101D5000616A8142FAD18B4219D801D1B24216D8B8
:101D6000CC451DD00F4B1F201D625D630123074032
:101D7000BB40104A1E38136043464A461A70BFF3F0
:101D80005F8F0022084B1A608AF31088B5E70020A5
:101D9000BFF35F8F0022044B1A608AF31088ACE710
:101DA0000120ECE700400540280100D00D2700206D
:101DB000DC25002080E200E0EFF3108C72B60A49C7
:101DC0000B68002BFCD0BFF35F8F01238340074AD1
:101DD0000748136202789A430270BFF35F8F0023B3
:101DE0000B608CF310887047280100D0004005403C
:101DF0000D27002070B5050014001600002915D02D
:101E00000C00002A12D080686B6898472968002867
:101E10000ED073009B196200033B1219CB18033AD2
:101E20009C7088188A5C002A15D10670200070BD4D
:101E300063001B197200033B9219CB18033A9E7082
:101E400088188A5C002A02D104703400EEE75A70C8
:101E500004703400EAE75A700670E7E730B5836033
:101E60000023CCB243730133047342608373C473A1
:101E70000D000068012C06D9421C0133DBB213703F
:101E800003329C42F9D1FF2129404B00591800230D
:101E900040180338437030BDF8B5CE4647460600BB
:101EA0000C0080B5002907D04D0003686D18033D74
:101EB0005A195778002F04D12000C0BCB946B0464B
:101EC000F8BD7900C91903398846434459788946D1
:101ED00000215970517073683A002100806898475A
:101EE0003368002814D042469A18947059195B5DE3
:101EF000002B00D053700F70270049463000FFF7C9
:101F0000CBFF390002003000FFF774FF0400D3E775
:101F1000424641465D19AF709A185B5C002B00D0B9
:101F20006B701470E9E7C046F0B557464546DE468B
:101F30004E46E0B50D006B0001685B19DF1E040022
:101F4000C85D83B00192CA19002850D043001B1805
:101F5000033BCB185E78B446002E1AD1019E002EAA
:101F600042D0E67B002E04D073009B19CB18033BB4
:101F70005D70A37B002B00D1A573E57300282FD1E2
:101F80000023537003B0F0BCBB46B246A946A0463E
:101F9000F0BD72006244033A89184A7890460022E4
:101FA0004A7091465A70010032002000FFF722FF6C
:101FB00043468246002B07D05B0021684344033B25
:101FC000CB185A78002A16D1424651462000FFF716
:101FD00011FF2168019BCA19002BC2D10028CFD064
:101FE00043001B18033BCB1800219970C8E7019BE5
:101FF000002BB6D1C4E75000801803380918487880
:10200000834648464870587041462000FFF7F2FE6C
:10201000594680462000FFF73FFF4146020020005E
:10202000FFF7E8FE8046CFE7F0B557464546DE4667
:102030004E46E0B583B00191457B04006B0000681B
:102040005B19DF1EC15DC219002952D04B005B181D
:10205000033BC3185E78B446002E1CD1019E002EAF
:1020600044D0E67B002E04D073009B19C318033BB9
:102070005D70A37B002B00D1A573E573002931D1DE
:10208000002328005370617303B0F0BCBB46B24616
:10209000A946A046F0BD72006244033A8018427817
:1020A00090460022427091465A7020003200FFF79D
:1020B000A1FE43468246002B07D05B0021684344C3
:1020C000033BCB185A78002A17D1424651462000CC
:1020D000FFF790FE019B01002068C219002BC0D1C0
:1020E0000029CDD04B005B18033BC318002098702B
:1020F000C6E7019B002BB4D1C2E75000801803381B
:102100000918487883464846487058704146200070
:10211000FFF770FE594680462000FFF7BDFE41469E
:1021200002002000FFF766FE8046CEE770B504008F
:1021300000292CD0437B8B422ED0056848004018E4
:10214000033828188278002A21D053009B18033BBB
:10215000EA5CEE188A4202D11BE0002A08D0530044
:102160009B18033BEB185A788A42F6D142785A7092
:1021700000230122837043702000FFF7D5FE617BAE
:1021800002002000FFF736FE6073012000E000200F
:1021900070BD43783370EBE701221900FFF7C4FEEE
:1021A00060730120F4E7C046F8B5040006200D0076
:1021B00000F0FCF9002844D02A4B2B49E218534286
:1021C0005A418023DB039C469205284B62441A60E7
:1021D000274B1A6010008B689843FBD1214B80215C
:1021E000E3185A425341234A5B00490099520620A2
:1021F00000F0DCF92900C00000F0AEFBC30921D1DA
:1022000040270121260080256162A36200232C362D
:10221000AD0135432B60062000F0C8F9390080007D
:1022200000F09AFB6023E26A53406E221A4080233A
:102230005B0133431A60104B236310232B600D3B6B
:10224000A364F8BD0D4A934203D900230C4F0D49F6
:10225000D8E77F221040013040089F0119003F1845
:102260000300CFE70080FCBF00C0004000E000405A
:1022700000F00040EC26002001030000FEFF0000FB
:10228000C0FF3F00FFFF000070B5040006200D00F6
:1022900000F08CF92900C00000F05EFBC30906D0F5
:1022A000104A934215D900230F4D104A01E04025F2
:1022B000012280206262A362002380012C34044347
:1022C0002360062000F072F92900800000F044FB32
:1022D00070BD7F221040013040089D011A002D186A
:1022E0000300E6E7FEFF0000C0FF3F00FFFF000025
:1022F00030B50C2083B000F0B7F9FEF7C7FB00281B
:102300000ED0944B944A1A605A609A60DA601A614F
:102310005A619A61DA611A62904A5A6203B030BD1A
:102320008F4CA06700F0F4F901228E4B1A60636CA9
:10233000012BFCD103228C4B1A60894A936B012B31
:10234000FCD101330121894A89480093043300F00C
:1023500033F90523874A00930121874800F02CF9BF
:10236000864B5A68FF2A02D8802252005A60802287
:10237000784C7D4B21691201804D1A60002905D0EF
:10238000606900F0E9FA01300138FDD1E0217B4BB2
:1023900002201A681140802252012A4311601968F4
:1023A000484003210140116004219A681142FCD089
:1023B0008022802192012A4309011160802252006B
:1023C0005A606F4B23616F4B5968FF2900D85A60E0
:1023D0000321644A6B4B116002399A681142FCD0A8
:1023E000E0201A681040802252011A4310601868D9
:1023F0004840032101400220116062498A6810426E
:10240000FCD0802292011343802212011A608022A4
:102410005D4B52004A6063615C4B5968FF2900D8EC
:102420005A6080225A4BE1691201584D1A60002906
:1024300005D0606900F090FA01300138FDD1E0224A
:1024400052490B681A4080235B012B431A6080239A
:1024500080229B012B4312011A6080223E4B5200C6
:102460004A60E3614B4B5968FF2900D85A608022CB
:10247000494B216A1201474D1A60002905D0606955
:1024800000F06AFA01300138FDD1E02241490B68C1
:102490001A4080235B012B431A60802380229B011A
:1024A0002B4312011A60802380225B004B602A4B71
:1024B000D2022362394B5968914200D25A6080227D
:1024C000374B616A1201354D1A60002905D06069E9
:1024D00000F042FA01300138FDD1E0222F490B68AB
:1024E0001A4080235B012B431A60802380229B01CA
:1024F0002B4312011A608023DB024B60174B63628F
:10250000284B5A68FF2A02D8802252005A60802243
:10251000254BA1691201234D1A60002905D060697D
:1025200000F01AFA01300138FDD1E0221D490B6894
:102530001A4080235B012B431A60802380229B0179
:102540002B4312011A6080235B004B600E4BA3618A
:10255000E4E6C046F0200020006CDC021BB700005F
:10256000008000403CB0004030B00040002F68596F
:1025700000800240008C864700C00240308000404E
:10258000001BB7003C800040405973075480004056
:1025900054B000406080004060B000406C8000405B
:1025A0006CB000404880004048B00040014B8000C3
:1025B000C0587047F0200020F0B5C646040000B5B2
:1025C0000C2090461F000E0000F0C6F94101091AC8
:1025D0008D01691AC90009188901404600F0BCF94B
:1025E000069B3F041A0323681743002B22DB1A4B78
:1025F0001A4DE21853425A4180235B019C46120354
:10260000174B62441A60174B1A601100AB6899436C
:10261000FBD1C022231D92011A4321232660A06012
:1026200013602368002BFCDA0823E760136080BC8A
:10263000B846F0BD3F2322681340B342D7D1A36808
:102640001B051B0D8342D2D1EE22E368D202134058
:10265000BB42CCD1EBE7C0460040FDBF00C000400C
:1026600000E0004000F000408023024A9B0003434A
:10267000D36270470080054010B5140080221B4BC8
:10268000D2051A6000281AD00123194A1843194BA1
:10269000DA61194A42401A62596298628022134BE9
:1026A000D2051A601549164A1160E022D2041A6058
:1026B000002C07D18022134B12061A6010BD0D4B5F
:1026C000D861EBE763011B1B9A00802312191201EA
:1026D0005B049A4200D30C4A0C4B1A60054B5A60BB
:1026E0008022084BD2051A60E8E7C04600B00540DA
:1026F000D3C007B0008005402D3FF84FFCFF01001C
:102700000820014000A00540FFFFFF0098250020A1
:10271000AA23064A1B0113602F230549D360054BEA
:1027200019605368002BFCDA7047C0460040024035
:1027300000B0FA00006002402C4B2D4A70B51A60C0
:102740002C4A2D4B2D491A6014008B689C43FBD1F9
:102750002B4D2C4EB54208D2013E761BB60808CD53
:10276000984723000134B342F9D1FFF7C1FD264A4F
:10277000214B1A60214A9368DB43DB01DD09002B02
:10278000F9D14022214B224C224E9A675A671A6790
:10279000DA66B44208D223682000002B20D0083427
:1027A000FEF7DAFCB442F6D31B4E1C4CC022A168E3
:1027B000300000F0EBFBA660FEF7E0F9FEF790FCBE
:1027C000FEF78EFE164C174EB44208D2013E361B61
:1027D000B60808CC98472B0001359E42F9D170BD50
:1027E0000834FEF7ABFCB442D5D3DDE700E000408F
:1027F000BFCDFBFEFE7F3C0000F0004000C000406B
:102800001818002028180020FFFFFF0100F00140E9
:1028100010180020181800200000002000ED00E033
:10282000281800203018002000BEFDE7094A0300E8
:102830001068002805D00849C3188B4207D81360D8
:10284000704706480449C31810608B42F7D901202D
:102850004042F5E7902100200000042010270020CE
:1028600010B5FFF7E1FFC0460FB400B5084883B0CC
:1028700000F0BEFC049B002B07D005A918000191B5
:1028800000F018F8034800F0B3FC0120FFF7CCFF7C
:10289000705F0010805F001010B50148FFF7E4FF83
:1028A000845F001010B5002800D110BD00F054FC6A
:1028B000FBE7C04610B5094A0300146884B0002C39
:1028C00008D0012200910648524203A9A0470120E6
:1028D00004B010BD00F08CFC0020F9E79425002026
:1028E000A528001001480421014B1847700F002053
:1028F00015290010142310B50100188804331B8813
:10290000984710BD162310B50100188802331B88A4
:10291000984710BDF8B54746CE4680B50F1E19D072
:1029200014239946043304000025012698464B469B
:102930001888434621681B88984701C4431E984164
:10294000013540420640AF42F1D13000C0BCB9462B
:10295000B046F8BD0126F8E7114A936F9B0813D2E1
:1029600010665166002905D0FFE7FFE7FFE7516FCA
:10297000106F704704B5002801D00020C04303F059
:1029800073FA002104BDC046F0B5146E556E576F42
:10299000166FFFF7E5FF1466556657671667F0BDBB
:1029A000000000D094464A4A926F9208624601D2D3
:1029B00028E0C046F0B5464E346E756E776F366FC0
:1029C00000F020F89446424A146655665767166729
:1029D0006246F0BD94463E4A926F9208624601D22A
:1029E00054E0C046F0B53A4E346E756E776F366F70
:1029F00000F04CF89446364A1466556657671667D9
:102A00006246F0BD002B24DB11D000293EDA00B570
:102A1000C943404200D1013100F038F8C943404277
:102A200000D10131DB43524200D1013300BD002A05
:102A3000EBD1002801D1002905D00020C90FC9071A
:102A400001D1C043410800B503F0FEF90022002384
:102A500000BD00B500290ADBDB43524200D101333F
:102A600000F014F8C943404200D1013100BDC94310
:102A7000404200D10131DB43524200D1013300F02A
:102A800005F8DB43524200D1013300BD002923D1B8
:102A9000002B18D1002A0CD0BC460D4F38667A6640
:102AA00000210023FFE7FFE7FFE77A6F386F6746F3
:102AB0007047002801D00748010000B503F0C4F9B1
:102AC0000022002300BD02000B00002000217047FF
:102AD000000000D0FFFFFFFF002B00D0BFE0130C71
:102AE00028D1002AE7D080B4114F39667A66FFE713
:102AF000FFE730B4040C7B6F396F1B0423433B6644
:102B00007A66FFE7FFE7FFE7C04684B27B6F3D6F61
:102B10001B0423433B667A66FFE7FFE7C0460023BA
:102B20002C042D0C7A6F386F00196941B0BC7047C6
:102B3000000000D0F0B594460025140E01D1120219
:102B40000835140F01D112010435940F01D1920000
:102B50000235D40F01D152000135D40B0134254F79
:102B60007C66254C3C660E0C93B2FFE7FFE7FFE75F
:102B70003C6F6643360C7703BE467343DF0B5B0442
:102B8000C01AB941130C7343DB18C91ACE08664347
:102B9000360CB64493B273431F0F1B01C01AB941E0
:102BA000130C73431F0B1B05C01AB941860D8F020E
:102BB0003E436643360C092D24DB520A7243801AC9
:102BC0007703460A6643360C16235B1BDE40DF4064
:102BD000BF1964466643821B704604350633010004
:102BE000D940A840C01900D30131A24206D2002327
:102BF000F0BD0000000000D0FFFFFFFF121B0130FE
:102C0000F3D3F1E709277F1BFE406446A2B272436B
:102C1000801A00D20139220C7243130C1204821A5A
:102C200099410B007046043513370100F940A84064
:102C3000801900D30131002B02D1A2420AD2F0BD8B
:102C4000013000D30131121BFAD2013BF8D1A2426C
:102C500000D2F0BD013000D30131121BF7E7F0B50F
:102C60001C0C00D080E00CB400251C0A04D11B020F
:102C7000160E3343120208351C0B04D11B01160F2C
:102C80003343120104359C0B04D19B00960F334350
:102C900092000235DC0B02D192185B4101351C0019
:102CA000971864410134464F7C66464C3C660E0CD6
:102CB000FFE7FFE7FFE7C0463C6F6643360C77034C
:102CC000BE4697B27743C01B00D20139C01B00D269
:102CD00001399FB27743C91BC91B170C77437E0488
:102CE000FF0B801BB941CE086643360C0C2D33DB3D
:102CF000B644120B1F053A431B0B97B27743C01B18
:102D000000D201399FB27743C91B170C77433E04A9
:102D10003F0C801BB941860D8F023E436643292735
:102D20007F1BFE400C3D7746AF40BF1930BCA2B2BE
:102D3000ABB272437343801A9941220C7243130C55
:102D40001204801A994102000B000137001BA941AF
:102D5000F9D2781E0021F0BD0C277F1BFE4077467C
:102D60007F0BAF40FF19E0E700245D1C07D0144F34
:102D70007D663966FFE7FFE7FFE7FFE73C6F95B247
:102D80009EB265436643401BB141150C1E0C654362
:102D9000664336042F0C3E432D04401BB14199423B
:102DA00004D202000B0020000021F0BD01D19042AE
:102DB000F7D3801A994101349942F2D3F6E7000023
:102DC000000000D0FFFFFFFF132370B51D78012D19
:102DD00015D010DD1C48FFF795FD1C4C010080222A
:102DE000200000F0D3F8022D06D01948FFF782FD2D
:102DF000184B186070BD154C174BA364F5E7164BC4
:102E0000124C23606360A360E36023616361A3618C
:102E1000E36123626362A362E36223636363A36388
:102E2000E36323646364A364E36423656365A36568
:102E3000E36523666366A366E36623676367A36748
:102E4000E367A364D1E7C04653440000381900206B
:102E50004C330000C82500205D2E001007B56046E9
:102E600001880A0A0230DF2AFAD1C9B2820804D3E3
:102E7000028840880004104300E00068014A505076
:102E8000039007BD3819002051434343C9188C46AD
:102E9000110C83B24B4310B4040C614392B280B264
:102EA000504362431C041B0C001910BC594113040D
:102EB000120CC0185141614470470000132310B533
:102EC00012481C78FFF71EFD0100012C0AD003DD1B
:102ED00080220F4800F05AF80E48FFF70BFD0E4B0A
:102EE000186010BD0A4C5422200000F04FF80B4B24
:102EF0006365A365E36523666366A366E36623678C
:102F00006367A367E3672362E361E5E75346000075
:102F1000381A00204C330000C8250020212F001053
:102F200007B5604601880A0A0230DF2AFAD1C9B221
:102F3000820804D3028840880004104300E000683F
:102F4000014A5050039007BD381A002010B5040004
:102F500002F018FB002804D0034B04199C4200D84F
:102F600010BD0248FFF780FC00000420905F0010B5
:102F700001480421014B1847800F0020152900103B
:102F8000014B1B6818470000800F0020014B5B6855
:102F900018470000800F0020030010B50800110042
:102FA0001B68984710BDC046F0B546464F46D6460A
:102FB000C0B5437D80460E001700002B46D0002A86
:102FC0003FDD4B1E9946244B0125002400209A46E4
:102FD0000DE04B461B5D0D3B5A425341325DDBB267
:102FE0000A2A0BD02B00013401359F421ADD002C38
:102FF000EFD14346325D1B7D0A2AF3D1002BF1D17C
:10300000A04204DA4346211A1B6830189847434609
:1030100050461B6802219847013428002B000135D7
:103020009F42E4DC874204DD4346391A1B683018AE
:103030009847F619013E33780D3B5A4253414246B8
:103040001375E0BCBA46B146A846F0BD036811004E
:1030500030009847F5E7C04600600010F0B5DE4646
:1030600057464E464546E0B585B017001C000600A1
:103070000D00FEF7D1FD0023304A12184B41002B02
:1030800058DB2F4908008A4602F00EFF01906B1CA6
:1030900003D1300002F064FD0500002C25D1294B3E
:1030A0009846294B1C68002C15D0002F20D1274FA3
:1030B00002E02469002C0ED02368002BF9D03B6875
:1030C000002B01D0A342F4D120002A003100C047D8
:1030D0002469002CF0D1019B002B27D105B0F0BC56
:1030E000BB46B246A946A046F0BD194B9846D8E764
:1030F000164B994602ABDF1D0A239B4602E024696A
:10310000002CE8D02368002BF9D04B461B68002B1D
:1031100001D0A342F3D12A0031002000C0475B4612
:103120000122390020003B70C047E8E7504602F01A
:1031300083FED3E70122074B5242A2E740420F0031
:1031400010180020A92F0010802100208C210020C1
:10315000992F0010FFFFFF7FF0B5CE46474680B5A0
:1031600083B06B460600DD1D2870FEF755FD002379
:103170001A4A12184B41002B2BDB194908008846CC
:1031800002F092FE174B81461C68002C14D0164F9B
:1031900002E02469002C0FD02368002BF9D03B6893
:1031A000002B01D0A342F4D1200001222900FFF717
:1031B000FBFE2469002CEFD14B46002B05D13000DB
:1031C00003B0C0BCB946B046F0BD404602F034FE84
:1031D000F5E70122054B5242CFE7C04640420F00BF
:1031E00010180020802100208C210020FFFFFF7F8D
:1031F00070B5040002F0B4FC0023010005000122B8
:103200002000FFF72BFF084B1C68002C06D06368DA
:10321000002B05D098472469002CF8D1280070BDF8
:103220002469002CF3D1F9E7802100200A4A1368B1
:10323000002B05D10CE01A001B691032002B07D0BF
:103240009842F8D1002902D10369136001617047E7
:103250000029FCD01060FAE78021002010B500F0B2
:10326000D9F910BD7047C0460022014B1A70704753
:10327000072700204B790020FF2B0BD18B79002BE7
:1032800008D1CB79012B05D1082A03D98A78024BC2
:1032900009301A707047C046072700200120704788
:1032A00070B5012909D115495379107909781B02A4
:1032B00003430020994202D070BD0120FCE75378FF
:1032C000012B08D0022BF7D1002064220021FFF748
:1032D000D3F90120F0E79478D27805001202144364
:1032E000D20502D5620A93401D000548FFF702FB94
:1032F0007F210300214028009847C046072700206F
:10330000554200000123037000487047046000101C
:1033100048780B788A7800021843120410439622EA
:10332000CB7810B51B060343D200934200D010BDEA
:103330000348FFF7DFFA0021030008009847C04662
:1033400055420000024B1860024B19607047C0469E
:10335000E0200020E420002010B5024B1878FDF793
:1033600049FC10BD09270020114B70B51A68002ACE
:103370001AD0EFF3108172B610680028FCD0BFF3AA
:103380005F8F00220B48596002701B68BFF35F8F8C
:103390001A6081F3108800240025074B1878FDF788
:1033A00029FC2900200070BDFA240025A400F4E7C0
:1033B000A02500200A2700200927002070B504005E
:1033C00000200E0001F002FB002835D0002001F0A3
:1033D00015FB002830D0FEF71FFC0023184A1218F6
:1033E0004B41002B24DB174D280002F05DFD002827
:1033F00022D0002001F0EAFA00280BD101200021A0
:103400000324404200F0CCFC6442280002F014FD8A
:10341000200070BD002001F0F1FA0028EED021005C
:103420003200002001F0F6FA041EEED1033CECE776
:103430000122054B5242D6E703246442E8E7C04626
:1034400040420F00D4250020FFFFFF7FF8B5DE4685
:10345000574680B505000C00FEF7DEFB0023364A18
:1034600012184B41002B5ADB344908008A4602F0FF
:103470001BFD002803D1C0BCBB46B246F8BD0020EE
:1034800001F0A4FA00284ED00026002C43DD2C4B7E
:103490009B4614E0A919002001F05EFB0700012003
:1034A0000021404200F07CFC002001F019FBFEF7F7
:1034B000B3FB234BF61918605960B4422BDD002092
:1034C00001F064FBA71B0200B84200DD3A00002AAD
:1034D000E0D101200021404200F062FC002001F018
:1034E000FFFA002001F072FA002814D0002001F049
:1034F0004DFB0028E1D1FEF78FFB5B460F001A68F9
:103500005B68002184460F4812184B419F4202D845
:10351000D3D19445D1D9504602F08EFCABE70122BD
:10352000094B5242A0E700200021054B186059606A
:10353000504602F081FC9EE740420F00D425002057
:103540003019002020A10700FFFFFF7F10B5244C99
:1035500084B00021200002F08FFC00281CD1214BF8
:103560001A68002A16D0EFF3108172B6106800288E
:10357000FCD0BFF35F8F01241B48596002781B68A1
:10358000D2B20470BFF35F8F0020186081F31088FF
:10359000002A0AD004B010BD01200021404200F0F2
:1035A000FFFB200002F048FCF4E7FDF7CFFF04002A
:1035B000FEF732FBFA220023920012184B41002B37
:1035C00009DB0121029100210191084920000091AD
:1035D000FDF7C0FFDEE70122054B5242F1E7C0468E
:1035E000D4250020A02500200A27002069330010E0
:1035F000FFFFFF7F054B10B51868002804D0044B6F
:103600000022196801F044F810BDC046E0200020F7
:10361000E4200020D02310B51B0684B01C68FDF701
:1036200095FFFEF78FF8A04202D0002004B010BD35
:10363000264B1B7801F094FC2548FDF77FFD012007
:10364000FDF760FDFF23234C234920701840FDF750
:10365000F7FA20780121FDF7BBFA0520FDF7D2FA31
:10366000002822D1FDF772FF0400FEF7D5FAFA22F6
:103670000023920012184B41002B22DB0121029102
:1036800000210191154920000091FDF763FF0822F8
:10369000040000211248FFF773FC002CC5DB114821
:1036A0000121FFF7C3FD0120C0E700220E490520DC
:1036B000FDF7F0FAFDF770FA01000948FDF76AFD21
:1036C000EDE70122094B5242D8E7C04610620010D4
:1036D000D4250020092700204D3500106933001043
:1036E000A0250020900F002059330010FFFFFF7F1E
:1036F00000487047BC6000100048704768600010C8
:1037000070B5040017480378002B21D0002C06D197
:10371000C1241548154BA4004380048070BD052CBE
:103720001DD8134B1048A400E558811C002304E069
:1037300001330A800231132B0ED0EA5CDCB2002A7E
:10374000F6D1C0230134E4B264009B001C43E4E7DB
:10375000112100F017F8D9E7CA24A400DDE7002002
:10376000DCE7C046F02600205821002009040000B4
:10377000D060001010B5024800F0D8F810BDC04667
:10378000B825002030B54B1E012900D1A7E0664ABC
:1037900011780D112C0030349F2900D9A2E004705B
:1037A000012B00D1BEE00F21147821400C003034F1
:1037B000092900DD98E04470022B00D1B2E0547872
:1037C0002511290030319F2C00D990E08170032B06
:1037D00000D1A7E00F2121400C003034092900DD81
:1037E00087E0C470042B00D19CE094782511290057
:1037F00030319F2C00D97FE00171052B00D191E081
:103800000F2121400C003034092900DD76E044719D
:10381000062B00D186E0D4782511290030319F2C69
:1038200000D96EE08171072B00D17BE00F21214090
:103830000C003034092966DCC471082B00D171E01A
:1038400014792511290030319F2C5FD80172092B82
:1038500068D00F2121400C003034092958DC447213
:103860000A2B5FD054792511290030319F2C52D872
:1038700081720B2B56D00F2121400C0030340929C6
:103880004BDCC4720C2B4DD09479251129003031BA
:103890009F2C00D9073101730D2B43D00F212140FC
:1038A0000C003034092901DD37310C0044730E2B34
:1038B00038D0D1790C11220030329F2900D907323B
:1038C00082730F2B2ED00F220A4011003731092AA4
:1038D00001DC30321100C173102B23D010300023D3
:1038E000037030BD07345AE737310C0063E7073106
:1038F0006CE737310C0074E707317DE737310C0096
:1039000085E707318EE737310C0095E707319DE7F2
:1039100037310C00A3E70731AAE737310C00C47236
:103920000C2BB1D1C018DAE7B825002030B500253E
:1039300089B004000922002101A80095FFF720FBAF
:103940000922002105A80495FFF71AFB4B236A46BC
:103950006846137004A90D2202F066FA15210822A8
:1039600020006944FFF712FB09B030BD10B50121FA
:103970000520FDF72DF910BD10B5002200210248E9
:1039800000F05AF910BDC046B42100208022024B3D
:103990005202DA647047C04600201150F0B5C646A6
:1039A00000B5060000F022F90C231B4DFF22AB6787
:1039B00005201A49FDF76EF940239846184C40221D
:1039C00000212000FFF7DCFA434601272383212151
:1039D0000023144A6770A260136063545F316184EE
:1039E00041462187053963540F4A10496360E260FC
:1039F000A1620B606362E26202F06EFA80239B05B3
:103A00002F64EB6490230A4A3000EA50FFF7BEFFB0
:103A100080BCB846F0BDC04600001150F90400203B
:103A2000942100208400105000011050800010509C
:103A300010D001000B785B0602D14B78052B00D02B
:103A400070478A78014B1A60FAE7C04600001150AF
:103A5000F0B5C64600B54B790C791B028878234334
:103A6000CC787F21A4070140C509A20F4F001400A4
:103A7000324E7A195201B21890700120684050708D
:103A800000205B055B0DD0701383D4768046CA009E
:103A9000012D33D02A488446880162448446B444C8
:103AA0006046826040461060002933D0254AC90034
:103AB00090466246414451603F223F339343022C7B
:103AC00000D15B0020487A1901685201B218D16018
:103AD0001E4ACB1803605140534080228846520151
:103AE000934228D84346A4061C4380237F197F01B4
:103AF0001B06F6191C4373681C6011E014488446C9
:103B0000880162448446B444604682624046106044
:103B1000002909D100236D01761973600D4BF36004
:103B2000012080BCB846F0BD084AC90090466246F4
:103B300041445162C0E7FEF7AFFED3E79421002075
:103B400084001050040010509C25002000001050EC
:103B5000800010500001105010B502F0BDF910BDEA
:103B600010B57F200C0020404000E409110000192E
:103B70001A00034B4001C01800F05EF8012010BD90
:103B8000942100207F22130010B50B400A420BD075
:103B9000C909802258004018064940014018120106
:103BA000002102F0A1F910BD02220348C909521AEE
:103BB0008266EEE794210020002011507F22100041
:103BC00010B508400A4200D110BD0023C9094000C9
:103BD000401804494001081800220349C37002F04C
:103BE00083F9F1E794210020FFF7FFFF80220D4BBE
:103BF000520410B51A600C4B0C491A6010008B6807
:103C00009843FBD10A4C9C2200212000FFF7B8F911
:103C10008022002152010748FFF7B2F909236367A8
:103C200010BDC04600E0004000F0004000C0004071
:103C3000000011500000105070B5837E04000D008C
:103C40001600002B17D10023E38201332000A68247
:103C5000A376256102F000F9002804D0802190238A
:103C6000084A8902D150200002F016F9002805D038
:103C70000123237770BD02F027F9E4E7200002F06A
:103C80001BF9F7E700201150024B5878431E98416A
:103C9000C0B27047B41E0020024B18784007C00F16
:103CA0007047C046B41E0020034B1878FF38431EEF
:103CB0009841C0B27047C046CC0F0020F8B5CE4640
:103CC000474680B52C4E050033780120FF2B03D0EA
:103CD000C0BCB946B046F8BD532200212748FFF7C3
:103CE0004FF9274C2000FDF729FA264B1C60264C83
:103CF00020001430FDF73EFA200001F0FFFB234BBB
:103D0000234F1C60234B9846002B04D03800FFF74C
:103D1000F9FA214B1860424600243B78002A23D050
:103D20001E4A90461C4A9146A34212D80FD14346E0
:103D3000984701343B78E4B2A342F5D228003570AD
:103D4000FFF72CFE2800FFF711FE0120C0E700203E
:103D5000BEE74A461268630094461B19DB006344C1
:103D6000002BF4D01B68E3E700F01CFF3B78002039
:103D7000002BADD1E2E7C046CC0F0020B41E0020DE
:103D80006C1E0020081F0020B00F00200C1F002018
:103D900001270020053300108C1B0020A54B0010CC
:103DA000F0B5DE4657464E464546E0B58BB001F0CD
:103DB000DDF8002800D10FE1CD4BCE4D9946CE4B1A
:103DC00007AC9B462E687269EFF3108172B61368D8
:103DD000002BFCD0BFF35F8FB1613000210001F0F8
:103DE000CFF97269B369BFF35F8F0021116083F36C
:103DF0001088002800D1EFE06378082BE2D84A460B
:103E00009B00D3589F466368002BDBD0A06898477F
:103E1000D8E77F222179B84E0A405000CB093618E6
:103E2000F618300001273030C378BB43C370C37825
:103E30000337BB43C370002A00D1F2E0AF4AF37CE2
:103E4000002A06D0AE4A1278934200D244E19B1A6F
:103E5000DBB2002B00D0BFE0AA4E62792078A368C5
:103E6000B047AFE75B4601221B78012113435A4656
:103E7000137033235846D25C5E468A43C254C25CF8
:103E800004208243F2540133F25C8A43F254F25C20
:103E90008243F254237800209A4600F005FD602208
:103EA00023791A40602A0DD0402A00D1BFE0DB06FA
:103EB000DB0E012B00D137E1022B00D1D4E0002B27
:103EC00000D1C3E020780021FFF75CFE802120783C
:103ED000FFF758FE76E7884E3378DB0700D471E7AA
:103EE000894B002B00D16DE700E000BF6AE7824EEE
:103EF0003378DB0700D465E7844B002B00D161E702
:103F000030780007C00F00E000BF5BE77C4B7B4AC6
:103F10009846002627781B78002A00D179E07C4A51
:103F200092469E425FD319D17A4B38009847434658
:103F300001361B78F6B2B342F3D26F4E5322002102
:103F40003000FFF71DF81022FF21F01CFFF718F8D2
:103F500030002022FF211330FFF712F800F09AFC06
:103F60006D4B002B00D12DE700E000BF2AE7644B2A
:103F7000624A9846002627781B78002A1FD0644A98
:103F800092469E423AD321D1624B3800984743462D
:103F900001361B78F6B2B342F3D2574E53220021BA
:103FA0003000FEF7EDFF1022FF21F01CFEF7E8FFC6
:103FB00030002022FF211330FEF7E2FF07E0380037
:103FC00000F02EFE43461B78002BE6D04A4E00F050
:103FD00061FC2379B370F5E60BB0F0BCBB46B2468A
:103FE000A946A046F0BD52461268730094469B193C
:103FF000DB006344002BB1D05B6896E75246126841
:10400000730094469B19DB006344002BDED05B6891
:10401000BBE7380000F004FE43461B78002B9DD11F
:104020008BE762792078A36800F052FCCAE63B482F
:10403000002800D146E700F037FC0121504608AACD
:1040400000E000BF002800D0BCE63BE7202A00D1FA
:104050009FE0002A00D035E76379092B00D931E7CA
:104060002F4A9B00D3589F467023217A0B4200D0E1
:1040700028E758460F330B405B00CE09C0181F4F8E
:104080008019C07C002F06D01D4F3F78B84200D267
:10409000A1E0C01BC0B2002800D097E0002A00D0E9
:1040A00048E1204F0220627990468243012A00D1E4
:1040B00043E14246002A00D004E75B449E193036B3
:1040C000F37806AA9B07DB0F0232138050460223C7
:1040D00008A900F081FB75E65A00D3180C4ADB00F2
:1040E0001268D318002B00D176E71E69B5E6C046EA
:1040F000506100100C1F0020B41E0020053300107A
:1041000001270020194E00100000000000000000F0
:104110008C1B0020214C001000000000000000005B
:1041200074610010DC610010237A0F2B00D9C9E6FE
:10413000AA4A5B44DB78002A05D0A94A1278934248
:104140005ED39B1ADBB2002B00D0BBE6A548A64E7F
:1041500000F0AAFB01215046F36808AA98470028FE
:1041600000D02FE66022160023791E401A4200D0AC
:10417000A8E663790A3B012B00D9A3E600F094FB83
:1041800063790A2B00D120E1504608A900F00CFB0E
:1041900018E6237A0F2B00D994E6904A5B44DB782B
:1041A000002A06D08E4A1278934200D2E6E09B1A8B
:1041B000DBB2002B00D085E68A488B4E00F074FB02
:1041C00001215046F36808AA98473BE70027002AD8
:1041D00000D167E776E647003818844FC0003F6893
:1041E0003F18002A00D15DE7002F00D16AE6F86889
:1041F00000F05AFB01215046FB6808AA984721E7C6
:104200007A4A5E00F3181668DB00F618002E00D11B
:1042100058E6F0689CE7A279019273789A4207D039
:104220007378002B00D045E1019B002B00D0E9E022
:104230005B46019A504608A95A7000F0B5FAC1E5EC
:10424000737806AA023213705046012308A900F0C1
:10425000C3FAB7E5E088030AC0B20F2B00D931E6F4
:1042600063499A008A58974608A800F023FB5046F5
:10427000A179FFF781FB0222337813433370A1E564
:10428000E388012B00D01DE60822337893435A4679
:10429000137079E70220317806AB9A1C8B068908E7
:1042A000DB0F01400B4310E7E388012B00D009E648
:1042B000082233781343EAE74E4B002B00D101E686
:1042C00000E000BF021E00D1FCE5D37891781B020C
:1042D0000B43504608A900F07FFAB3E6464B002B8B
:1042E00000D1EFE500E000BF021E00D1EAE5504634
:1042F000137808A900F070FAA4E62189FFF700FA04
:10430000021EF4D1DEE5022B00D111E13B4B002B64
:1043100000D1D7E500E000BF0200002A00D1D1E5BE
:10432000D3E7FFF7E5F91223020008A9504600F091
:1043300053FA87E62B482C4F5AE7E288002A08D127
:1043400042465B449E193036F378012A21D09B0700
:104350002ED5002F00D135E5F86800F0A5FAFB68EE
:1043600008AA012150469847002000F09DFA342306
:104370005A46D35CDB0700D524E505E71B4A5E00FF
:10438000F3181668DB00F618002E00D19AE5F068E5
:1043900014E79B07DDD51A4B1878FFF70FFC0222B4
:1043A000F37893434246F370F3789343F370D0E786
:1043B000134B1878FFF7E6FB0222F3781343012230
:1043C000F370F3781343F370C3E706AB9A1C5046BF
:1043D000012308A9167000F0FFF9F3E4053300107B
:1043E00001270020354D0010DC6100108C1B0020DF
:1043F0009C610010000000000000000000000000B0
:10440000CC0F0020581EC0B2FFF776F9002800D16B
:1044100058E543780593022B00D053E50121C2797A
:104420000700931152110B400A4012015B01134324
:104430005A4612782F318A4313435A461370C37871
:1044400082781B021343C31809370393039BBB42B3
:1044500000D8ACE001227B7800920B2B03D1FB78D3
:1044600000933B78FF187B78042B00D02AE50026C8
:10447000039B584ADB1B9BB20293574B04931B7858
:10448000B24263D0B846B34256D800D01AE5534B77
:10449000534F41465046029A9847082803D9029A3A
:1044A000824200D38AE0049B01361B78F6B2B34205
:1044B000E9D207E55046FFF74FFBB378454A009332
:1044C000454B002698461B78002A0DD0454FB34235
:1044D00025D820D1444B50469847434601361B7897
:1044E000F6B2B342F3D206E0504600F099FB4346E1
:1044F0001B78002B0FD1532200215846FEF740FDB8
:104500005B461022FF21D81CFEF73AFD2022FF2136
:104510003648FEF735FD5B46009A9A7084E618230C
:104520003A68734394466344002BF4D05B68D2E747
:10453000FFF7E2F80200F0E62A4B1F6818237343E6
:10454000FF18002F00D1BDE4BB68A2E7029B390031
:104550001A005046984600F079FB082800D8B1E4CC
:104560004246824200D2ADE41D4B9846009B012B8F
:1045700028D000220AE0BB78D318DBB25B44D9789C
:10458000FF2900D09EE40132DE70D2B2009B9A4235
:10459000F1D18046330002003900144800F06AFD72
:1045A000049B47441B78B34200D34FE78AE4104B87
:1045B000002B00D13CE600E000BF39E63B00474657
:1045C0009846D3E74246054B92689A42D1D1059B63
:1045D0000093CEE705330010012700204D4C00105A
:1045E000DC6100108C1B0020214C0010C71E002035
:1045F00000000000F8B557464E46DE4645460C0022
:10460000E0B516001F00002A3CD0702398461E4BD0
:1046100000259B461D4B9A461AE05B461B782000FE
:1046200099465346997800F0E9FC00281CD02100F7
:104630004846FFF70DFA002816D0A378DA09012AB8
:1046400019D00A9A013513702378E418B54219DAA3
:104650006378052B08D1E3789B079B0FBB4203D1FE
:104660004246A3781A42D8D00020F0BCBB46B246DE
:10467000A946A046F8BD0B9A013513702378E418BB
:10468000B542E5DB0120F0E7CC0F0020B41E00208E
:10469000802310B51B0184B001930E4B02901C685F
:1046A00003916269EFF3108372B611680029FCD0A0
:1046B000BFF35F8FA361200001A900F027FE6269AC
:1046C000A369BFF35F8F0021116083F3108804B0EA
:1046D00010BDC0460C1F0020702270B58B780C00F6
:1046E0001A4201D0002070BD064B20001D78064BF9
:1046F000997800F083FC0028F4D021002800FFF70F
:10470000A7F9F0E7CC0F0020B41E0020074B0800EB
:1047100019687F2310B50340C0095B0033301818B7
:10472000034B181800F026FC10BDC046081F0020DF
:10473000B41E0020074B080019687F2310B5034002
:10474000C0095B0033301818034B181800F03AFC0E
:1047500010BDC046081F0020B41E00207F2070B589
:1047600008400F4C4000CD09241864193034E57816
:104770000020ED0700D570BD0126E57809483543D6
:104780000078E570FFF7ECF90028F4D10122E37816
:104790009343E370E37803329343E370EBE7C0465F
:1047A000B41E0020CC0F002070B50A4E050030006A
:1047B00008220C00FEF7EAFB00237F21F360227839
:1047C000B36091425B412800D90100220023FFF72A
:1047D000C5FF70BD581E0020F8B5CE46474691462D
:1047E0002A4E80B50822070030000D009846FEF7DB
:1047F000CDFB4B46B3600023F381EC79A979240209
:104800000C43231C444500D943469AB29046B381D9
:10481000002C13D0002A1FD04B46002B34D0131C81
:10482000402A1FD89BB2984633787F2B20D800218E
:10483000174A43463800FFF791FF09E07F222B78A3
:1048400038009A42644100230022E101FFF786FF0D
:10485000C0BCB946B046F8BD33787F2B11D9802152
:104860000022E6E740239BB2984633787F2BDED9BF
:10487000074C424649462000FEF788FB8021220073
:10488000D7E700210022D4E70020E1E7581E0020EE
:10489000741E002010B5142200210248FEF770FBA0
:1048A00010BDC046581E0020014B18617047C0461D
:1048B000581E002010B5054C010008222000FEF70C
:1048C00065FB0023A360E36010BDC046581E0020B6
:1048D000F8B53B4C1D0023780600DA09C9098A4265
:1048E00013D00020002D00D0F8BD364B002B03D094
:1048F00021003000FFF79EF82369002B44D02200EE
:104900000321300098470120EEE77F2B06D8A068EE
:10491000002837D02A002C49FEF738FBA368E2892B
:1049200059195219E38892B2E281A160934214D0DE
:104930003F2D12D9A589A81A071C80B240282FD86C
:104940002378BFB27F2B2DD80021AA4235D01E4A32
:104950003B003000FFF702FFC6E72369002B05D0BC
:10496000220002213000984700280FD07F2200212A
:10497000237830009A42494100230022C901FFF701
:10498000EDFEB1E70020AFE70120ADE700213000E8
:10499000FFF7F8F830008021FFF7F4F80120A3E7D3
:1049A0004027CDE7AA4207D0074C3A002000FEF787
:1049B000EDFA80212200CBE780210022C8E7C04623
:1049C000581E0020353A0010741E002010B5040057
:1049D000FFF75AF9002801D1002010BDFFF75CF95C
:1049E0000028F9D1B220800044430348001903791C
:1049F00001201840F1E7C046901B0020B2239B0025
:104A0000584310B5024B1030C01800F085FB10BDA4
:104A1000901B0020F0B5B225AD0045432C00C646E2
:104A2000174F1034E41900B5200092B200F0F8FBE3
:104A30000600200000F08EFB3F2803D8300080BC29
:104A4000B846F0BD7B190020D9789846FFF75EFE86
:104A50000028F3D0200000F07DFB3F280AD99223E4
:104A60009B00EA184346D219D97800204023FFF76B
:104A700075FEE3E743460020D978FFF75BFEDDE7EC
:104A8000901B0020F8B5B225AD0045432C00134E15
:104A90001034A419200000F031FD200000F05AFB72
:104AA0003F2800D8F8BD77190020F978FFF72EFECF
:104AB0000028F7D0200000F04DFB3F2809D99223B1
:104AC0009B00EA18F978402392190020FFF746FE70
:104AD000E8E7F9780020FFF72DFEE3E7901B0020C0
:104AE000F8B50400FFF7D0F8002801D10020F8BD88
:104AF000FFF7D2F80028F9D1B22080004443250006
:104B0000144E2435AD19280000F006FB0028EDD026
:104B100037190020B978FFF7F9FD0028E6D0A22365
:104B20009B009C466444A41921002800402200F008
:104B300077FBB978051E08D0030022000020FFF79C
:104B40000DFE0028D2D02800D1E70020FFF7F2FDAB
:104B5000CCE7C046901B002070B5B224A4004443AB
:104B6000094B2434E418050092B2200000F012FC36
:104B70000600200000F0D0FA3F2801D8300070BDB8
:104B80002800FFF7ADFFF9E7901B0020B2239B0040
:104B9000584310B5024B2430C01800F0DBFA10BDAA
:104BA000901B0020B222F0B51B4C83B000212000E6
:104BB0009200FEF7E5F9FF236371184B802600256C
:104BC000E3800127082321002000760023733200B0
:104BD000278138310095073B103000F065FA21003D
:104BE000200039313200FF3101230097243000F0DA
:104BF0005BFA8E239B00E6183000FCF79FFA9023A7
:104C00009B002662E6183000E561FCF797FA266300
:104C1000656303B0F0BDC046901B002000C2FFFFDB
:104C200010B5094C052200212000FEF7A9F920004B
:104C30002434103000F062FC200000F05FFC012101
:104C4000200000F07BFC10BD901B0020F0B54B79DC
:104C5000060083B0022B02D18B79022B03D00025F2
:104C6000280003B0F0BD304FBB78002BF7D18B7814
:104C700009253B700C780C196378242B0BD1082A7A
:104C800002D80FE0AA420DD32378E418ED18637818
:104C9000ADB2242BF6D0052B21D0042B02D16379A1
:104CA0000A2B2FD0214C200000F054FA3F28D7D9EE
:104CB0002600103E0020F178FFF728FD0028CFD015
:104CC000200000F047FA3F2817D98E239B00E218F6
:104CD000F93BF178FF3B0020FFF740FDC0E72100E2
:104CE0003000FFF7F9FC0028B9D0A3787B70237857
:104CF000ED18E4186378ADB2CFE7F1780020FFF744
:104D000019FDADE70A4B2778019301330093022286
:104D100002233000E119FFF76DFC00289FD00E350B
:104D2000ED19ADB2BEE7C046901B0020A01B0020CD
:104D3000921B0020F8B56023140012780500134080
:104D40000020202B12D12F4A6379277916781B0275
:104D50003B439E420AD16378222B27D007D8202BD1
:104D600017D0212B02D101293DD00120F8BD232BE2
:104D7000FCD101293FD00329F7D1234B002BF4D0DC
:104D8000E178A37809020020194300E000BF012068
:104D9000ECE7012927D00329E7D11C4B002BE4D0F5
:104DA0000020911DFEF7B4FA0120DFE7012922D08F
:104DB0000329DAD101252E00A378E47802392402F0
:104DC0001C431471264024321000714000F0B6FBE1
:104DD0000F4B002BC9D06208002031002A4000E0B0
:104DE00000BF0120C2E7072321002800094AFFF77E
:104DF000F3FC0120BAE721002800FFF7D5FC0120D1
:104E0000B4E7C046901B00200000000011330010E2
:104E100000000000961B0020F8B557464E46454658
:104E2000DE46E0B5494F8046FA780C001E008A4203
:104E300064D19AB292239B00FD1810239B46BB4479
:104E40002900584600F0A6FA414BD946002B18D04D
:104E50007B79D946FF2B14D0002E12D0AA19924686
:104E600003E0013555450CD07B792A789A42F8D178
:104E7000484600F067F90028F3D1797900E000BFD7
:104E8000EFE7344B002B04D0484600F05BF90028D4
:104E900052D0484600F05EF93F2834D84A46103ACE
:104EA0009378A34207D001242000F0BCBB46B24651
:104EB000A946A046F8BD284B002B02D0002000E0F8
:104EC00000BF0020FFF70CFE0028ECD1234D280086
:104ED00000F022F90028E6D1002EE4D0B306E2D19A
:104EE000243D4046A978FFF711FC041EDBD00023C7
:104EF00000224046A978FFF731FCD5E7BB788B420A
:104F0000D9D00024D0E74D46103D0020E978FFF7C6
:104F1000FDFB002801D1AB78C3E7484600F01AF941
:104F20003F280CD98E22920040230020E9784A4481
:104F3000FFF714FCAB78B4E7FEF75CFBA9E70020B1
:104F4000E978FFF7F7FBAB78ABE7C046901B002092
:104F500000000000F535001000000000B41B002028
:104F600010B50020FEF7AAFE10BDC04610B5FEF732
:104F70009BFE10BD037870B5DB0704000E00DD0F4B
:104F8000002B17D103785B0701D5280070BD0121E4
:104F90003000494200F078FF2378DB07DD0F002B5B
:104FA0000AD123785B0708D4042223780125134310
:104FB000237002E00025E8E70025300000F03CFF08
:104FC000E3E7C04670B50D00012104004942280006
:104FD00000F05AFF23785B07DE0F002B04DB28006C
:104FE00000F02AFF300070BD2378DB0704D40422D0
:104FF000237893432370F2E70026F0E710B5437956
:1050000004791B0223435B055A0DC3789B079B0F52
:10501000022B05D0032B15D00020012B08D010BD8A
:1050200002291CD00020402393424041C0B2F6E741
:1050300002394B4259410D4B9C46614491424041DB
:10504000C0B2ECE702394B425941F02300204942FB
:105050009B001940403191424041C0B2DFE7044B10
:10506000D3185A425341D8B2D9E7C046FF030000D3
:1050700000FEFFFF8A1870B5914207D27F264C7858
:10508000052C04D00C7809198A42F8D870BD340078
:105090008D782C4064000419ED0963550C780919CA
:1050A0008A42ECD8F2E7C046F0B5C64600B5040027
:1050B00006A805788020884617001E00000282425C
:1050C00027D8E068002803D00121494200F0DCFE27
:1050D0002069002803D00121494200F0D5FE434653
:1050E000236073045B0CED031D430023E0686381C0
:1050F000A780E5802381002801D000F09DFE206973
:105100000124002801D000F097FE200080BCB846A2
:10511000F0BD0024F9E7C04610B5048941898288B2
:10512000A3B288B28C4207D31B1A9BB2101C9A42BE
:1051300000D9181C80B210BD5100091A5B189BB22F
:10514000F4E7C046030000895B89C01A4342584116
:10515000C0B2704710B5048941898288A3B288B271
:105160008C4207D31B1A9BB200209A4201D9D31A52
:1051700098B210BD5100091A5B189BB2F4E7C04603
:1051800070B5040000690E00002803D001214942D7
:1051900000F07AFE25896089A288A9B283B285428F
:1051A0002CD3CD1AADB2002D2ED0AA4208D29142F6
:1051B00031D38B1A9BB263819A4203D89B1A9BB25C
:1051C0009A42FBD9E28821685204520C53433000C2
:1051D000C918FDF7DBFE618901254B1C9BB2A28833
:1051E000994214D9002352009B1A9BB22069638113
:1051F000002801D000F020FE280070BD5500ED1AF7
:105200004D19ADB2002DD0D1002563899BB252005B
:105210009342EBDBE8E789188BB26381CCE7C046A9
:10522000F0B546464F46D646C0B5060000698946E9
:105230009046002803D00121494200F025FE318923
:105240007289B5888BB294B2914257D31F1BBFB2FB
:10525000002F4DD0BD4205D2AB4254D25B199CB257
:105260002F0074814346B84540D89FB2A54203D869
:10527000641BA4B2A542FBD9F288281B5204530C2C
:1052800019009846336861439C4680B26144874266
:1052900026D94346584383B21A0048469A46FDF73A
:1052A00075FE434648467D1B64195C433168504493
:1052B000A2B2FDF76BFE7189B588CB199BB26A006B
:1052C000994217D99B1A9BB230697381002801D08B
:1052D00000F0B2FD3800E0BCBA46B146A846F0BDC9
:1052E000424648467A43FDF751FEE4E73B1CBCE7E3
:1052F00073899BB26A009342E6DBE3E76F003F1BD2
:10530000DF19BFB2A4E75B1B9CB2A9E7F8B50400A4
:10531000C0680E00002803D00121494200F0B4FD0E
:10532000258920896189A288ADB283B28FB2884273
:1053300028D3DB1B9BB29A4209D8E779FF0906D133
:10534000E068002801D000F077FD3800F8BD2B00A0
:10535000954203D39B1A9BB29342FBD2E288216809
:105360005204520C5343C8183100FDF70FFEA288B7
:105370006B1C9BB252009D4209D99B1A9BB201271C
:105380002381DDE75100C91B5B189BB2D3E7934231
:10539000F5DBF2E7F0B54E464546DE465746E0B54A
:1053A00089460500140083B0002A6ED0C06800282A
:1053B00003D00121494200F067FD2F89EA796B890A
:1053C000BFB29BB2D20942D1AE889F4267D272006F
:1053D000D31AFB189BB2002290469E4231D9F31A91
:1053E0001A1C9BB2A34200D9221C93B29846E888AB
:1053F0004346FB189BB29B463C00B74203D3A41B19
:10540000A4B2B442FBD24004430C18009A462B6865
:1054100060439C46311B89B2604441454ED352469D
:10542000434649465A43FDF7B1FDAB885B00BB4597
:1054300001D39B4503DB5A46D31A9BB29B465B467E
:105440002B81E868002822D000F0F6FC1FE0AA8833
:105450009046944226D29F4244D34146FA1A92B2D1
:10546000490012198A4209DB42469A1892B2171B68
:10547000BFB29346BB423AD97F1ABFB2E3199BB27F
:1054800046469B46A046E888B6E700239846404635
:1054900003B0F0BCBB46B246A946A046F0BDFB1A1D
:1054A0009BB298E7E888A21A4404640C544342462D
:1054B000A144002AC5D046461F0099E753465943E8
:1054C00089B20A0001914946FDF760FD43469A1BE7
:1054D0005346A2185A430199286892B24944FDF7ED
:1054E00055FDA2E75100CA1ABA1892B2B9E7B942FB
:1054F000C2DD4646E888A0467EE7C04610B50400F7
:10550000C068002803D00121494200F0BDFC206999
:10551000002803D00121494200F0B6FC0023E068D6
:1055200063812381002801D000F086FC20690028D7
:1055300001D000F081FC012010BDC04670B5040010
:10554000C0680D00002803D00121494200F09CFCF6
:105550002069002803D00121494200F095FC7F21F9
:10556000E379ED011940E0682943E171002801D099
:1055700000F062FC2069002801D000F05DFC0120F1
:1055800070BDC04610B5034B0100186800F004F868
:1055900010BDC046D00F0020F0B54E464546DE4651
:1055A0005746E0B50D000B35060083B0162D22D806
:1055B000102900D9B2E000F0B1FA1025182302201A
:1055C000CC4FFB181A005C68083A944200D1B5E051
:1055D000032362689A431300E268A168CA6091607D
:1055E0000122E318596830000A435A6000F09EFA1D
:1055F0002000083095E007239D4300D58EE0A942A6
:1056000000D98BE000F08AFAFC235B009D4200D2B7
:10561000A7E1680A00D18BE0042800D97AE1382399
:105620009846A80980443930C100B24F79184C68B7
:105630000839A1420ED003239C4604E0002ACBDAAD
:10564000E468A14206D06246636893435A1B0F2A5E
:10565000F4DD40463A003C690832944200D178E0DB
:1056600003236168994389460B00491B0F2900DD1C
:105670007BE17A613A610029B2DA80229200914599
:1056800000D30FE15909DA0801238B40D200796871
:10569000D2190B4391687B60E260A1609460CC609A
:1056A000012182109140994259D80B4205D1032221
:1056B0009043490004300B42FBD003239846C300BB
:1056C0009946B944CC4682466346DC68A44507D176
:1056D0002CE1002A00DB35E1E468A44500D125E196
:1056E0004246636893435A1B0F2AF2DD012080462D
:1056F000611905436560A068E5680837C560A86062
:1057000040461043F960B9604860CF6030008F6058
:10571000E25000F00BFA2000083002E00C230020D9
:10572000336003B0F0BCBB46B246A946A046F0BD0C
:1057300080213F2340209846890076E7DC680230CC
:10574000A34200D044E73A003C690832944200D0BA
:1057500086E701217B68821091409942A5D90323F5
:10576000BC6862689A439146954203D8531B0F2B3D
:1057700000DD89E023004B445F4A01935F4B934671
:105780001B681268EB18013200D13DE15C4A944677
:1057900063441B0B1B0300933000009900F0CEF90B
:1057A00003008046013300D1FAE0019B834200D917
:1057B000F4E0544B00981A009A461268030094468D
:1057C000514663440B6001991A00414500D151E1F3
:1057D0005B461B68013300D156E1434601995B1AD1
:1057E0009A1853461A600723424641461A400192CE
:1057F000194200D112E108239846881A424B0099B9
:10580000804441449B1A5B1A1B051B0D009130001C
:1058100019009B4600F092F9431C00D150E1434629
:10582000C01A03005B440093534652461B68012193
:105830005B44136042464046BA60009A0A434260A5
:10584000BC4200D124E14A460F2A00D822E10720B9
:105850000C3A824360680140052011436160A11841
:10586000486088600F2A00D935E1424644465268B4
:1058700026490868984200D20B602549086898427A
:1058800000D38FE00B608DE0012229001343114308
:10589000651961603000BD606B6000F047F9200061
:1058A00008303EE75A0A042A72D9142A00D9C5E002
:1058B00011005C325B31D20008235B429C46BA186F
:1058C000944463469A6803239846944500D19EE029
:1058D000434651689943494502D992689445F7D1A6
:1058E000D3689C467B686146A260E1608C60D460AE
:1058F000D6E6C0460014002008180020881B0020AF
:105900000F100000581B002008100000801B002012
:10591000841B0020142852D9542800D996E06E2305
:105920009846280B80446F30C1007EE608239B46D2
:10593000073BDC449B46DA4443465246134200D0C0
:10594000C2E64CE00122E318596830000A435A606D
:10595000E368A268D3609A6000F0E8F8200008309D
:10596000DFE62B00E80808332AE6012360191D430F
:10597000656078613861C26082601A004B460A43F4
:1059800042603000E15000F0D1F820000830C8E655
:105990009A09110039323831D2008DE7BC4260D00B
:1059A000BC68626803239A43531B954202D80F2BAD
:1059B00000DD69E7300000F0B9F80020B1E65B23B4
:1059C000984680445C30C1002FE608235B429C4629
:1059D000E1444B469B6801384B4500D098E0434674
:1059E0000342F2D17B688B437B604900994200D926
:1059F000B5E6002904D1B2E6042294464900E24407
:105A00000B42F9D050465AE610330093C4E6891091
:105A1000023B8B4079680B437B6064E7009B30005E
:105A200043445B421B051B0D19009B4600F086F8A2
:105A3000431C00D0F3E600239B46F5E6542A2BD8FE
:105A40001A0B11006F326E31D20035E7AA235B00CA
:105A500098422BD8DD3B9846E80B80447830C10053
:105A6000E3E52C4B009A9A461B689C4653466244D9
:105A70001A60ADE6090500D0AAE60200BC684A44F7
:105A800001310A436260F3E65B4642461A60AAE6C9
:105A90004446EDE641608DE7AA2149008A4224D8B8
:105AA000DA0B110078327731D20005E71A4B9842B1
:105AB00024D87C239846A80C80447D30C100B4E5EE
:105AC000009A019B94464246083B63449B1A00930C
:105AD00000239B46A8E621003000083100F0BCF806
