:020000041000EA
:1000000000B5324B212058609868022188439860DF
:10001000D860186158612E4B002199600221596106
:100020000121F02299502B49196001219960352056
:1000300000F044F80222904214D00621196600F024
:1000400034F8196E01211966002018661A6600F04E
:100050002CF8196E196E196E052000F02FF8012189
:100060000842F9D1002199601B49196000215960AB
:100070001A491B48016001219960EB211966A021F2
:10008000196600F012F800219960164914480160C1
:100090000121996001BC002800D000471248134993
:1000A000086003C880F30888084703B5996A0420EC
:1000B0000142FBD001200142F8D103BD02B5186610
:1000C0001866FFF7F2FF186E186E02BD00000240BE
:1000D000000000180000070000035F00212200005C
:1000E000F4000018222000A00001001008ED00E03C
:1000F00000000000000000000000000074B24E7A12
:1001000000200420F7010010C3010010C5010010F9
:10011000C1010010C1010010C1010010C101001097
:10012000C1010010C1010010C1010010C701001081
:10013000C1010010C1010010C9010010CB01001065
:10014000CD010010CD010010CD010010CD01001037
:10015000CD010010CD010010CD010010CD01001027
:10016000CD010010CD010010CD010010CD01001017
:10017000CD010010CD010010CD010010CD01001007
:10018000CD010010CD010010CD010010CD010010F7
:10019000CD010010CD010010CD010010CD010010E7
:1001A000CD010010CD010010CD010010CD010010D7
:1001B000CD010010CD010010CD010010CD010010C7
:1001C00000BE00BE00BE00BE00BE00BEEFF3058054
:1001D000103800BEF2EB8871A8590010C859001001
:1001E0003402001090A31AE700201F49086006C8D7
:1001F00081F3088810471D48006800282FD10DA4FE
:100200000ECC002902D000F012F8F9E71849194A7B
:10021000002000E001C19142FCD1174988471749ED
:1002200088471749884700BEFDE701C901C29A42C5
:10023000FBD37047C8590010C0000020380F0020C1
:1002400040680010000004200000042040680010F6
:10025000001004200010042000000000704709482E
:1002600002F08EF90047000008ED00E0000000D029
:10027000380F0020D01D0020F9230010E1030010EA
:10028000ED2400105756000006005250ABB36053E7
:100290006C57001006005250861C03027C57001059
:1002A000060052505422A29D84570010050052505F
:1002B000DE65F46840680010F8B5C04610B5064C1D
:1002C0002378002B07D1054B002B02D0044800E017
:1002D00000BF0123237010BD401200200000000069
:1002E000D0560010044B10B5002B03D0034904482E
:1002F00000E000BF10BDC046000000004412002016
:10030000D0560010154AF0B59369DB0616D4144B8D
:10031000144F00269E5F3B6810215C1C0D2320209B
:100320009C4693691942FCD113689569284206D00E
:100330009369250001341942F3D03D60F0BD0133CB
:10034000DDB2AE4204D093691842FCD11560EFE7EC
:1003500093691842FCD163461360F4E70040034000
:10036000AC1D0020B817002070B5E125184C6D02B7
:100370002900200001F08AFC0221002000F0E6F9AB
:100380000221012000F0E2F9C022236B1202134087
:10039000104A2000136008210023012201F096FD7D
:1003A0002000002101F0D0FD5023A363626B183BB5
:1003B0001340094A29001360200001F02BFD14208E
:1003C000064900F0EBFA0121142000F0AFFA70BDED
:1003D00000400340305003403450034005030010F8
:1003E000F0B5CE46474680B583B002F0FBFD04F081
:1003F0007BFCFFF7B9FF00F0F5F8192000F0D6F903
:10040000D02380221B0692045A6207E001200021BB
:10041000404203F089FB0A2001F05EF803F0F8FA8D
:100420000028F3D03D4B002799463D4C3D4E3E4DB4
:10043000FA239B00984601200021404203F074FB00
:10044000022004F087F9002842D101F033F9002995
:1004500039D0FA220023920002F002F92368C01A70
:10046000404508D3FA229200944601226344236057
:100470003378534033702B78002B42D1012001F0A8
:100480002BF801F017F9002913D0FA22002392006B
:1004900002F0E6F8FA23C21B5B009A42CBD3D023CA
:1004A0001B065A68920134D48022920407005A61D4
:1004B000BEE7FA21890002F095F8FA23C21B5B001F
:1004C0009A42B8D3EBE7FA21890002F08BF8C5E72E
:1004D000002004F057F90028B7D0802249460020B8
:1004E000520004F05BF90028AFD04B4601936B46F5
:1004F00058704B466A461B786846137000F020F827
:10050000A3E7002004F082F900F010F800232B701C
:10051000B4E78022920407009A6189E7AC1C0020AE
:10052000901C0020C81D0020CB1D00200023024A83
:100530001370024A13707047CD1D0020C51D0020A6
:10054000002210B5224CA54401AB1A700378DA2BB7
:1005500022D0FA2B14D143685B78522B10D0572B42
:1005600012D06B4603221B49581D02F0D3FB032215
:100570006B460020591D04F0B3F9002004F074F913
:100580008123DB009D4410BD6B4603221249581D98
:1005900002F0C0FB0322EBE742685378522BDED116
:1005A000D378012B0FD0022BDBD100F097F80B4C46
:1005B00002F016FB6B460622E0702100581D02F087
:1005C000A9FB0622D4E700F051F8054CF0E7C0463D
:1005D000F8FBFFFFD0560010D4560010180E002074
:1005E000200E00204023F0B51B4C1C4D85B01C494B
:1005F00020682B7004F0ECFE1A4F0321388800F0BD
:10060000A5F8194E0321308800F0A0F838880022A0
:10061000012100F0B3F830880022012100F0AEF88B
:100620000E22E7236A441370E63B29780093206882
:100630000F2604F0F7FE00236E442978206832006C
:100640000093013304F056FF30780238434258419A
:10065000C0B205B0F0BDC046280E0020260E002016
:10066000A08601002E0E00202C0E00200B22E3237A
:1006700030B585B06A44154D1370154CE23B2978AE
:100680000093206804F0CEFE322000F025FF002306
:100690002978206803AA0093033304F02BFF6A46ED
:1006A0006B46507B03221B7B90431B02184302F0D6
:1006B0006FFA084902F065FADE21890502F061FA55
:1006C000054902F044FA05B030BDC046260E0020B0
:1006D000280E002052B82F4366663B420B22E523CA
:1006E00030B585B06A44154D1370154CE43B29783C
:1006F0000093206804F096FE322000F0EDFE002307
:100700002978206803AA0093033304F0F3FE6A46B5
:100710006B46507B03221B7B90431B02184302F065
:1007200037FA084902F02DFADE21890502F029FA8C
:10073000054902F00CFA05B030BDC046260E002077
:10074000280E00200000FA420000C040094A830041
:1007500094464022634410B51C68C0006240C02427
:1007600014408022520113431C60034B9C4660449A
:10077000416010BD04C00140004001400A4B8000B0
:100780009C4604236044002901D00C230821002A40
:1007900000D10B00026853400C221A4080235B01F9
:1007A000184302607047C04604C001400123D022B4
:1007B0008340120693629361094A83009446402263
:1007C00063441968C0004A40C02111408022520190
:1007D00013431960034B9C460523604443607047F4
:1007E00004C0014000400140024B18688007C00F60
:1007F0007047C04600C0064070B5EFF3108C72B66B
:100800000D4D2B68002BFCD0BFF35F8F0724CB0866
:10081000C618C05C01230C40A3401C0004400342E6
:1008200007D103433370BFF35F8F2C608CF31088C4
:1008300070BD100001F05EFE2C0100D0F8B54746F7
:10084000CE46884680B5EFF3108C72B6214D2C68E9
:10085000002CFCD0BFF35F8F9A422CD8D408072716
:10086000055D061901241740BC402C421FD007210A
:100870000127894609E0D408055D06194C46390070
:100880001440A1400C00294211D001329342F2D20F
:1008900001204042BFF35F8F00220E4B1A608CF3A1
:1008A000108800280FDBC0BCB946B046F8BD2C4309
:1008B00010003470EEE7BFF35F8F00232B608CF3E2
:1008C0001088012040424346002BECD0089801F0EC
:1008D00011FEC0462C0100D00021044B044ABFF396
:1008E0005F8F02C39342FAD17047C046000100D027
:1008F000800100D0044A1078431CDBB2172B00D9CA
:10090000102313707047C046300E002000B5054B11
:1009100083B00100009318221F230348FFF78EFFC6
:1009200003B000BDD8560010BC170020012383403F
:10093000002904D0034A1360034A13607047034A36
:100940001360FBE780E200E000E100E080E100E00E
:1009500001238340014A13607047C04600E200E073
:10096000084B10309B688000C358002B07D0064A04
:1009700000209B1A2F229A424041C0B270470020AB
:10098000FCE7C04600ED00E0340E0020024B1030C2
:100990009B688000C058704700ED00E070B50D0006
:1009A000EFF3108672B60F4A1368002BFCD0BFF32A
:1009B0005F8F0D4B10309B6884001B590B4A93428C
:1009C00003D09D4201D001F0ADFD074B9B681D5146
:1009D000BFF35F8FBFF35F8F0022024B1A6086F375
:1009E000108870BD240100D000ED00E0CD010010A2
:1009F000F0B557464E46DE464546E0B585B00600A2
:100A000002911700EFF3108B72B6674A1368002B40
:100A1000FCD0BFF35F8F0025644B5D579A46002DD5
:100A200000DAA4E06B00624C03935B199B009846CC
:100A3000A146C1444B4652469B79103613705D4B1C
:100A4000B2009B68019299580B1B2F2B34D95A4B3B
:100A5000994200D0A4E0039B584A9C46584B6544F9
:100A6000AD006353434602336519E418554B012129
:100A7000043B1B1B1B055B0D13436B80524BEF713B
:100A8000AB80FF23AB71029BAB604B460B4319005D
:100A9000484B019A9B689950BFF35F8FBFF35F8FFC
:100AA0000022414B1A608BF3108805B0F0BCBB46A6
:100AB000B246A946A046F0BD01200A008243D37980
:100AC000BB422FD845464E46130040491B1B5B4195
:100AD0005943090D3A4B63533A4B02356519043BB0
:100AE0005B1B1B05354D5B0D2B4373800426B44601
:100AF000E0444444131F1B1B4C46A17102991B0583
:100B0000A16049465B0D2B43A380314BE771014344
:100B10001360BDE75800C01880002018C679BE4297
:100B20002BD902000623D356002BF3DA101D824680
:100B30002848804604267642B446E14450464E4654
:100B4000361A3005400D824656461C4895710643BC
:100B50009680039A944665441D4AAD00641922604C
:100B60004246A371029BA280E771A36090E701F067
:100B7000D9FC002553465D5754E7101D82469088E6
:100B80004005001584464046D4446646043020188B
:100B9000301AE0260005400D360230438046C9E792
:100BA00001F0C0FC57E7C046240100D0C61D00205C
:100BB000340E002000ED00E0CD01001000E0FFFF4A
:100BC00000A1FFFF640E002001BDFFFFAAAA0000E4
:100BD0000148804701BD0000F0B5DE4657464E464D
:100BE0004546E0B50C0083B0EFF3108972B6584A61
:100BF0001368002BFCD0BFF35F8F564B9A6803003D
:100C000010339F00D559544A9046954232D0A542A0
:100C100043D0524EAA1B2F2A2CD801228240924642
:100C200051464F4A12681140019151464D4A116098
:100C3000BFF35F8FEFF305829346002A33D1012380
:100C40002A009A4393689C4208D177E04B005B18D6
:100C50009B00F3189968A1422AD01A000621515628
:100C60000029F3DA019B002B19D052463E4B1A6043
:100C70003B4B1A60374B9B68DD51BFF35F8FBFF36F
:100C80005F8F0022324B1A6089F3108803B0F0BCEA
:100C9000BB46B246A946A046F0BD1500EAE752465B
:100CA000304B1A60E6E79342C9D001F03BFCC6E73F
:100CB00006215956002921DB4A00501880003418BB
:100CC0008046A0689860E079D87106202056987117
:100CD000002824DBA488F01A640524154444001974
:100CE000E0240005400D24022043988052181F4B39
:100CF0009200B6181A781970B271B3E759460029F4
:100D00000FD1FF3191711A49918018490A789A716F
:100D1000184A9B1B5B415A43120D0A70A2E7164802
:100D2000E3E7164A1649D21A083A5002400D014329
:100D30009980144952080A43DA8093E706215156F4
:100D400013000029B8DA5A46002AEAD14546DCE702
:100D5000240100D000ED00E0CD010010340E002091
:100D600000E100E080E100E080E200E0C61D00203C
:100D700001BDFFFFAAAA000001BD00006E0E002009
:100D800000F0FFFF00F8FFFF70B5EFF305810124CD
:100D90000443EFF3108C72B6214A1368002BFCD089
:100DA000BFF35F8F1F4B05001F4AED1A6D416A4369
:100DB000120D1E4D8900AE6852B27658A6421CD064
:100DC0000621595691421CD012215956914222D0E7
:100DD0001E215956914220D02A215956032491426E
:100DE00010D0134B19781A708171BFF35F8F0022F6
:100DF0000B4B1A608CF3108870BDAB680D4C5C50C7
:100E0000EFE700246100091989005B18FF2199713F
:100E100009499980E5E70124F4E70224F2E7C04696
:100E2000240100D0340E0020AAAA000000ED00E04A
:100E3000C61D0020CD01001001BDFFFF054B064A75
:100E40001360064A136053609360D360136153616B
:100E5000936170478080808000E400E004E400E05B
:100E600000B5074B83B0010000930022052305481D
:100E7000FFF7E4FC002801DB1F23181A03B000BDB4
:100E8000F4560010CE1D0020024B9C4661448900A0
:100E9000016070474000003410B50400FFF72AFDE0
:100EA00001002000FFF7F0FFFF232371BFF35F8FE6
:100EB00010BDC04610B50400FFF71CFD0100200066
:100EC000FFF7E2FFFF23A380BFF35F8F10BDC04693
:100ED00010B504000120FFF719FD044B9C46604447
:100EE00080002060BFF35F8F10BDC046400000341B
:100EF000034B9C46614489000160BFF35F8F7047DC
:100F00004000003483680B4810B584466144624455
:100F1000090112019A18591854684B6801209C4223
:100F200001D802D00020C0B210BD12680B689A42EE
:100F3000F9D8F7E7FFFFFF0F0A4B1968EFF31080AE
:100F400072B60A68002AFCD0BFF35F8F1B68BFF33C
:100F50005F8F00221A6080F3108840BF00200021BC
:100F60007047C0468C1C0020F8B557464E46454693
:100F7000DE46E0B599460CAB1C780DAB1B7806003D
:100F800090469A460768002C11D1BC7B002C42D0B9
:100F900065003B682D19033D59194B78BB73002B35
:100FA00000D1FB7300238B704B700B7004E0650065
:100FB0003B682D19033D5919B2682A4B94464246A5
:100FC000E3181B0163441A604A465A600A9A9A6001
:100FD0000B9ADA6000238B704B700B707B7B9B4607
:100FE000002B2BD022005946B8687B6898473A6896
:100FF000002816D05B4658465B005B445519033BFE
:10100000A870D118D35C002B00D06B705B460C70BD
:101010007B73A34513D0F0BCBB46B246A946A0469D
:10102000F8BD5B465B005B44033BD3189C705119D1
:10103000525D002A00D05A705B460B707C734246AA
:101040004B46307D00F0C0FB051E06D05346002BFA
:1010500003D12100306800F0DBFD0E9B002BDAD0BD
:101060001D70D8E7FFFFFF0FF0B5DE4657464E462E
:1010700045460023E0B58BB00893674B8200D458F7
:1010800000239B46099000F015FB626806000F00E4
:10109000EFF3108572B61368002BFCD0BFF35F8F9F
:1010A00023689C465B7B9946002B00D169E0A268CF
:1010B0005A4B90464B441B01984443461A685B6860
:1010C00010001900801BB941002900DC63E0099879
:1010D00000F07AFB00230022984600230692079333
:1010E00000239A466368BFF35F8F5A461A6085F300
:1010F00010885346002B08D10028C4D10BB0F0BC97
:10110000BB46B246A946A046F0BD089B4146180220
:101110004B461843D047626806000F00EFF3108576
:1011200072B61368002BFCD0BFF35F8F002F50DB2B
:1011300033003B4302D02369002B61D12368D97B64
:10114000002907D04A00521819688C464946624463
:10115000033A51709A7B002A01D14A469A734A4653
:10116000DA734B46E168013BCA5C0132CA545B4604
:1011700023616368BFF35F8F5A461A6085F3108856
:1011800081E700230022984600230692079300235C
:1011900000209A46A6E7002902D1002800D096E751
:1011A0000021604600F0B2FC43461A685B68069274
:1011B000079343469B689A464346DB689846E36834
:1011C0004B44013B1B7808931B020343236100201F
:1011D00088E72369002BB1D0069A079B921BBB417D
:1011E000002B15DB594604910121039149460291D8
:1011F00041460191514620000091FFF7B5FEB6E748
:1012000000F058FA32003B0012184B41002BE9DA8B
:101210000122034B5242E5E7701C0020FFFFFF0F45
:10122000FFFFFF7F10B5144C6368002B04D00A2128
:101230001248FFF729FE10BD2300114A1021206833
:1012400000F07EFB032000F029FA032000F026FBCB
:1012500003200C4900F072FAFFF74CFB0A4B9C4646
:1012600003232375D0231B061B6860446375074B5B
:1012700080006060DC60DAE77C0E00208C1C0020BF
:10128000050F00106910001040000034701C002091
:10129000004870477C0E0020F0B54E464546DE46BD
:1012A0005746E0B585B0019310AB1B780600039359
:1012B00000239946984600927268EFF3108B72B63D
:1012C0001368002BFCD0BFF35F8F3568AC7B002C1C
:1012D0003DD067002B683F19033FDB195A78AA738A
:1012E000002A00D1EA73B168474A8C4600980199F8
:1012F000A21812016244106051600E9991600F991A
:10130000D16042469A705A701A706B7B9A46002BD5
:1013100067D022001900A8686B6898472A680028DF
:1013200052D0534650465B005344D719033BB87024
:10133000D118D35C002B00D07B7053460C706B73BC
:1013400054454FD0F3681B19013B187800E000208A
:101350007368BFF35F8F42461A608BF31088002CCE
:101360004FD04B46002B08D10002204305B0F0BC03
:10137000BB46B246A946A046F0BD039B002B3ED01B
:101380000E9B00200F999847030004000D000B43AB
:1013900035D000290ADA009A019B121BAB4100925A
:1013A0000193002B0ADB039B994685E700F082F945
:1013B00024184D4100940195002DF4DA0123134CBB
:1013C0005B4200930194EEE753465B005344033BBA
:1013D000D3189C70D119D25D002A00D05A705346A0
:1013E0000B706C73307D009A019B00F0EDF9814623
:1013F0000028A7D02100306800F00AFCA2E70020F6
:10140000B4E701204042B1E7FFFFFF0FFFFFFF7F7E
:10141000407D7047F0B504000D0006267642F717B0
:10142000C64636196F4100B584B08F4214D811D02A
:1014300000F040F932003B00121A8B41002B15DC02
:10144000002B3ED02000290000F068F904B080BCD9
:10145000B846F0BD8642EBD90026002700F02AF9F5
:1014600032003B00121A8B41002BE9DD002302936E
:101470000193154B3200009314483B00FFF70CFF1B
:101480000028DFDB00239846BC46114A114F7B6AD7
:101490009C4504D8B96A8E42D4D99C45D2D11168F2
:1014A000EFF3108072B60B68002BFCD0BFF35F8F98
:1014B0001368BFF35F8F4146196080F3108820BF27
:1014C000E5E7002ABED0D1E7390F00107C0E0020DE
:1014D0008C1C00200040054070B5060000F0EAF8C2
:1014E000FA2204000D00002330000021920001F0D8
:1014F00011FB00196941002902DBFFF78BFF70BD6A
:10150000012001494042F8E7FFFFFF7FF0B5EFF30C
:101510000583CE46474680B505000C0085B0002BFC
:1015200012D02C4A0020536A9C4203D8926A0130A0
:10153000AA4204D305B0C0BCB946B046F0BDE01A1B
:10154000421E9041C0B2F5E7234E02930193234B14
:101550000200009330000B00FFF79EFE031EE0DD4B
:1015600020BF7168EFF3108772B60A68002AFCD0BA
:10157000BFF35F8FDAB294463068427B62451DD07C
:10158000FF221A4051008946016891448846494625
:10159000414403398978002913D0F1681B0A884631
:1015A0004244013A1278DBB29A420FD07368BFF31B
:1015B0005F8F00221A6087F31088B2E7FF221A407B
:1015C000EBE732699342F1D13161EFE7614600F018
:1015D0001FFBEBE7004005407C0E0020390F001098
:1015E000F0B5EFF30582D6464F4646461000C0B52B
:1015F0001038EFF3108872B6214C2368002BFCD012
:10160000BFF35F8F0123190081401E4D1F006963E6
:10161000AA461D4D29601D4D2E78AC463500C540AB
:101620002F402B4209D1BFF35F8F276088F31088CA
:10163000E0BCBA46B146A846F0BD5346144D5F6AB9
:1016400083005D59AF420ED3124A8E439B586246C7
:101650001670BFF35F8F0022226088F31088002B82
:10166000E6D09847E4E70C4B92009C46624413682E
:101670001360BFF35F8F0023236088F31088D7E7E0
:10168000280100D0004005403C700540CC1D0020E2
:101690009C1C0020A0160020D03F054010B5010082
:1016A000024A0348FFF7A8F810BDC04610570010C3
:1016B000C41D0020034B596A0A00986A596A8A427D
:1016C000FAD170470040054070B504000D00124A81
:1016D000536A1900966A536A8B42FAD13000190096
:1016E00024184D41AB4211D80ED02B000A494A6A4A
:1016F0009A42FCD307D1084A02E0516A994202D1CA
:10170000916AA142F9D370BDA642EED9012301240A
:101710006442E5175B42E9E700400540064A536A28
:101720009942FCD807D1044B02E05A6A914202D197
:101730009A6A8242F9D370470040054070B50400B0
:101740000D00EFF3108672B61A4A1368002BFCD016
:10175000BFF35F8F002D1BD02000FFF717F916494C
:1017600081420AD02000FFF719F901212000FFF77C
:10177000DDF80123A340114A1360114BA400E5508A
:10178000BFF35F8F00220B4B1A6086F3108870BD89
:101790000B4BA200D5500122A2400A4920000B7831
:1017A00093430B700449FFF717FA00212000FFF75D
:1017B000BDF8E5E7280100D0E115001038600540CC
:1017C000A0160020CC1D0020F0B54F46D646464658
:1017D000C0B507002C4C616A0D00A66A616AA94277
:1017E000FAD18B4208D805D00120E0BCBA46B146F8
:1017F000A846F0BDB242F7D9EFF3108A72B623487B
:1018000001680029FCD0BFF35F8F0125BD4020494E
:101810001D4C8846097889462943C9B28C46414601
:1018200060460870391D1B48890065630A51B9007C
:101830000B50216A0020294219D0616A0800A66A6B
:10184000616A8142FAD18B4219D801D1B24216D8CD
:10185000CC4516D00C4B1F201D625D630123074051
:10186000BB400D4A1E38136043464A461A70BFF308
:101870005F8F0022054B1A608AF31088B5E70020BD
:10188000F5E70120F3E7C04600400540280100D0FD
:10189000CC1D00209C1C002080E200E0EFF3108CA7
:1018A00072B60A490B68002BFCD0BFF35F8F01238F
:1018B0008340074A0748136202789A430270BFF3D5
:1018C0005F8F00230B608CF310887047280100D0D5
:1018D00000400540CC1D002070B505001400160026
:1018E000002915D00C00002A12D080686B68984738
:1018F000296800280ED073009B196200033B12195F
:10190000CB18033A9C7088188A5C002A15D106709F
:10191000200070BD63001B197200033B9219CB18A5
:10192000033A9E7088188A5C002A02D10470340041
:10193000EEE75A7004703400EAE75A700670E7E781
:1019400030B583600023CCB243730133047342602B
:101950008373C4730D000068012C06D9421C013347
:10196000DBB2137003329C42F9D1FF2129404B00B6
:101970005918002340180338437030BDF8B5CE46DF
:10198000474606000C0080B5002907D04D000368CB
:101990006D18033D5A195778002F04D12000C0BCA0
:1019A000B946B046F8BD7900C919033988464344A1
:1019B0005978894600215970517073683A002100A6
:1019C000806898473368002814D042469A1894706B
:1019D00059195B5D002B00D053700F7027004946EA
:1019E0003000FFF7CBFF390002003000FFF774FF33
:1019F0000400D3E7424641465D19AF709A185B5C1C
:101A0000002B00D06B701470E9E7C046F0B5574664
:101A10004546DE464E46E0B50D006B0001685B1999
:101A2000DF1E0400C85D83B00192CA19002850D09F
:101A300043001B18033BCB185E78B446002E1AD126
:101A4000019E002E42D0E67B002E04D073009B192D
:101A5000CB18033B5D70A37B002B00D1A573E5730E
:101A600000282FD10023537003B0F0BCBB46B24610
:101A7000A946A046F0BD72006244033A89184A782C
:101A8000904600224A7091465A70010032002000B0
:101A9000FFF722FF43468246002B07D05B002168F8
:101AA0004344033BCB185A78002A16D1424651468C
:101AB0002000FFF711FF2168019BCA19002BC2D13A
:101AC0000028CFD043001B18033BCB18002199708E
:101AD000C8E7019B002BB6D1C4E75000801803383B
:101AE0000918487883464846487058704146200097
:101AF000FFF7F2FE594680462000FFF73FFF4146C0
:101B000002002000FFF7E8FE8046CFE7F0B5574619
:101B10004546DE464E46E0B583B00191457B040064
:101B20006B0000685B19DF1EC15DC219002952D02D
:101B30004B005B18033BC3185E78B446002E1CD1E3
:101B4000019E002E44D0E67B002E04D073009B192A
:101B5000C318033B5D70A37B002B00D1A573E57315
:101B6000002931D1002328005370617303B0F0BC09
:101B7000BB46B246A946A046F0BD72006244033A95
:101B80008018427890460022427091465A70200098
:101B90003200FFF7A1FE43468246002B07D05B00D0
:101BA00021684344033BCB185A78002A17D1424698
:101BB00051462000FFF790FE019B01002068C219EA
:101BC000002BC0D10029CDD04B005B18033BC318BC
:101BD00000209870C6E7019B002BB4D1C2E75000EB
:101BE000801803380918487883464846487058706A
:101BF00041462000FFF770FE594680462000FFF75F
:101C0000BDFE414602002000FFF766FE8046CEE79B
:101C100070B5040000292CD0437B8B422ED0056880
:101C200048004018033828188278002A21D0530031
:101C30009B18033BEA5CEE188A4202D11BE0002AA3
:101C400008D053009B18033BEB185A788A42F6D110
:101C500042785A7000230122837043702000FFF7FE
:101C6000D5FE617B02002000FFF736FE6073012085
:101C700000E0002070BD43783370EBE701221900CB
:101C8000FFF7C4FE60730120F4E7C046F8B5CE4606
:101C90004746040080B506200E0000F0EFFA051E4E
:101CA00051D0524B5249E21853425A418023DB0330
:101CB0009C4692054F4B62441A604F4B1A601000CD
:101CC0008B689843FBD1494B8021E3185A4253411A
:101CD0004A4A5B0049009952062000F0CFFA3100D1
:101CE000C00000F07FFCC30932D1402201219046A0
:101CF0006162A362256BEB0736D427008026E36A76
:101D000000232C3776013E4333600620256300F024
:101D1000B5FA4146800000F065FC236B050098464B
:101D2000DB073BD46022E36A5A406E2313403360E2
:101D300043462363802310229B013B431A60304BB0
:101D400023630323A3642800C0BCB946B046F8BD92
:101D50002C4A93423FD900232B492C4A6162A3624B
:101D6000256B9046EB07C8D52200C02330329B017B
:101D70001343234A06201A60666AA26AB601B6189F
:101D800000F07CFA224900F02DFCB6020100300080
:101D900000F028FC0021FFF797FCAEE72200C023EB
:101DA00030329B011343164A06201A60636AA26A06
:101DB0009B019946914400F061FA4B4614499B02FD
:101DC000994600F00FFC0100484600F00BFC002192
:101DD000FFF77AFCA6E77F22990188461040013080
:101DE000400819008044030082E7C0460080FCBF21
:101DF00000C0004000E0004000F00040AC1D0020AA
:101E000001030000FEFF0000FFFF0000C0FF3F00D5
:101E10004E0E0000F8B5040006200D0000F02EFA6A
:101E20002900C00000F0DEFBC30924D0224A9342FF
:101E300039D90023214A224E6262A362256BEB0747
:101E400020D52200C02330329B0113431D4A0620B7
:101E50001A60676AA26ABF01BF1800F00FFA1A4938
:101E600000F0C0FBBF020100380000F0BBFB002106
:101E7000FFF72AFC06E0402601226262A362256B7E
:101E8000EB07DED4E36A220080232C325B0113438C
:101E9000002206201A60256300F0F0F9310080006E
:101EA00000F0A0FBF8BD7F221040013040089E01E9
:101EB0001A0036180300E0E7FEFF0000FFFF0000F5
:101EC000C0FF3F00010300004E0E00000539013A3B
:101ED000F8B5D2004C0105001443002B05D00222B6
:101EE0002243012B2AD105331C432E6BF3070BD45D
:101EF000EA6A802362406E2414402A005B012C327F
:101F000013431C602E63F8BD2A00C02330329B01AE
:101F100013430B4A06201A606F6AAA6ABF01BF18F2
:101F200000F0ACF9074900F05DFBBF02010038008A
:101F300000F058FB0021FFF7C7FBD9E71400D4E7F6
:101F4000010300004E0E0000F8B54B1E9941066BD0
:101F500005000C01F3070BD41023E96A2A004C405A
:101F60001C4080232C325B0113431C602E63F8BDA0
:101F70000200C02330329B0113430A4A1A60476AA9
:101F8000826ABF010620BF1800F078F9064900F008
:101F900029FBBF020100380000F024FB0021FFF7FD
:101FA00093FBD9E7010300004E0E000030B50C2072
:101FB00083B000F0B9F9FEF717FC00280ED0994B5A
:101FC000994A1A605A609A60DA601A615A619A6195
:101FD000DA611A62954A5A6203B030BD944CA06728
:101FE00000F0F6F90122934B1A60636C012BFCD1CF
:101FF0000322914B1A608E4A936B012BFCD1013363
:1020000001218E4A8E480093043300F03DF90523E8
:102010008C4A009301218C4800F036F98B4B5A68AA
:10202000FF2A02D8802252005A6080227D4C824BC7
:1020300021691201854D1A60002907D0606900F0FE
:10204000D1FA431C5800C0180338FDD2E0217F4B61
:1020500002201A681140802252012A431160196837
:10206000484003210140116004219A681142FCD0CC
:102070008022802192012A430901116080225200AE
:102080005A60734B2361734B5968FF2900D85A601B
:102090000321684A6F4B116002399A681142FCD0E3
:1020A000E0201A681040802252011A43106018681C
:1020B0004840032101400220116066498A681042AD
:1020C000FCD0802292011343802212011A608022E8
:1020D000614B52004A606361604B5968FF2900D828
:1020E0005A6080225E4BE16912015C4D1A60002942
:1020F00007D0606900F076FA431C5800C018033816
:10210000FDD2E02255490B681A4080235B012B4326
:102110001A60802380229B012B4312011A608022C7
:10212000414B52004A60E3614E4B5968FF2900D889
:102130005A6080224C4B216A12014A4D1A600029D4
:1021400007D0606900F04EFA431C5800C0180338ED
:10215000FDD2E02243490B681A4080235B012B43E8
:102160001A60802380229B012B4312011A60802376
:1021700080225B004B602C4BD20223623B4B5968A0
:10218000914200D25A608022394B616A1201374D68
:102190001A60002907D0606900F024FA431C580037
:1021A000C0180338FDD2E02230490B681A40802362
:1021B0005B012B431A60802380229B012B43120179
:1021C0001A608023DB024B60184B6362294B5A680C
:1021D000FF2A02D8802252005A608022264BA16931
:1021E0001201244D1A60002907D0606900F0FAF945
:1021F000431C5800C0180338FDD2E0221D490B686B
:102200001A4080235B012B431A60802380229B01AC
:102210002B4312011A6080235B004B600E4BA361BD
:10222000DAE6C046C0170020006CDC021BB70000D5
:10223000008000403CB0004030B00040002F6859A2
:1022400000800240008C864700C002403080004081
:10225000001BB7003C800040405973075480004089
:1022600054B000406080004060B000406C8000408E
:102270006CB000404880004048B00040014B8000F6
:10228000C0587047C0170020F8B5040021481D0051
:1022900017000E0000F0A6F90100380000F0A2F9C6
:1022A000069B29041B0319432368002B20DB1A4BD0
:1022B0001A4DE21853425A4180235B019C46120397
:1022C000174B62441A60174B1A601700AB689F43A4
:1022D000FBD1C022231D92011A4321232660A06056
:1022E00013602368002BFCDA0823E1601360F8BD5B
:1022F0003F2322681340B342D9D1A3681B051B0DAD
:102300008342D4D1EE22E368D20213408B42CED175
:10231000EDE7C046001BB7000040FDBF00C0004015
:1023200000E0004000F000408023024A9B0003438D
:10233000D36270470080054010B5140080221B4B0B
:10234000D2051A6000281AD00123194A1843194BE4
:10235000DA61194A42401A62596298628022134B2C
:10236000D2051A601549164A1160E022D2041A609B
:10237000002C07D18022134B12061A6010BD0D4BA2
:10238000D861EBE763011B1B9A008023121912012D
:102390005B049A4200D30C4A0C4B1A60054B5A60FE
:1023A0008022084BD2051A60E8E7C04600B005401D
:1023B000D3C007B0008005402D3FF84FFCFF01005F
:1023C0000820014000A00540FFFFFF00601C002026
:1023D000AA23064A1B0113602F230549D360054B2E
:1023E00019605368002BFCDA7047C0460040024079
:1023F00000B0FA00006002402C4B2D4A70B51A6004
:102400002C4A2D4B2D491A6014008B689C43FBD13C
:102410002B4D2C4EB54208D2013E761BB60808CD96
:10242000984723000134B342F9D1FFF7BFFD264A94
:10243000214B1A60214A9368DB43DB01DD09002B45
:10244000F9D14022214B224C224E9A675A671A67D3
:10245000DA66B44208D223682000002B20D008346A
:10246000FEF728FDB442F6D31B4E1C4CC022A168D7
:10247000300000F04FFCA660FEF72EFAFEF7DEFCFF
:10248000FEF7D0FE164C174EB44208D2013E361B62
:10249000B60808CC98472B0001359E42F9D170BD93
:1024A0000834FEF7F9FCB442D5D3DDE700E0004084
:1024B000BFCDFBFEFE7F3C0000F0004000C00040AE
:1024C000200F0020300F0020FFFFFF0100F001402F
:1024D000180F0020200F00200000002000ED00E079
:1024E000300F0020380F002000BEFDE710B5FFF7C9
:1024F000FBFFC0460FB400B5084883B000F03CFDB8
:10250000049B002B07D005A91800019100F018F8D2
:10251000034800F031FD0120FFF7E6FF34570010BB
:102520004457001010B50148FFF7E4FF485700106A
:1025300010B5002800D110BD00F0D2FCFBE7C0466A
:1025400010B5094A0300146884B0002C08D0012299
:1025500000910648524203A9A047012004B010BDD3
:1025600000F00AFD0020F9E75C1C00203125001076
:1025700001480421014B1847B00E0020A12500108E
:10258000142310B50100188804331B88984710BD28
:10259000162310B50100188802331B88984710BD18
:1025A000F8B54746CE4680B50F1E19D0142399467C
:1025B000043304000025012698464B4618884346FC
:1025C00021681B88984701C4431E98410135404249
:1025D0000640AF42F1D13000C0BCB946B046F8BDAC
:1025E0000126F8E7114A936F9B0813D210665166D3
:1025F000002905D0FFE7FFE7FFE7516F106F704735
:1026000004B5002801D00020C04303F019F80021D0
:1026100004BDC046F0B5146E556E576F166FFFF7C8
:10262000E5FF1466556657671667F0BD000000D0D9
:1026300094464A4A926F9208624601D228E0C04608
:10264000F0B5464E346E756E776F366F00F020F839
:102650009446424A14665566576716676246F0BD4F
:1026600094463E4A926F9208624601D254E0C046B8
:10267000F0B53A4E346E756E776F366F00F04CF8E9
:102680009446364A14665566576716676246F0BD2B
:10269000002B24DB11D000293EDA00B5C9434042AB
:1026A00000D1013100F038F8C943404200D1013176
:1026B000DB43524200D1013300BD002AEBD1002898
:1026C00001D1002905D00020C90FC90701D1C0439D
:1026D000410800B502F0ACFF0022002300BD00B5A8
:1026E00000290ADBDB43524200D1013300F014F829
:1026F000C943404200D1013100BDC943404200D12D
:102700000131DB43524200D1013300F005F8DB43D5
:10271000524200D1013300BD002923D1002B18D132
:10272000002A0CD0BC460D4F38667A660021002383
:10273000FFE7FFE7FFE77A6F386F674670470028CB
:1027400001D00748010000B502F072FF002200230B
:1027500000BD02000B00002000217047000000D0E7
:10276000FFFFFFFF002B00D0BFE0130C28D1002A91
:10277000E7D080B4114F39667A66FFE7FFE730B4DF
:10278000040C7B6F396F1B0423433B667A66FFE7BB
:10279000FFE7FFE7C04684B27B6F3D6F1B04234316
:1027A0003B667A66FFE7FFE7C04600232C042D0C4A
:1027B0007A6F386F00196941B0BC7047000000D0D3
:1027C000F0B594460025140E01D112020835140FFD
:1027D00001D112010435940F01D192000235D40FBA
:1027E00001D152000135D40B0134254F7C66254CB4
:1027F0003C660E0C93B2FFE7FFE7FFE73C6F6643D2
:10280000360C7703BE467343DF0B5B04C01AB94135
:10281000130C7343DB18C91ACE086643360CB64452
:1028200093B273431F0F1B01C01AB941130C7343BA
:102830001F0B1B05C01AB941860D8F023E4366432C
:10284000360C092D24DB520A7243801A7703460A9C
:102850006643360C16235B1BDE40DF40BF1964461F
:102860006643821B7046043506330100D940A840F8
:10287000C01900D30131A24206D20023F0BD0000EE
:10288000000000D0FFFFFFFF121B0130F3D3F1E780
:1028900009277F1BFE406446A2B27243801A00D211
:1028A0000139220C7243130C1204821A99410B0055
:1028B0007046043513370100F940A840801900D351
:1028C0000131002B02D1A2420AD2F0BD013000D367
:1028D0000131121BFAD2013BF8D1A24200D2F0BD65
:1028E000013000D30131121BF7E7F0B51C0C00D00A
:1028F00080E00CB400251C0A04D11B02160E3343E1
:10290000120208351C0B04D11B01160F33431201B0
:1029100004359C0B04D19B00960F33439200023583
:10292000DC0B02D192185B4101351C009718644101
:102930000134464F7C66464C3C660E0CFFE7FFE7D1
:10294000FFE7C0463C6F6643360C7703BE4697B23E
:102950007743C01B00D20139C01B00D201399FB29E
:102960007743C91BC91B170C77437E04FF0B801BE1
:10297000B941CE086643360C0C2D33DBB644120B3E
:102980001F053A431B0B97B27743C01B00D2013996
:102990009FB27743C91B170C77433E043F0C801B43
:1029A000B941860D8F023E43664329277F1BFE40B7
:1029B0000C3D7746AF40BF1930BCA2B2ABB27243F8
:1029C0007343801A9941220C7243130C1204801A2B
:1029D000994102000B000137001BA941F9D2781E72
:1029E0000021F0BD0C277F1BFE4077467F0BAF40D8
:1029F000FF19E0E700245D1C07D0144F7D6639669F
:102A0000FFE7FFE7FFE7FFE73C6F95B29EB2654344
:102A10006643401BB141150C1E0C654366433604EA
:102A20002F0C3E432D04401BB141994204D20200B9
:102A30000B0020000021F0BD01D19042F7D3801A95
:102A4000994101349942F2D3F6E70000000000D02A
:102A5000FFFFFFFF132370B51D78012D15D010DD8A
:102A60001C48FFF795FD1C4C01008022200000F05F
:102A700051F9022D06D01948FFF782FD184B186056
:102A800070BD154C174BA364F5E7164B124C236031
:102A90006360A360E36023616361A361E361236218
:102AA0006362A362E36223636363A363E3632364F8
:102AB0006364A364E36423656365A365E3652366D8
:102AC0006366A366E36623676367A367E367A3643C
:102AD000D1E7C04653440000401000204C330000B2
:102AE000881C0020E92A001007B5604601880A0A00
:102AF0000230DF2AFAD1C9B2820804D302884088A2
:102B00000004104300E00068014A5050039007BDE4
:102B10004010002051434343C9188C46110C83B226
:102B20004B4310B4040C614392B280B250436243F1
:102B30001C041B0C001910BC59411304120CC018C2
:102B400051416144704700004840414048400E4BAD
:102B50005B6818470C4B1B6818470C4A936F9B081F
:102B600002D2094BDB681847F0B5146E556E576FEB
:102B7000166FFFF7F6FF054A146655665767166726
:102B8000F0BD014B9B68184740110020000000D0A9
:102B9000491A002808D1084670470000C10FC9072C
:102BA00000D54042002817D0F44603B40B4B1B68F5
:102BB000984706BC81409E384042803107D20B06C0
:102BC00007D04900490AC005104308436047013057
:102BD000F8E7490A8902F5E770470000881C0020E1
:102BE00041000A0E80231B067E2A0BDD9E3A0BDA7B
:102BF000C1174002400818435242D04049000131F9
:102C00004843704700207047C00FC0180138704714
:102C1000C0420DD300B540004008002100F012F87A
:102C2000002801D4404200BD8020000600BD000005
:102C3000034BDB69FC4618471CDFE12C0010000049
:102C400040110020014B5B6A184700004011002032
:102C5000132310B512481C78FFF79AFC0100012CD1
:102C60000AD003DD80220F4800F054F80E48FFF729
:102C700087FC0E4B186010BD0A4C5422200000F057
:102C800049F80B4B6365A365E36523666366A3663A
:102C9000E36623676367A367E3672362E361E5E7AE
:102CA00053460000401100204C330000881C0020D7
:102CB000B52C001007B5604601880A0A0230DF2AE9
:102CC000FAD1C9B2820804D30288408800041043B4
:102CD00000E00068014A5050039007BD40110020F9
:102CE0000021C2158032803201D0024A10470020F4
:102CF00070470000CD2A000001480421014B18470D
:102D0000C00E0020A1250010014B1B6818470000D1
:102D1000C00E0020014B5B6818470000C00E002069
:102D2000030010B5080011001B68984710BDC0468D
:102D3000F0B546464F46D646C0B5437D80460E00A8
:102D40001700002B46D0002A3FDD4B1E9946244B2E
:102D50000125002400209A460DE04B461B5D0D3BEB
:102D60005A425341325DDBB20A2A0BD02B000134A8
:102D700001359F421ADD002CEFD14346325D1B7DA9
:102D80000A2AF3D1002BF1D1A04204DA4346211ADA
:102D90001B6830189847434650461B6802219847E5
:102DA000013428002B0001359F42E4DC874204DD1A
:102DB0004346391A1B6830189847F619013E337894
:102DC0000D3B5A42534142461375E0BCBA46B146E8
:102DD000A846F0BD0368110030009847F5E7C046EB
:102DE000B4570010F0B5DE4657464E464546E0B5AE
:102DF00085B017001C0006000D00FEF75BFC0023E9
:102E0000304A12184B41002B58DB2F4908008A46E4
:102E100002F02EFC01906B1C03D1300002F0C0FBCD
:102E20000500002C25D1294B9846294B1C68002C05
:102E300015D0002F20D1274F02E02469002C0ED09E
:102E40002368002BF9D03B68002B01D0A342F4D1BA
:102E500020002A003100C0472469002CF0D1019BDA
:102E6000002B27D105B0F0BCBB46B246A946A04610
:102E7000F0BD194B9846D8E7164B994602ABDF1DBB
:102E80000A239B4602E02469002CE8D02368002B2B
:102E9000F9D04B461B68002B01D0A342F3D12A0086
:102EA00031002000C0475B460122390020003B7002
:102EB000C047E8E7504602F0B3FBD3E70122074BD7
:102EC0005242A2E740420F00180F0020312D00109F
:102ED0005018002058180020212D0010FFFFFF7F00
:102EE000F0B5CE46474680B583B06B460600DD1D83
:102EF0002870FEF7DFFB00231A4A12184B41002B03
:102F00002BDB19490800884602F0B2FB174B8146BB
:102F10001C68002C14D0164F02E02469002C0FD03E
:102F20002368002BF9D03B68002B01D0A342F4D1D9
:102F3000200001222900FFF7FBFE2469002CEFD1BD
:102F40004B46002B05D1300003B0C0BCB946B0469B
:102F5000F0BD404602F064FBF5E70122054B52420A
:102F6000CFE7C04640420F00180F00205018002045
:102F700058180020FFFFFF7F70B5040002F010FB1F
:102F800000230100050001222000FFF72BFF084B62
:102F90001C68002C06D06368002B05D09847246974
:102FA000002CF8D1280070BD2469002CF3D1F9E77A
:102FB000501800200A4A1368002B05D10CE01A00B3
:102FC0001B691032002B07D09842F8D1002902D19A
:102FD00003691360016170470029FCD01060FAE7B3
:102FE0005018002010B500F0D9F910BD7047C04648
:102FF0000022014B1A707047C71D00204B7900203A
:10300000FF2B0BD18B79002B08D1CB79012B05D16C
:10301000082A03D98A78024B09301A707047C046D3
:10302000C71D00200120704770B5012909D115493D
:103030005379107909781B0203430020994202D08A
:1030400070BD0120FCE75378012B08D0022BF7D18B
:10305000002064220021FFF76FF90120F0E7947847
:10306000D278050012021443D20502D5620A9340B9
:103070001D000548FFF784FA7F2103002140280046
:103080009847C046C71D0020554200000123037029
:1030900000487047B857001048780B788A780002CB
:1030A0001843120410439622CB7810B51B06034335
:1030B000D200934200D010BD0348FFF761FA00210F
:1030C000030008009847C04655420000024B1860B4
:1030D000024B19607047C046B0170020B41700209B
:1030E00010B5024B1878FDF733FC10BDC91D002048
:1030F000114B70B51A68002A1AD0EFF3108172B61E
:1031000010680028FCD0BFF35F8F00220B48596085
:1031100002701B68BFF35F8F1A6081F31088002470
:103120000025074B1878FDF713FC2900200070BD1F
:10313000FA240025A400F4E7681C0020CA1D002022
:10314000C91D002070B5040000200E0001F002FB34
:10315000002835D0002001F015FB002830D0FEF704
:10316000A9FA0023184A12184B41002B24DB174DF3
:10317000280002F07DFA002822D0002001F0EAFAAF
:1031800000280BD1012000210324404200F0CCFC98
:103190006442280002F044FA200070BD002001F0D3
:1031A000F1FA0028EED021003200002001F0F6FAFA
:1031B000041EEED1033CECE70122054B5242D6E758
:1031C00003246442E8E7C04640420F00941C0020FC
:1031D000FFFFFF7FF8B5DE46574680B505000C00BF
:1031E000FEF768FA0023364A12184B41002B5ADBCF
:1031F000344908008A4602F03BFA002803D1C0BCDB
:10320000BB46B246F8BD002001F0A4FA00284ED01B
:103210000026002C43DD2C4B9B4614E0A91900200E
:1032200001F05EFB070001200021404200F07CFC21
:10323000002001F019FBFEF73DFA234BF619186048
:103240005960B4422BDD002001F064FBA71B020093
:10325000B84200DD3A00002AE0D1012000214042BE
:1032600000F062FC002001F0FFFA002001F072FA89
:10327000002814D0002001F04DFB0028E1D1FEF71A
:1032800019FA5B460F001A685B68002184460F48F4
:1032900012184B419F4202D8D3D19445D1D9504600
:1032A00002F0BEF9ABE70122094B5242A0E7002031
:1032B0000021054B18605960504602F0B1F99EE7B5
:1032C00040420F00941C00203810002020A107006D
:1032D000FFFFFF7F10B5244C84B00021200002F0D6
:1032E000B7F900281CD1214B1A68002A16D0EFF339
:1032F000108172B610680028FCD0BFF35F8F0124E4
:103300001B48596002781B68D2B20470BFF35F8F0C
:103310000020186081F31088002A0AD004B010BD84
:1033200001200021404200F0FFFB200002F078F96C
:10333000F4E7FDF7ADFF0400FEF7BCF9FA22002325
:10334000920012184B41002B09DB01210291002150
:103350000191084920000091FDF79EFFDEE7012260
:10336000054B5242F1E7C046941C0020681C002027
:10337000CA1D0020F1300010FFFFFF7F054B10B584
:103380001868002804D0044B0022196801F044F8A2
:1033900010BDC046B0170020B4170020D02310B5D0
:1033A0001B0684B01C68FDF773FFFEF731F8A042DE
:1033B00002D0002004B010BD264B1B7801F094FC15
:1033C0002548FDF769FD0120FDF74AFDFF23234C49
:1033D000234920701840FDF7E1FA20780121FDF71C
:1033E000A5FA0520FDF7BCFA002822D1FDF750FF11
:1033F0000400FEF75FF9FA220023920012184B41F5
:10340000002B22DB012102910021019115492000AE
:103410000091FDF741FF0822040000211248FFF748
:1034200073FC002CC5DB11480121FFF7C3FD01200F
:10343000C0E700220E490520FDF7DAFAFDF75AFA37
:1034400001000948FDF754FDEDE70122094B524206
:10345000D8E7C046C4590010941C0020C91D0020A4
:10346000D5320010F1300010681C0020D00E002072
:10347000E1300010FFFFFF7F0048704770580010D8
:10348000004870471C58001070B5040017480378B6
:10349000002B21D0002C06D1C1241548154BA400C7
:1034A0004380048070BD052C1DD8134B1048A40028
:1034B000E558811C002304E001330A800231132BFC
:1034C0000ED0EA5CDCB2002AF6D1C0230134E4B2AB
:1034D00064009B001C43E4E7112100F017F8D9E7D2
:1034E000CA24A400DDE70020DCE7C046B01D0020B0
:1034F00028180020090400008458001010B5024864
:1035000000F0D8F810BDC046801C002030B54B1E1E
:10351000012900D1A7E0664A11780D112C00303442
:103520009F2900D9A2E00470012B00D1BEE00F2139
:10353000147821400C003034092900DD98E04470F3
:10354000022B00D1B2E054782511290030319F2C94
:1035500000D990E08170032B00D1A7E00F2121401A
:103560000C003034092900DD87E0C470042B00D141
:103570009CE094782511290030319F2C00D97FE000
:103580000171052B00D191E00F2121400C00303456
:10359000092900DD76E04471062B00D186E0D4785D
:1035A0002511290030319F2C00D96EE08171072B45
:1035B00000D17BE00F2121400C003034092966DC6A
:1035C000C471082B00D171E0147925112900303124
:1035D0009F2C5FD80172092B68D00F2121400C006D
:1035E0003034092958DC44720A2B5FD054792511F4
:1035F000290030319F2C52D881720B2B56D00F21CD
:1036000021400C00303409294BDCC4720C2B4DD006
:1036100094792511290030319F2C00D9073101738D
:103620000D2B43D00F2121400C003034092901DD3E
:1036300037310C0044730E2B38D0D1790C11220095
:1036400030329F2900D9073282730F2B2ED00F22E0
:103650000A4011003731092A01DC30321100C173F0
:10366000102B23D010300023037030BD07345AE7ED
:1036700037310C0063E707316CE737310C0074E732
:1036800007317DE737310C0085E707318EE73731A9
:103690000C0095E707319DE737310C00A3E70731B0
:1036A000AAE737310C00C4720C2BB1D1C018DAE78D
:1036B000801C002030B5002589B0040009220021BB
:1036C00001A80095FFF720FB0922002105A8049519
:1036D000FFF71AFB4B236A466846137004A90D22B4
:1036E00001F096FF1521082220006944FFF712FB24
:1036F00009B030BD10B501210520FDF717F910BD47
:1037000010B500220021024800F05AF910BDC04651
:103710007C1800208022024B5202DA647047C046B7
:1037200000201150F0B5C64600B5060000F022F9A1
:103730000C231B4DFF22AB6705201A49FDF758F9F2
:1037400040239846184C402200212000FFF7DCFA65
:1037500043460127238321210023144A6770A26076
:10376000136063545F316184414621870539635496
:103770000F4A10496360E260A1620B606362E2621B
:1037800001F09EFF80239B052F64EB6490230A4A7F
:103790003000EA50FFF7BEFF80BCB846F0BDC0461F
:1037A00000001150F90400205C1800208400105023
:1037B000000110508000105010D001000B785B0603
:1037C00002D14B78052B00D070478A78014B1A60E4
:1037D000FAE7C04600001150F0B5C64600B54B7977
:1037E0000C791B0288782343CC787F21A407014001
:1037F000C509A20F4F001400324E7A195201B218B7
:10380000907001206840507000205B055B0DD07007
:103810001383D4768046CA00012D33D02A488446CB
:10382000880162448446B444604682604046106029
:10383000002933D0254AC900904662464144516070
:103840003F223F339343022C00D15B0020487A197A
:1038500001685201B218D1601E4ACB180360514072
:103860005340802288465201934228D84346A406FA
:103870001C4380237F197F011B06F6191C437368C4
:103880001C6011E014488446880162448446B444B4
:103890006046826240461060002909D100236D0114
:1038A000761973600D4BF360012080BCB846F0BD03
:1038B000084AC9009046624641445162C0E7FEF79B
:1038C00031FED3E75C180020840010500400105033
:1038D000641C0020000010508000105000011050A7
:1038E00010B501F0EDFE10BD10B57F200C0020409A
:1038F0004000E409110000191A00034B4001C018F0
:1039000000F05EF8012010BD5C1800207F2213003B
:1039100010B50B400A420BD0C9098022580040184C
:103920000649400140181201002101F0C1FE10BDFE
:1039300002220348C909521A8266EEE75C18002089
:10394000002011507F22100010B508400A4200D11B
:1039500010BD0023C909400040180449400108185F
:1039600000220349C37001F0A3FEF1E75C180020B8
:10397000FFF7FFFF80220D4B520410B51A600C4B6D
:103980000C491A6010008B689843FBD10A4C9C22AA
:1039900000212000FFF7B8F98022002152010748DA
:1039A000FFF7B2F90923636710BDC04600E000408D
:1039B00000F0004000C00040000011500000105016
:1039C00070B5837E04000D001600002B17D1002374
:1039D000E38201332000A682A376256101F050FE28
:1039E000002804D080219023084A8902D150200069
:1039F00001F006FE002805D00123237770BD01F0F9
:103A00004FFEE4E7200001F043FEF7E700201150ED
:103A1000024B5878431E9841C0B27047841500206D
:103A2000024B18784007C00F7047C046841500202D
:103A3000034B1878FF38431E9841C0B27047C04608
:103A40000C0F0020F8B5CE46474680B52C4E050039
:103A500033780120FF2B03D0C0BCB946B046F8BD77
:103A6000532200212748FFF74FF9274C2000FDF78C
:103A700013FA264B1C60264C20001430FDF728FA60
:103A8000200001F0FFFB234B234F1C60234B984683
:103A9000002B04D03800FFF7F9FA214B186042469A
:103AA00000243B78002A23D01E4A90461C4A9146A7
:103AB000A34212D80FD14346984701343B78E4B271
:103AC000A342F5D228003570FFF72CFE2800FFF73F
:103AD00011FE0120C0E70020BEE74A4612686300DD
:103AE00094461B19DB006344002BF4D01B68E3E70A
:103AF00000F01CFF3B780020002BADD1E2E7C04670
:103B00000C0F0020841500203C150020D815002043
:103B1000F00E0020DC150020C11D00208D300010AB
:103B20005C1200202D490010F0B5DE4657464E4687
:103B30004546E0B58BB001F0DDF8002800D10FE17B
:103B4000C74BC84D9946C84B07AC9B462E68726957
:103B5000EFF3108172B61368002BFCD0BFF35F8FB8
:103B6000B1613000210001F0CFF97269B369BFF390
:103B70005F8F0021116083F31088002800D1EFE0EF
:103B80006378082BE2D84A469B00D3589F46636867
:103B9000002BDBD0A0689847D8E77F222179B24E6E
:103BA0000A405000CB093618F61830000127303093
:103BB000C378BB43C370C3780337BB43C370002AC9
:103BC00000D1F2E0A94AF37C002A06D0A84A127874
:103BD000934200D260E19B1ADBB2002B00D0BFE021
:103BE000A44E62792078A368B047AFE75B46012214
:103BF0001B78012113435A46137033235846D25C75
:103C00005E468A43C254C25C04208243F2540133AC
:103C1000F25C8A43F254F25C8243F254237800202F
:103C20009A4600F005FD602223791A40602A0DD0E3
:103C3000402A00D1BFE0DB06DB0E012B00D136E1CC
:103C4000022B00D1D4E0002B00D1C3E0207800216A
:103C5000FFF75CFE80212078FFF758FE76E7824E62
:103C60003378DB0700D471E7834B002B00D16DE77D
:103C700000E000BF6AE77C4E3378DB0700D465E7DD
:103C80007E4B002B00D161E730780007C00F00E0C9
:103C900000BF5BE7764B754A9846002627781B786D
:103CA000002A00D179E0764A92469E425FD319D12C
:103CB000744B38009847434601361B78F6B2B3423E
:103CC000F3D2694E532200213000FFF71DF8102275
:103CD000FF21F01CFFF718F830002022FF211330DD
:103CE000FFF712F800F09AFC674B002B00D12DE78C
:103CF00000E000BF2AE75E4B5C4A98460026277822
:103D00001B78002A1FD05E4A92469E423AD321D1A8
:103D10005C4B38009847434601361B78F6B2B342F5
:103D2000F3D2514E532200213000FEF7EDFF102256
:103D3000FF21F01CFEF7E8FF30002022FF211330A6
:103D4000FEF7E2FF07E0380000F02EFE43461B7846
:103D5000002BE6D0444E00F061FC2379B370F5E609
:103D60000BB0F0BCBB46B246A946A046F0BD5246D9
:103D70001268730094469B19DB006344002BB1D09A
:103D80005B6896E752461268730094469B19DB0005
:103D90006344002BDED05B68BBE7380000F004FE14
:103DA00043461B78002B9DD18BE762792078A3686E
:103DB00000F052FCCAE63548002800D146E700F082
:103DC00037FC0121504608AA00E000BF002800D0BF
:103DD000BCE63BE7202A00D19EE0002A00D035E770
:103DE0006379092B00D931E7294A9B00D3589F46B4
:103DF0007023217A0B4200D028E758460F330B403E
:103E00005B00CE09C018194F8019C07C002F06D066
:103E1000174F3F78B84200D2A0E0C01BC0B20028C4
:103E200000D096E0002A00D047E11A4F02206279C4
:103E300090468243012A00D142E14246002A00D046
:103E400004E75B449E193036F37806AA9B07DB0F24
:103E5000023213805046022308A900F081FB75E668
:103E600004590010DC150020841500208D3000104E
:103E7000C11D0020A14B0010000000000000000048
:103E80005C120020A94900100000000000000000A2
:103E900028590010905900105A00D318B14ADB007D
:103EA0001268D318002B00D15AE71E6999E6237ACD
:103EB0000F2B00D9CAE6AC4A5B44DB78002A05D058
:103EC000AA4A127893425ED39B1ADBB2002B00D031
:103ED000BCE6A748A74E00F0ABFB01215046F368B3
:103EE00008AA9847002800D030E6602216002379FF
:103EF0001E401A4200D0A9E663790A3B012B00D983
:103F0000A4E600F095FB63790A2B00D120E150462E
:103F100008A900F00DFB19E6237A0F2B00D995E6CE
:103F2000914A5B44DB78002A06D0904A127893428B
:103F300000D2E6E09B1ADBB2002B00D086E68C486C
:103F40008C4E00F075FB01215046F36808AA984793
:103F50003CE70027002A00D168E777E647003818D9
:103F6000804FC0003F683F18002A00D15EE7002F55
:103F700000D16BE6F86800F05BFB01215046FB685E
:103F800008AA984722E7774A5E00F3181668DB0014
:103F9000F618002E00D159E6F0689CE7A27901924C
:103FA00073789A4207D07378002B00D046E1019BCA
:103FB000002B00D0EAE05B46019A504608A95A70EF
:103FC00000F0B6FAC2E5737806AA023213705046C2
:103FD000012308A900F0C4FAB8E5E088030AC0B2DA
:103FE0000F2B00D932E664499A008A58974608A8F0
:103FF00000F024FB5046A179FFF782FB02223378C0
:1040000013433370A2E5E388012B00D01EE608229B
:10401000337893435A46137079E70220317806AB20
:104020009A1C8B068908DB0F01400B4311E7E388DC
:10403000012B00D00AE6082233781343EAE74F4BFE
:10404000002B00D102E600E000BF021E00D1FDE51A
:10405000D37891781B020B43504608A900F080FAF0
:10406000B4E6474B002B00D1F0E500E000BF021E94
:1040700000D1EBE55046137808A900F071FAA5E6E7
:104080002189FFF701FA021EF4D1DFE5022B00D1EE
:1040900012E13C4B002B00D1D8E500E000BF02004C
:1040A000002A00D1D2E5D3E7FFF7E6F91223020098
:1040B00008A9504600F054FA88E62D482D4F5AE7DB
:1040C000E288002A08D142465B449E193036F378D4
:1040D000012A21D09B072ED5002F00D136E5F868A4
:1040E00000F0A6FAFB6808AA012150469847002074
:1040F00000F09EFA34235A46D35CDB0700D525E551
:1041000005E7184A5E00F3181668DB00F618002E63
:1041100000D19BE5F06814E79B07DDD51A4B1878B2
:10412000FFF710FC0222F37893434246F370F378D2
:104130009343F370D0E7144B1878FFF7E7FB0222A4
:10414000F37813430122F370F3781343F370C3E75A
:1041500006AB9A1C5046012308A9167000F000FA1D
:10416000F4E4C0465C1200208D300010C11D002018
:10417000BD4A001090590010505900100000000076
:1041800000000000000000000C0F0020581EC0B20C
:10419000FFF776F9002800D158E543780593022B04
:1041A00000D053E50121C2790700931152110B4051
:1041B0000A4012015B0113435A4612782F318A4399
:1041C00013435A461370C37882781B021343C318F3
:1041D00009370393039BBB4200D8ACE001227B78F4
:1041E00000920B2B03D1FB7800933B78FF187B7870
:1041F000042B00D02AE50026039B584ADB1B9BB208
:104200000293574B04931B78B24263D0B846B34233
:1042100056D800D01AE5534B534F41465046029AA8
:104220009847082803D9029A824200D38AE0049B67
:1042300001361B78F6B2B342E9D207E55046FFF7E4
:104240004FFBB378454A0093454B002698461B78B0
:10425000002A0DD0454FB34225D820D1444B5046BB
:104260009847434601361B78F6B2B342F3D206E0D4
:10427000504600F099FB43461B78002B0FD1532288
:1042800000215846FEF740FD5B461022FF21D81C56
:10429000FEF73AFD2022FF213648FEF735FD5B464A
:1042A000009A9A7083E618233A68734394466344ED
:1042B000002BF4D05B68D2E7FFF7E2F80200EFE6EC
:1042C0002A4B1F6818237343FF18002F00D1BDE449
:1042D000BB68A2E7029B39001A005046984600F0DE
:1042E00079FB082800D8B1E44246824200D2ADE40E
:1042F0001D4B9846009B012B28D000220AE0BB787A
:10430000D318DBB25B44D978FF2900D09EE4013298
:10431000DE70D2B2009B9A42F1D180463300020097
:104320003900144800F06AFD049B47441B78B342EF
:1043300000D34FE78AE4104B002B00D13BE600E0AE
:1043400000BF38E63B0047469846D3E74246054B58
:1043500092689A42D1D1059B0093CEE78D30001030
:10436000C11D0020D5490010905900105C1200209A
:10437000A94900109715002000000000F8B5574625
:104380004E46DE4645460C00E0B516001F00002AEA
:104390003CD0702398461E4B00259B461D4B9A46E9
:1043A0001AE05B461B78200099465346997800F046
:1043B000E9FC00281CD021004846FFF70DFA002830
:1043C00016D0A378DA09012A19D00A9A0135137098
:1043D0002378E418B54219DA6378052B08D1E3781D
:1043E0009B079B0FBB4203D14246A3781A42D8D009
:1043F0000020F0BCBB46B246A946A046F8BD0B9AC9
:10440000013513702378E418B542E5DB0120F0E7AD
:104410000C0F002084150020802310B51B0184B0F0
:1044200001930E4B02901C6803916269EFF31083B5
:1044300072B611680029FCD0BFF35F8FA361200022
:1044400001A900F027FE6269A369BFF35F8F002115
:10445000116083F3108804B010BDC046DC15002045
:10446000702270B58B780C001A4201D0002070BD0C
:10447000064B20001D78064B997800F083FC00283D
:10448000F4D021002800FFF7A7F9F0E70C0F002077
:1044900084150020074B080019687F2310B50340DE
:1044A000C0095B0033301818034B181800F026FCC5
:1044B00010BDC046D815002084150020074B080009
:1044C00019687F2310B50340C0095B00333018180A
:1044D000034B181800F03AFC10BDC046D815002058
:1044E000841500207F2070B508400F4C4000CD0996
:1044F000241864193034E5780020ED0700D570BD2C
:104500000126E578094835430078E570FFF7ECF9B6
:104510000028F4D10122E3789343E370E378033277
:104520009343E370EBE7C046841500200C0F002096
:1045300070B50A4E0500300008220C00FEF7EAFBB9
:1045400000237F21F3602278B36091425B41280011
:10455000D90100220023FFF7C5FF70BD28150020F8
:10456000F8B5CE46474691462A4E80B50822070048
:1045700030000D009846FEF7CDFB4B46B36000239C
:10458000F381EC79A97924020C43231C444500D91A
:1045900043469AB29046B381002C13D0002A1FD014
:1045A0004B46002B34D0131C402A1FD89BB2984690
:1045B00033787F2B20D80021174A43463800FFF775
:1045C00091FF09E07F222B7838009A426441002352
:1045D0000022E101FFF786FFC0BCB946B046F8BD36
:1045E00033787F2B11D980210022E6E740239BB24C
:1045F000984633787F2BDED9074C42464946200047
:10460000FEF788FB80212200D7E700210022D4E7B3
:104610000020E1E7281500204415002010B51422E1
:1046200000210248FEF770FB10BDC046281500208F
:10463000014B18617047C0462815002010B5054C85
:10464000010008222000FEF765FB0023A360E36061
:1046500010BDC04628150020F8B53B4C1D0023783E
:104660000600DA09C9098A4213D00020002D00D0C3
:10467000F8BD364B002B03D021003000FFF79EF829
:104680002369002B44D022000321300098470120E9
:10469000EEE77F2B06D8A068002837D02A002C49E7
:1046A000FEF738FBA368E28959195219E38892B2E0
:1046B000E281A160934214D03F2D12D9A589A81A96
:1046C000071C80B240282FD82378BFB27F2B2DD86B
:1046D0000021AA4235D01E4A3B003000FFF702FFFE
:1046E000C6E72369002B05D022000221300098473D
:1046F00000280FD07F220021237830009A424941C0
:1047000000230022C901FFF7EDFEB1E70020AFE76B
:104710000120ADE700213000FFF7F8F830008021DC
:10472000FFF7F4F80120A3E74027CDE7AA4207D01E
:10473000074C3A002000FEF7EDFA80212200CBE77B
:1047400080210022C8E7C04628150020BD37001090
:104750004415002010B50400FFF75AF9002801D1D4
:10476000002010BDFFF75CF90028F9D1B2208000CD
:10477000444303480019037901201840F1E7C0467B
:1047800060120020B2239B00584310B5024B10303A
:10479000C01800F085FB10BD60120020F0B5B225F6
:1047A000AD0045432C00C646174F1034E41900B540
:1047B000200092B200F0F8FB0600200000F08EFB13
:1047C0003F2803D8300080BCB846F0BD7B190020DC
:1047D000D9789846FFF75EFE0028F3D0200000F05D
:1047E0007DFB3F280AD992239B00EA184346D21941
:1047F000D97800204023FFF775FEE3E74346002009
:10480000D978FFF75BFEDDE760120020F8B5B2252E
:10481000AD0045432C00134E1034A419200000F0C5
:1048200031FD200000F05AFB3F2800D8F8BD771971
:104830000020F978FFF72EFE0028F7D0200000F0C6
:104840004DFB3F2809D992239B00EA18F9784023B1
:1048500092190020FFF746FEE8E7F9780020FFF7FD
:104860002DFEE3E760120020F8B50400FFF7D0F852
:10487000002801D10020F8BDFFF7D2F80028F9D1B7
:10488000B220800044432500144E2435AD19280081
:1048900000F006FB0028EDD037190020B978FFF7AB
:1048A000F9FD0028E6D0A2239B009C466444A4198D
:1048B00021002800402200F077FBB978051E08D0BF
:1048C000030022000020FFF70DFE0028D2D02800B0
:1048D000D1E70020FFF7F2FDCCE7C04660120020D0
:1048E00070B5B224A4004443094B2434E4180500F5
:1048F00092B2200000F012FC0600200000F0D0FA76
:104900003F2801D8300070BD2800FFF7ADFFF9E760
:1049100060120020B2239B00584310B5024B243094
:10492000C01800F0DBFA10BD60120020B222F0B512
:104930001B4C83B0002120009200FEF7E5F9FF2315
:104940006371184B80260025E3800127082321008E
:104950002000760023733200278138310095073B11
:10496000103000F065FA2100200039313200FF31AB
:1049700001230097243000F05BFA8E239B00E61899
:104980003000FCF789FA90239B002662E61830007D
:10499000E561FCF781FA2663656303B0F0BDC046AC
:1049A0006012002000C2FFFF10B5094C0522002153
:1049B0002000FEF7A9F920002434103000F062FC3A
:1049C000200000F05FFC0121200000F07BFC10BD06
:1049D00060120020F0B54B79060083B0022B02D1A3
:1049E0008B79022B03D00025280003B0F0BD304F97
:1049F000BB78002BF7D18B7809253B700C780C190C
:104A00006378242B0BD1082A02D80FE0AA420DD3D9
:104A10002378E418ED186378ADB2242BF6D0052B7B
:104A200021D0042B02D163790A2B2FD0214C2000F6
:104A300000F054FA3F28D7D92600103E0020F17824
:104A4000FFF728FD0028CFD0200000F047FA3F28CC
:104A500017D98E239B00E218F93BF178FF3B002029
:104A6000FFF740FDC0E721003000FFF7F9FC002808
:104A7000B9D0A3787B702378ED18E4186378ADB2D1
:104A8000CFE7F1780020FFF719FDADE70A4B277853
:104A9000019301330093022202233000E119FFF752
:104AA0006DFC00289FD00E35ED19ADB2BEE7C046B3
:104AB000601200207012002062120020F8B56023FE
:104AC00014001278050013400020202B12D12F4A29
:104AD0006379277916781B023B439E420AD163789B
:104AE000222B27D007D8202B17D0212B02D1012928
:104AF0003DD00120F8BD232BFCD101293FD0032953
:104B0000F7D1234B002BF4D0E178A37809020020E1
:104B1000194300E000BF0120ECE7012927D0032959
:104B2000E7D11C4B002BE4D00020911DFEF7B4FA16
:104B30000120DFE7012922D00329DAD101252E0047
:104B4000A378E478023924021C43147126402432ED
:104B50001000714000F0B6FB0F4B002BC9D062086B
:104B6000002031002A4000E000BF0120C2E70723F7
:104B700021002800094AFFF7F3FC0120BAE72100D1
:104B80002800FFF7D5FC0120B4E7C04660120020E2
:104B900000000000993000100000000066120020A4
:104BA000F8B557464E464546DE46E0B5494F804685
:104BB000FA780C001E008A4264D19AB292239B00BC
:104BC000FD1810239B46BB442900584600F0A6FA66
:104BD000414BD946002B18D07B79D946FF2B14D0F6
:104BE000002E12D0AA19924603E0013555450CD08B
:104BF0007B792A789A42F8D1484600F067F9002874
:104C0000F3D1797900E000BFEFE7344B002B04D0FB
:104C1000484600F05BF9002852D0484600F05EF9A3
:104C20003F2834D84A46103A9378A34207D001244B
:104C30002000F0BCBB46B246A946A046F8BD284BB2
:104C4000002B02D0002000E000BF0020FFF70CFE88
:104C50000028ECD1234D280000F022F90028E6D1ED
:104C6000002EE4D0B306E2D1243D4046A978FFF7F8
:104C700011FC041EDBD0002300224046A978FFF778
:104C800031FCD5E7BB788B42D9D00024D0E74D4624
:104C9000103D0020E978FFF7FDFB002801D1AB783B
:104CA000C3E7484600F01AF93F280CD98E2292003B
:104CB00040230020E9784A44FFF714FCAB78B4E7BE
:104CC000FEF75CFBA9E70020E978FFF7F7FBAB787C
:104CD000ABE7C04660120020000000007D330010EA
:104CE000000000008412002010B50020FEF7AAFE8C
:104CF00010BDC04610B5FEF79BFE10BD037870B521
:104D0000DB0704000E00DD0F002B17D103785B07D3
:104D100001D5280070BD01213000494200F0A0FCFF
:104D20002378DB07DD0F002B0AD123785B0708D43B
:104D30000422237801251343237002E00025E8E7CD
:104D40000025300000F06CFCE3E7C04670B50D00B4
:104D5000012104004942280000F082FC23785B070F
:104D6000DE0F002B04DB280000F05AFC300070BD81
:104D70002378DB0704D40422237893432370F2E7DB
:104D80000026F0E710B5437904791B0223435B0545
:104D90005A0DC3789B079B0F022B05D0032B15D010
:104DA0000020012B08D010BD02291CD00020402378
:104DB00093424041C0B2F6E702394B4259410D4B94
:104DC0009C46614491424041C0B2ECE702394B42FB
:104DD0005941F023002049429B0019404031914243
:104DE0004041C0B2DFE7044BD3185A425341D8B216
:104DF000D9E7C046FF03000000FEFFFF8A1870B528
:104E0000914207D27F264C78052C04D00C780919E2
:104E10008A42F8D870BD34008D782C4064000419A3
:104E2000ED0963550C7809198A42ECD8F2E7C046BF
:104E3000F0B5C64600B5040006A80578802088466F
:104E400017001E000002824227D8E068002803D025
:104E50000121494200F004FC2069002803D001210F
:104E6000494200F0FDFB4346236073045B0CED03F5
:104E70001D430023E0686381A780E580238100282B
:104E800001D000F0CDFB20690124002801D000F002
:104E9000C7FB200080BCB846F0BD0024F9E7C0463F
:104EA00010B5048941898288A3B288B28C4207D3A5
:104EB0001B1A9BB2101C9A4200D9181C80B210BD5C
:104EC0005100091A5B189BB2F4E7C0460300008941
:104ED0005B89C01A43425841C0B2704710B504897B
:104EE00041898288A3B288B28C4207D31B1A9BB235
:104EF00000209A4201D9D31A98B210BD5100091A64
:104F00005B189BB2F4E7C04670B5040000690E0060
:104F1000002803D00121494200F0A2FB25896089C5
:104F2000A288A9B283B285422CD3CD1AADB2002D8E
:104F30002ED0AA4208D2914231D38B1A9BB2638100
:104F40009A4203D89B1A9BB29A42FBD9E288216805
:104F50005204520C53433000C918FDF7DBFE61893F
:104F600001254B1C9BB2A288994214D90023520000
:104F70009B1A9BB220696381002801D000F050FB8E
:104F8000280070BD5500ED1A4D19ADB2002DD0D1DD
:104F9000002563899BB252009342EBDBE8E7891856
:104FA0008BB26381CCE7C046F0B546464F46D64645
:104FB000C0B50600006989469046002803D001214B
:104FC000494200F04DFB31897289B5888BB294B2A9
:104FD000914257D31F1BBFB2002F4DD0BD4205D207
:104FE000AB4254D25B199CB22F0074814346B84542
:104FF00040D89FB2A54203D8641BA4B2A542FBD9F6
:10500000F288281B5204530C1900984633686143F8
:105010009C4680B26144874226D94346584383B2B6
:105020001A0048469A46FDF775FE434648467D1BE2
:1050300064195C4331685044A2B2FDF76BFE71897C
:10504000B588CB199BB26A00994217D99B1A9BB2BB
:1050500030697381002801D000F0E2FA3800E0BC2A
:10506000BA46B146A846F0BD424648467A43FDF7E7
:1050700051FEE4E73B1CBCE773899BB26A00934294
:10508000E6DBE3E76F003F1BDF19BFB2A4E75B1B62
:105090009CB2A9E7F8B50400C0680E00002803D050
:1050A0000121494200F0DCFA258920896189A28822
:1050B000ADB283B28FB2884228D3DB1B9BB29A4237
:1050C00009D8E779FF0906D1E068002801D000F08F
:1050D000A7FA3800F8BD2B00954203D39B1A9BB268
:1050E0009342FBD2E28821685204520C5343C81801
:1050F0003100FDF70FFEA2886B1C9BB252009D424F
:1051000009D99B1A9BB201272381DDE75100C91BF6
:105110005B189BB2D3E79342F5DBF2E7F0B54E465E
:105120004546DE465746E0B589460500140083B083
:10513000002A6ED0C068002803D00121494200F047
:105140008FFA2F89EA796B89BFB29BB2D20942D11B
:10515000AE889F4267D27200D31AFB189BB200221E
:1051600090469E4231D9F31A1A1C9BB2A34200D931
:10517000221C93B29846E8884346FB189BB29B4694
:105180003C00B74203D3A41BA4B2B442FBD24004F8
:10519000430C18009A462B6860439C46311B89B229
:1051A000604441454ED35246434649465A43FDF773
:1051B000B1FDAB885B00BB4501D39B4503DB5A4681
:1051C000D31A9BB29B465B462B81E868002822D00D
:1051D00000F026FA1FE0AA889046944226D29F4209
:1051E00044D34146FA1A92B2490012198A4209DBA5
:1051F00042469A1892B2171BBFB29346BB423AD9A5
:105200007F1ABFB2E3199BB246469B46A046E88888
:10521000B6E700239846404603B0F0BCBB46B24612
:10522000A946A046F0BDFB1A9BB298E7E888A21AEF
:105230004404640C54434246A144002AC5D0464667
:105240001F0099E75346594389B20A000191494624
:10525000FDF760FD43469A1B5346A2185A43019935
:10526000286892B24944FDF755FDA2E75100CA1AD9
:10527000BA1892B2B9E7B942C2DD4646E888A046FC
:105280007EE7C04610B50400C068002803D00121A5
:10529000494200F0E5F92069002803D00121494284
:1052A00000F0DEF90023E06863812381002801D04B
:1052B00000F0B6F92069002801D000F0B1F9012012
:1052C00010BDC04670B50400C0680D00002803D0B2
:1052D0000121494200F0C4F92069002803D00121CE
:1052E000494200F0BDF97F21E379ED011940E06802
:1052F0002943E171002801D000F092F920690028CB
:1053000001D000F08DF9012070BDC046F8B5DE4631
:1053100057464E4645468346E0B505200C00FCF74F
:10532000ADFF0600600821008019FDF75BF943001E
:1053300098468044070005214046FDF753F93B1A83
:105340009A46204B8146700080199C4234D81E49F1
:10535000FDF748F9451C5B461C680023E36622689C
:105360000433534006221A4080235B0123431A6012
:105370005346E3614B462362434601204F2B03D93A
:1053800050214046FDF72EF9A0232200E050802353
:10539000E06F7C3245402D045B0113432D0C1D60F2
:1053A000012339003000E366FDF71CF9F0BCBB4671
:1053B000B246A946A046F8BD0449FDF713F9451CBD
:1053C000C9E7C0463F420F008096980040787D01B3
:1053D000104A70B5821A53425A41072352429A43E7
:1053E0000D4B10321A600D4B0D4C1A601500A3685E
:1053F0009D432B1EFAD166240268FF340571D566E1
:105400001460633C8833FF3CD5639563D450FFF749
:105410007DFF70BD100F002000E0004000F0004054
:1054200000C00040F0B557464E464546DE46904621
:105430000022E0B583B01E000CAB1B7884469A4670
:105440000368DA6601325960DA66002E4FDD514694
:105450004A40520201928022914632008025771EF6
:105460000020464610219046AD000024002804D1BB
:1054700062461479621E9441A40200229346B84207
:105480001AD0325C22435C4622431A615A6B1142A5
:10549000FCD04A469C58002C11D1B84222D0013091
:1054A0008045E2D1634652461A7103B0F0BCBB4658
:1054B000B246A946A046F0BD019A9346E1E75A6D6F
:1054C000012293465A6B2A42FCD01A6E5A46002A91
:1054D000E5D0002C03D0E30701D42307E2D4022057
:1054E0004042DFE75246002AD9D1D346EAE70020FE
:1054F000D8E7C046F0B54546DE4657464E46934689
:105500000022E0B51D0009AB1B7804009846036833
:10551000DA6601325960DA66002D3EDD41464A40C6
:105520005202944680220020520091466F1E803A1B
:10553000596F1029FCD0002826D000268021B246C1
:105540004900B84212D0196102E0996F002913D1C5
:105550009958596D0029F8D00220404243462371E2
:10556000F0BCBB46B246A946A046F0BD66465146D1
:1055700031434E463143E6E759461B690B5401302F
:105580008542EBD02368D3E721790029D5D0802646
:10559000A021F600B246C900D3E70020DEE7C046EE
:1055A00010B583070AD00300032102E001330B4248
:1055B00005D01A78002AF9D1181A10BD030019680D
:1055C0000C4A0D4C8A188A4322420FD15968094A65
:1055D00004338A188A43224208D15968054A0433A1
:1055E0008A188A432242F1D000E001331A78002A57
:1055F000FBD1E1E7FFFEFEFE80808080F8B5C0466B
:1056000001B40248844601BC604700BFF90900208C
:1056100001B40248844601BC604700BFD1020020AB
:1056200001B40248844601BC604700BF310200203B
:1056300001B40248844601BC604700BFA10D0020B0
:1056400001B40248844601BC604700BFA10D0020A0
:1056500001B40248844601BC604700BFC10000207D
:1056600001B40248844601BC604700BFA10100208C
:1056700001B40248844601BC604700BF0501002018
:1056800001B40248844601BC604700BFD109002034
:1056900001B40248844601BC604700BF750B00207E
:1056A00001B40248844601BC604700BF110B0020D2
:1056B00001B40248844601BC604700BF1D0B0020B6
:1056C00001B40248844601BC604700BF9503002036
:1056D000C50D0A00C30D0A004E6F207370696E6C11
:1056E0006F636B732061726520617661696C6162C2
:1056F0006C6500004E6F20757365722049525173BE
:105700002061726520617661696C61626C65000080
:10571000486172647761726520616C61726D2025E9
:105720006420616C726561647920636C61696D6588
:10573000640000000A2A2A2A2050414E4943202AA8
:105740002A2A0A000A00000048617264206173730B
:105750006572740052656C6561736500626F6F7489
:10576000325F77323571303830000000312E352EFF
:10577000310000007069636F00000000686F73748F
:10578000000000004A756E20323220323032340080
:1057900006005250BBFF3CB6745700100600525032
:1057A000E182887F5C57001006005250D3F07542AA
:1057B000545700100D0A0000ED2F0010F12F0010BB
:1057C000FD2F0010293000102530001000000000CF
:1057D00055534220737464696E202F207374646F74
:1057E000757400000600525053B4F4A1D057001055
:1057F0005261737062657272792050690000000016
:105800005069636F00000000426F6172642043447E
:1058100043000000526573657400000009025400E3
:10582000030100807D080B00020202000009040051
:1058300000010202000405240020010524010001EA
:105840000424020205240600010705810308001054
:1058500009040100020A00000007050202400000DE
:10586000070582024000000904020000FF00010554
:1058700012010002EF0201408A2E0A00000101021B
:105880000301000000000000F05700100058001055
:10589000B01D00200858001014580010556E6861A3
:1058A0006E646C65642049525120307825780A0076
:1058B00065702025642025732077617320616C72E8
:1058C0006561647920617661696C61626C65000074
:1058D00043616E277420636F6E74696E75652078FE
:1058E000666572206F6E20696E61637469766520EB
:1058F0006570202564202573000000006F7574001A
:10590000696E00004C3B0010F63C0010943C001007
:105910004C3B0010763C00105E3C0010EC3B00104D
:105920009A3B00108E3B00101A40001006400010F9
:105930004C3C00102E4000104C3C0010EE3F00107C
:10594000DA3F00104C3C0010C63F00109C3F001096
:105950004C3C0010A84000108C400010804000100B
:105960004C3C00104C3C0010624000108C40001079
:105970004C3C00104C3C00104C3C00104C3C0010C7
:105980004C3C00104C3C00104C3C00103E400010C1
:105990002D490010A9490010D5490010BD4A00103A
:0859A000A14B00100000000003
:1059A800AC020010A00200109402001090570010E2
:1059B800880200109C570010A8570010E4570010E8
:1059C80003000068EFF3108C72B60268002AFCD05E
:1059D800BFF35F8F04229A56002A0BDB00290FD0F1
:1059E80000200A601B68BFF35F8F00221A608CF3E7
:1059F80010887047D0221206126801201A71F1E748
:105A08000020EFE7F0B5C646150000B504001E00FB
:105A18000268EFF3108172B61368002BFCD0BFF355
:105A28005F8F0423E356002B2DDB2268BFF35F8FC3
:105A38000020106081F31088D0221206127852B22A
:105A480090469A4203D1002080BCB846F0BD00279A
:105A58000BE02368BFF35F8F1F6081F31088280075
:105A6800310000F049FE0028EDD12268EFF31081E3
:105A780072B61368002BFCD0BFF35F8F23797F2B9E
:105A8800E7D9434602E0D0231B061B68237123682D
:105A9800BFF35F8F00221A6081F310880120D3E7DB
:105AA800F0B5C64600B50D00040000F00DFEFA2260
:105AB80006000F00002328000021920000F0FCFDE2
:105AC80036184F41002F2CDBD0231B061B680025FE
