:020000041000EA
:1000000000B5324B212058609868022188439860DF
:10001000D860186158612E4B002199600221596106
:100020000121F02299502B49196001219960352056
:1000300000F044F80222904214D00621196600F024
:1000400034F8196E01211966002018661A6600F04E
:100050002CF8196E196E196E052000F02FF8012189
:100060000842F9D1002199601B49196000215960AB
:100070001A491B48016001219960EB211966A021F2
:10008000196600F012F800219960164914480160C1
:100090000121996001BC002800D000471248134993
:1000A000086003C880F30888084703B5996A0420EC
:1000B0000142FBD001200142F8D103BD02B5186610
:1000C0001866FFF7F2FF186E186E02BD00000240BE
:1000D000000000180000070000035F00212200005C
:1000E000F4000018222000A00001001008ED00E03C
:1000F00000000000000000000000000074B24E7A12
:1001000000200420F7010010C3010010C5010010F9
:10011000C1010010C1010010C1010010C101001097
:10012000C1010010C1010010C1010010C701001081
:10013000C1010010C1010010C9010010CB01001065
:10014000CD010010CD010010CD010010CD01001037
:10015000CD010010CD010010CD010010CD01001027
:10016000CD010010CD010010CD010010CD01001017
:10017000CD010010CD010010CD010010CD01001007
:10018000CD010010CD010010CD010010CD010010F7
:10019000CD010010CD010010CD010010CD010010E7
:1001A000CD010010CD010010CD010010CD010010D7
:1001B000CD010010CD010010CD010010CD010010C7
:1001C00000BE00BE00BE00BE00BE00BEEFF3058054
:1001D000103800BEF2EB88713062001050620010DF
:1001E0003802001090A31AE71E481F49086006C88D
:1001F00081F3088810471D480068002801D019487D
:10020000F3E70DA40ECC002902D000F012F8F9E7B4
:100210001749184A002000E001C19142FCD116495B
:100220008847164988471649884700BEFDE701C937
:1002300001C29A42FBD3704750620010C0000020F8
:10024000401A0020D07B0010000004200000042091
:10025000D07B0010001004200010042000000000DB
:10026000704700000000000008ED00E0000000D032
:10027000401A0020142A0020DD280010DD030010A1
:10028000D5280010F8B5C04610B5064C2378002BD1
:1002900007D1054B002B02D0044800E000BF01232A
:1002A000237010BD181E0020000000006C5D0010BF
:1002B000044B10B5002B03D00349044800E000BFF5
:1002C00010BDC046000000001C1E00206C5D001028
:1002D000F8B54746CE460D0080B50700002933D05B
:1002E000204B214C984604E001200021404203F0BD
:1002F0006FFA002004F02EF90028F5D00200A84281
:1003000000D92A003900002004F002F984460028B0
:1003100011D0434600269E5F0D23202299463900C6
:100320003F180878864216D0A3691A42FCD10131E1
:1003300020608F42F5D10120634600214042ED1A32
:1003400003F046FA002DD4D1002004F0A5F8C0BC7B
:10035000B946B046F8BDA3691A42FCD14B462360AA
:10036000E2E7C046F429002000400340F0B591B018
:1003700040226946002004F045F8002821D0D0230F
:1003800080221B0692045A61124B06000027DF5F91
:100390000D236C4620219C460F4A6E442578AF42BF
:1003A00011D093691942FCD101341560B442F5D1E2
:1003B000C1B2684600F09AFBD02380221B0692044B
:1003C0009A6111B0F0BD93691942FCD16346136084
:1003D000E7E7C046F42900200040034070B502F072
:1003E0008DFB192000F002FCD0248023E12124069B
:1003F0009B0463624902344801F0A6FB02211020ED
:1004000000F0DAFB0221112000F0D6FB142000F0EE
:10041000EDFB80235B0363621520A36100F0E6FB24
:1004200080239B0363620220A36100F0DFFB0423AF
:1004300003206362636100F0D9FB08230025636237
:1004400000216361002004F079FB204C0120002191
:10045000404203F0BDF901F043FB00292BD0FA2202
:100460000023920001F00EFFFA22431B5200934238
:1004700008D3D02380221B065968920411421FD151
:1004800005005A614923E35C002BDFD001F028FB13
:1004900022686368121A8B41002BD7DC01D1002A35
:1004A000D4D148232000E15C0830FFF711FF492335
:1004B0000022E254CAE7FA21890001F0A5FED3E741
:1004C00005009A61DEE7C04600400340401A002064
:1004D000436910B51A6801239340D0221206936134
:1004E00001F0A6FA002010BDF0B5437802788578B7
:1004F000C178067985B0522B32D00024572B04D016
:10050000200002F093F905B0F0BDDA2AF8D1032DEE
:10051000F6D1012900D11AE2022900D13BE20A29D1
:1005200000D104E2032002F06FF9E04B04001A88C6
:1005300002809B78837001F0D3FA0023DC4A121802
:100540004B41002B00DAD3E1DA4D210028000CC02A
:10055000032202F07DF904224823FF32EA52CFE75A
:10056000FA2A08D00024DA2ACAD10D2DDAD8D24BC3
:10057000AD005B599F461B2903D8D04B89005B58BF
:100580009F460024BCE70720012900D139E202F090
:100590003BF90400CA4B01361A68F6B202609A8829
:1005A00082809B798371E670267101F099FA0023AD
:1005B000BF4A12184B41002B00DAB4E1BD4D2100B7
:1005C00028000CC0072202F043F908224823FF321A
:1005D000EA5295E7092002F017F902000400B94B2E
:1005E00003CB03C21B781370E67026716671A67187
:1005F00001F076FA0023AE4A12184B41002B00DAC4
:10060000F0E1AC4D210028000CC0092202F020F9D5
:100610000A224823FF32EA5272E70B2002F0F4F874
:100620000200A94B040003CB03C2198811809B78F8
:1006300093700923637001F053FA00239C4A121847
:100640004B41002B00DA2CE19A4D210028000CC010
:100650000B2202F0FDF80C224823FF32EA524FE74A
:100660000B2002F0D1F80200974B040003CB03C229
:10067000198811809B7893700423DBE70B2002F02C
:10068000C3F80200904B040003CB03C21988118009
:100690009B7893700623CDE70B2002F0B5F802009B
:1006A000894B040003CB03C2198811809B78937097
:1006B0000523BFE70B2002F0A7F80200824B0400DD
:1006C00003CB03C2198811809B7893700723B1E78D
:1006D000082002F099F802007C4B040003CB03C20F
:1006E0000223637001F0FCF90023714A12184B4198
:1006F000002B00DA81E16F4D210028000CC0082298
:1007000002F0A6F8842248235200EA52F8E60B20B1
:1007100002F07AF802006C4B040003CB03C2198884
:1007200011809B789370012384E70B2002F06CF812
:100730000200654B040003CB03C2198811809B782B
:100740009370032376E7042002F05EF8604B040008
:100750001B6803600223437001F0C2F90023544A6E
:1007600080185941002900DA26E1524B22681860AE
:10077000596082219A60482249009952C0E642207D
:1007800002F042F804004222524902F061F865701A
:1007900001F0A6F90023464A12184B41002B00DA5B
:1007A00002E1444D210028000CC0402202F050F824
:1007B000A12248235200EA52A2E6072002F024F8C0
:1007C0000400454B1A6822609A88A2809B79657064
:1007D000A371EAE60B2002F017F802003F4B040079
:1007E00003CB03C2198811809B789370002321E703
:1007F000062002F009F80400394B1A6822609B8831
:100800006570A38001F06CF90023294A12184B414E
:10081000002B00DABBE0274D210028000CC0062287
:1008200002F016F8832248235200EA5268E60D20AF
:1008300001F0EAFF0400002E5ED10200294B83CBB9
:1008400083C21B78137030366570A67201F048F9C8
:100850000023174A12184B41002B00DAA8E0154D6F
:10086000210028000CC00D2201F0F2FF0E224823C7
:10087000FF32EA5244E6012E00D1A1E0022E00D15F
:10088000CAE0032E00D1D8E0042E00D1E6E0002417
:10089000052E00D034E6072001F0B6FF124B04000D
:1008A00090E70122114B5242CEE6C046D410002000
:1008B00050C30000401A00206C5D0010A45D0010C1
:1008C000F80F0020E40F0020D00F0020DC0F0020E4
:1008D0003810002088100020E01000205C1000205C
:1008E000D81000204C100020C00F0020FFFFFF7F19
:1008F00001226E4B524227E6012E77D0022E00D104
:10090000A5E0032E00D1BBE0042E00D1BFE0052EF0
:1009100000D1C3E0062E96D10200654B83CB83C283
:100920001B7813708FE70122604B524246E6D023BA
:1009300004221B06012E00D19AE0022E00D193E082
:10094000002E00D198E05A6104325A61EAE5D023C2
:1009500080221B0652035A611423564C26712360D1
:1009600000F058FEFA220500642000237043920034
:10097000002101F0E7FE0B002100083102914E49F1
:10098000020001942800009100F0C2FFCAE5012294
:10099000464B52423FE7D0238022484C1B0692032D
:1009A0005A6115232671DAE70122404B5242F8E6DC
:1009B00001223E4B524252E701203C494042D4E6DC
:1009C000092001F021FF02003D4B040003CB03C2CC
:1009D0001B7813700023E3703A4B6570A3800423E7
:1009E000A37105E60122314B52420AE60200364B62
:1009F00083CB83C21B78137025E701222B4B524215
:100A000079E601F001FF314B04001A6802609A8810
:100A100082809B798371C6E5072001F0F5FE2C4B9F
:100A200004001A6802609A8882809B7945708371FD
:100A30000023C3708A330371B7E5082001F0E4FE98
:100A400004000200234B03CB03C265704AE6020098
:100A5000214B83CB83C21B781370F4E6062001F090
:100A6000D3FE1E4B0400C8E69A6104325A6159E570
:100A70005A6104329A6155E59A6104329A6151E5EE
:100A80000200174B83CB83C21B781370DBE6020096
:100A9000144B83CB83C21B781370D4E60200124B35
:100AA00083CB83C21B781370CDE6C046FFFFFF7F68
:100AB0003C100020F8100020D10400101811002074
:100AC000E81000200203000010100020F00F0020AA
:100AD000CC1000203010002020100020C80F002073
:100AE000001000206810002078100020F8B5CE46D5
:100AF000474680B500291ED00139431CCDB2ED1800
:100B00002A4B040098462A4E32782378002A09D0CE
:100B1000012A48D00023274F013433703B70A5428F
:100B200009D023782022190091430022DA2906D027
:100B30000134A542E9D1C0BCB946B046F8BD1D4F4D
:100B40001A49013201343A700B703270AC42F2D063
:100B5000237820218C461F39894618006146884336
:100B6000DA2815D039783F29E2D8481CC0B284462B
:100B70003870404643546346052BD9D10521FFF711
:100B8000B3FC0023013433703B70A542C9D1D2E7D6
:100B90004946397041460B704B4601343370A542CB
:100BA000C9D02378D9E7034FD3E7C046A429002052
:100BB0000D2A0020122A002010B54024084A830084
:100BC0009A181268C0005440C0222240054CA44626
:100BD00063441A60044B9C466044416010BDC046AB
:100BE00004C0014004D00140004001400123D02254
:100BF00083404021120693629361094A83009A1848
:100C00001268C0005140C0220A4006498C46634425
:100C10001A60054B9C460523604443607047C046FC
:100C200004C0014004D00140004001408023DB05A6
:100C30001868000F7047C0460FB400B5084883B06D
:100C400001F0ACFF049B002B07D005A9180001910F
:100C500001F00CFE034801F0A1FF012001F01EFE8F
:100C6000145E0010245E001070B5EFF3108C72B6A5
:100C70000D4D2B68002BFCD0BFF35F8F0724CB08F2
:100C8000C618C05C01230C40A3401C000440034272
:100C900007D103433370BFF35F8F2C608CF3108850
:100CA00070BD1000FFF7C8FF2C0100D0F8B5474613
:100CB000CE46884680B5EFF3108C72B6214D2C6875
:100CC000002CFCD0BFF35F8F9A422CD8D4080727A2
:100CD000055D061901241740BC402C421FD0072196
:100CE0000127894609E0D408055D06194C463900FC
:100CF0001440A1400C00294211D001329342F2D29B
:100D000001204042BFF35F8F00220E4B1A608CF32C
:100D1000108800280FDBC0BCB946B046F8BD2C4394
:100D200010003470EEE7BFF35F8F00232B608CF36D
:100D30001088012040424346002BECD00898FFF772
:100D40007BFFC0462C0100D0044A1078431CDBB264
:100D5000172B00D9102313707047C046381100209C
:100D600000B5054B83B00100009318221F230348F0
:100D7000FFF79CFF03B000BD285E00100C2500208B
:100D80000021044B044ABFF35F8F02C39342FAD1A0
:100D90007047C046000100D0800100D0054B064AD4
:100DA0001360064A136053609360D360136153610C
:100DB000936170478080808000E400E004E400E0FC
:100DC0001F2318401E3B8340002905D0C021044A40
:100DD0004900535013607047802201498B50FAE755
:100DE00000E100E001228240034B1B6813405A1EC1
:100DF0009341D8B27047C04600E100E00123834030
:100E0000014A13607047C04600E200E0064B103014
:100E10009B688000C358054A00209B1A2F229A42E3
:100E20004041C0B27047C04600ED00E03C110020D8
:100E300070B50D00EFF3108672B60F4A1368002BE1
:100E4000FCD0BFF35F8F0D4B10309B6884001B59A3
:100E50000B4A934203D09D4201D001F0F7F8074BB3
:100E60009B681D51BFF35F8FBFF35F8F0022024B62
:100E70001A6086F3108870BD240100D000ED00E0F8
:100E8000CD010010F0B557464E46DE464546E0B56A
:100E900085B0060002911700EFF3108B72B6674A17
:100EA0001368002BFCD0BFF35F8F0025644B5D57A8
:100EB0009A46002D00DAA4E06B00624C03935B19A4
:100EC0009B009846A146C1444B4652469B7910363A
:100ED00013705D4BB2009B68019299580B1B2F2B2E
:100EE00034D95A4B994200D0A4E0039B584A9C46FF
:100EF000584B6544AD006353434602336519E4180B
:100F0000554B0121043B1B1B1B055B0D13436B80E1
:100F1000524BEF71AB80FF23AB71029BAB604B4632
:100F20000B431900484B019A9B689950BFF35F8FA0
:100F3000BFF35F8F0022414B1A608BF3108805B01E
:100F4000F0BCBB46B246A946A046F0BD01200A004F
:100F50008243D379BB422FD845464E4613004049C1
:100F60001B1B5B415943090D3A4B63533A4B023506
:100F70006519043B5B1B1B05354D5B0D2B437380D3
:100F80000426B446E0444444131F1B1B4C46A17185
:100F900002991B05A16049465B0D2B43A380314B91
:100FA000E77101431360BDE75800C01880002018A6
:100FB000C679BE422BD902000623D356002BF3DAA2
:100FC000101D82462848804604267642B446E144F5
:100FD00050464E46361A3005400D824656461C484D
:100FE000957106439680039A944665441D4AAD0068
:100FF000641922604246A371029BA280E771A3603C
:1010000090E701F023F8002553465D5754E7101D83
:10101000824690884005001584464046D444664682
:1010200004302018301AE0260005400D3602304307
:101030008046C9E701F00AF857E7C046240100D00E
:101040000E2A00203C11002000ED00E0CD01001030
:1010500000E0FFFF00A1FFFF6C11002001BDFFFFBA
:10106000AAAA00000148804701BD000070B5012414
:101070000443EFF30581EFF3108C72B6214A136835
:10108000002BFCD0BFF35F8F1F4B05001F4AED1AEA
:101090006D416A43120D1E4D8900AE6852B27658FA
:1010A000A6421CD00621595691421CD012215956F5
:1010B000914222D01E215956914220D02A215956C0
:1010C0000324914210D0134B19781A708171BFF329
:1010D0005F8F00220B4B1A608CF3108870BDAB68D9
:1010E0000D4C5C50EFE700246100091989005B1882
:1010F000FF21997109499980E5E70124F4E7022469
:10110000F2E7C046240100D03C110020AAAA00004A
:1011100000ED00E00E2A0020CD01001001BDFFFF10
:1011200000B5074B83B0010000930022052305485A
:10113000FFF7BCFD002801DB1F23181A03B000BD18
:10114000445E0010132A0020024B9C466144890033
:101150000160704740000034F8B5134D134E2C0069
:10116000FF27B5421ED22368002B0FD0FFF7ECFDFE
:1011700001002800FFF7E8FFA780BFF35F8F083466
:10118000B4420FD223682500002BEFD1FFF7DCFD1E
:1011900001002800FFF7D8FF2771BFF35F8F0834E5
:1011A000B442EFD3F8BDC046381A0020401A0020E0
:1011B00010B50400FFF7C8FD01002000FFF7C4FFD1
:1011C000FF232371BFF35F8F10BDC04610B504002D
:1011D0000120FFF7C5FD044B9C4660448000206061
:1011E000BFF35F8F10BDC04640000034034B9C46E8
:1011F000614489000160BFF35F8F70474000003495
:101200000A4B1968EFF3108072B60A68002AFCD006
:10121000BFF35F8F1B68BFF35F8F00221A6080F3FC
:10122000108840BF002000217047C046E8290020F8
:10123000F0B5DE4657464E464546E0B585B0EFF37D
:101240000582032313409A0011000392B64A5258B4
:10125000904601229A409146B44B1A604B46B448DE
:101260004363434608229B5E9A46002B3DDA434681
:101270009B881BB2002B00DBA1E043469B79002B2F
:1012800000D0F3E0434608241C5F002C23DB4246D9
:101290005269630094461B19DB0063449C68DD6857
:1012A000631C00D10FE1A248039984466144826A1D
:1012B0000B69A61A9B1A9E4215D34A46036A1A4224
:1012C00011D09B4800F004FC241A8D41002D02DC53
:1012D000C4D1002CC2D040BF05B0F0BCBB46B24662
:1012E000A946A046F0BD0C61EBE7424652695B009F
:1012F00093465344DB009B445B469E68DF6800F0E6
:10130000E7FB801BB9410029B1DB002F00DAE5E0E3
:101310005B46884A1B69934200D1D8E041465A4651
:101320000820085E5288000410435A4651699847C5
:1013300004000D0023002B4300D1CFE0002D00DB83
:10134000E8E0361BAF4134003D005B469C60DD6049
:101350000021595E002900DA89E743465B692200D3
:101360009C462B0048004018C00060448668C7684F
:10137000921BBB41002B00DA79E743466646020028
:101380000094019519810CE07B00DB19DB00F31858
:10139000009801999C68DD68001BA941002904DBC5
:1013A0001A000023D75E002FEEDA5B461F805346FB
:1013B000138043469B881BB2002B00DA5DE743464F
:1013C0001A69EFF3108172B61368002BFCD0BFF3DB
:1013D0005F8F43469B8842461BB29A4601235B427D
:1013E00093801369BFF35F8F00221A6081F3108826
:1013F0005346002B00DA40E743465B699C460823CE
:1014000043449B4653465F0043465744FF0008222F
:101410009A5E67445E46BC68FD68002A19DB3B00A3
:101420000094019567469C4604E01E000023F25E8E
:10143000002A0BDB0098019953009B18DB00FB1876
:101440009C68DD68001BA9410029EEDA6346BC46B2
:101450001F005346338000217B5E3A809A46002B62
:10146000D0DA43469B79002B00D10BE7002342469C
:101470009371434646460821595E08364B1C00D1FD
:1014800029E747468C46556902E006004B1C17D0F9
:101490004B005B18DB00E8180A00E95E43881BB2CA
:1014A000002BF2DA01235B42DC178360C4606245E3
:1014B000ECD031803B89944603803A814B1CE7D1C4
:1014C000B8466446E1E66B1C00D0ECE6F9E65B4604
:1014D0005C69200023699847002821D15B46424679
:1014E0001B8813811269EFF3108372B6116800290B
:1014F000FCD0BFF35F8F4246594652880A8042466D
:10150000514651801269BFF35F8F0021116083F350
:101510001088ACE6064800F0DBFA24184D4114E7C9
:101520006568246806E7C0468C2900203C700540A9
:10153000004005403112001070B52E4C2569002D79
:1015400004D00A212C48FFF7FFFD70BD2B4E03216C
:10155000300000F0B3FAE660FFF7F6FB284B0322F9
:101560009C46D02322701B061B6801216370254B0B
:101570006044A3600F2380002061022063806369C0
:101580004942A18019800231198647311D83585282
:1015900018315A5275325C399952183201319952C8
:1015A00018320131995218320131995208351832E6
:1015B0009D52023118329952183201319952183223
:1015C0000131995218320131995218320131995230
:1015D0001832013199520C4B0C49DC6001303562F4
:1015E000FFF726FC01210320FFF7EAFB084B1D60F3
:1015F000A7E7C04684110020E829002000400540EC
:1016000040000034FFFF10008C2900203112001030
:10161000386005400048704784110020F8B51F006D
:1016200008AB1B7804001600002B07D100F058FA15
:1016300032003B00121A8B41002B4CDB2269EFF386
:10164000108072B61368002BFCD0BFF35F8F626905
:101650000223E15E94464B005B18DB0063440029E3
:1016600001DB1A8862802269BFF35F8F0025156055
:1016700080F31088002930DB069A9E60DF601A61D3
:10168000079A5A615A8801325204520C161C002AD9
:101690001FD0B0B20A045E8010432669EFF31085B4
:1016A00072B63268002AFCD0BFF35F8FA2881A801E
:1016B000A1802369BFF35F8F00221A6085F3108831
:1016C000074923788C4601329A40E36863441A60E4
:1016D000F8BD0126DDE70020FAE701204042F7E7E8
:1016E0003C20000070B5C646010000B50469EFF368
:1016F000108C72B620680028FCD0BFF35F8F0220E8
:101700000D5E48696C0080466419E4004444002D75
:1017100001DB208848800869BFF35F8F00260660E0
:101720008CF31088002D30DBE3606388059801336B
:1017300020615B0406985B0CA26060611A1C002BA0
:1017400021D090B22B04628018430A69EFF310860F
:1017500072B61368002BFCD0BFF35F8F8B88238099
:101760008D800B69BFF35F8F00221A6086F31088AB
:101770000B7801329A40CB6805498C4663441A6065
:1017800040BCB04670BD0122DBE701204042F7E7D4
:101790003C20000010B543890A14934233DD530006
:1017A0009B184269DB00944604696344EFF3108C94
:1017B00072B62268002AFCD0BFF35F8F5A880904F2
:1017C00094B2090C8A4208D00369BFF35F8F0022EC
:1017D0001A608CF31088002010BD8022120214437E
:1017E0005C80012302698371BFF35F8F0021116068
:1017F0008CF31088054902788C469340C26801201A
:1018000062441360E8E70020E6E7C0463C200000A1
:1018100040787047F0B5CE46474680B504000D00CD
:1018200083B0EFF30587002F0DD0364A0020536AAE
:101830008B4203D3926A0130A24250D303B0C0BCA2
:10184000B946B046F0BD304B9846DB6899464346F2
:1018500048461E7800F03CF90B0049460200043669
:10186000B600715820008E1A2900801A99418F42C3
:1018700011DC0ED020BF234A0020536AAB42DDD3D7
:10188000926A0130A242D9D2E81A421E9041C0B2F7
:10189000D4E78642EED900F023F922002B00121A79
:1018A0008B41002B20DB00230193184B2200009377
:1018B00040462B00FFF716FF011E15DD114B2E00D1
:1018C0005A6A95421CD89B6AA34217D34046FFF739
:1018D00061FF0C4A0020536A9E42AFD8D0E7581AE5
:1018E000421E9041C0B2A9E7064A0020536AAB42AB
:1018F000A4D3926A0120A242A0D2C5E79542E5D1C5
:1019000020BFE3E7004005408411002001120010D1
:10191000F0B5CE464746110080B583B004009C4622
:101920000C9D194300D16DE06146DB1701930093D4
:1019300053401E00019B4B401F0000980199361A2E
:101940008F4163460A996B600B9BAC6029612A60EA
:101950006B6100F0C5F836184F41002F00DA59E0EE
:101960002269EFF3108972B61368002BFCD0BFF325
:101970005F8F62690223E15E94464B005B18DB00D7
:101980006344002901DB1A88628022699046BFF314
:101990005F8F00224046026089F3108800293DDBFA
:1019A000204A9E60DF601A615A885D6101325204EC
:1019B000520C101C002A2BD082B25880080402431B
:1019C0002669EFF3108772B630680028FCD0BFF3A9
:1019D0005F8FA0881880A1802369BFF35F8F0021EB
:1019E000196087F3108810482378844601319940A4
:1019F0000120E36863441960EA6003B0C0BCB946E3
:101A0000B046F0BD00230126002701229C4698E73E
:101A10000120D1E70126054F7642A1E701220020EF
:101A20005242E9E7311200103C200000FFFFFF7F27
:101A3000C268030070B50020002A00D170BD99680B
:101A400014144D89AC421BDA600000194C69C000C7
:101A5000A4460E696044EFF3108572B63468002C1A
:101A6000FCD0BFF35F8F44881204120CA2420AD04C
:101A70000A69BFF35F8F0021116085F31088002091
:101A80000022DA60DAE78024240222434280012225
:101A900008698A71BFF35F8F0024046085F31088A2
:101AA0000878C96882400448844661440A6000227C
:101AB0000120DA60C2E7C0463C20000010B5024AAF
:101AC0000248FFF7D1F810BD605E0010102500201D
:101AD0000300416A0A00986A596A8A42FAD170473B
:101AE000034B596A0A00986A596A9142FAD17047C1
:101AF0000040054070B504000D00124A536A1900F9
:101B0000966A536A8B42FAD13000190024184D416D
:101B1000AB4211D80ED02B000A494A6A9A42FCD334
:101B200007D1084A02E0516A994202D1916AA14262
:101B3000F9D370BDA642EED9012301246442E51712
:101B40005B42E9E700400540F8B5040006200D00BF
:101B500000F076F9002842D0364B3749E21853425C
:101B60005A418023DB039C469205344B62441A6041
:101B7000334B1A6010000B689843FBD12D4B80212A
:101B8000E3185A4253412F4A5B00490099520620FC
:101B900000F056F92900C00000F036FB0130C309FF
:101BA0001ED1402701226262A362266BF30722D472
:101BB000E36A254B0620E51800232B60266300F01E
:101BC0003FF93900800000F01FFB7022E36A5A40A1
:101BD0007E2313402B601D4B23630323A364F8BDB6
:101BE0001B4A93421ED900231A4A1B4F6262A3620A
:101BF000266BF307DCD5194B144AE3181A60656AA3
:101C0000A26A0620AD01AD1800F01AF9144900F0DF
:101C1000FBFAAD020100280000F0F6FA0021FFF700
:101C200069FFC5E74006800E9F011A003F180300B8
:101C3000B9E7C0460080FCBF08C0004000E000409B
:101C400000F00040F42900202C10000001030000E7
:101C5000FEFF0000FFFF0000C0FF3F00303000002B
:101C60004E0E0000F8B5DE464E4657464546E0B5F6
:101C70008B4605000A991800160000F0C5FA0A9B69
:101C80006C001F02324B64199C46A40064446368D4
:101C900081469F4200D967602B1FDBB29846012B1B
:101CA00030D9C02380229B01E31812011A60294B0E
:101CB000AD0059599A4600291BD12268760172401D
:101CC000E0268023164042465B01E3181E60012A8D
:101CD00030D9802380229B01E31812011A605346F9
:101CE0004A4667605A51F0BCBB46B246A946A04678
:101CF000F8BD586900F088FA431C5800C018033832
:101D0000FDD2DAE75B46012BCBD1C02303229B0136
:101D1000E3181A60023AA3681A42FCD0E023226852
:101D2000760156401E4080230A4A5B019246E31822
:101D30001E60AD005A462168514003220A401A60D5
:101D400001225B469A40A3681A42FCD0C1E7C04614
:101D50000080004014250020F0B546464F46D64688
:101D6000C0B51F00344B44009C462418A4006444B2
:101D7000636888461600FF2B02D880235B006360EF
:101D8000031FDBB29A46012B30D9C02380229B016E
:101D9000E31812011A60294B850059599946002908
:101DA0001BD1226876017240E026802316405246FD
:101DB0005B01E3181E60012A30D9802380229B0139
:101DC000E31812011A6080235B0063604B465F5189
:101DD000E0BCBA46B146A846F0BD586900F014FA16
:101DE000431C5800C0180338FDD2DAE74346012BE4
:101DF000CBD1C02303229B01E3181A60023AA368E7
:101E00001A42FCD0E0232268760156401E4080230F
:101E10000A4A5B019146E3181E608500424621682C
:101E2000514003220A401A60012342469340A268AF
:101E30001342FCD0C1E7C0460080004014250020BA
:101E4000014B8000C058704714250020F8B50400ED
:101E500020481D0017000E0000F0D6F901003800E0
:101E600000F0D2F9069B29041B0319432368002BB9
:101E70001EDB194B194DE21853425A4180235B0176
:101E80009C461203164B62441A60164B1A601700E8
:101E90002B689F43FBD1144B2660E2182123A060DE
:101EA00013602368002BFCDA0823E1601360F8BD9F
:101EB0003F2322681340B342DBD1A3681B051B0DEF
:101EC0008342D6D1EE22E368D20213408B42D0D1B6
:101ED000EDE7C046001BB7000040FDBF08C0004052
:101EE00000E0004000F000400430000010B5140095
:101EF00080221B4BD2051A6000281AD00123194AF0
:101F00001843194BDA61194A42401A6259629862C1
:101F10008022134BD2051A601549164A1160E0223F
:101F2000D2041A60002C07D18022134B12061A60CB
:101F300010BD0D4BD861EBE763011B1B9A0080239A
:101F4000121912015B049A4200D30C4A0C4B1A601E
:101F5000054B5A608022084BD2051A60E8E7C0465C
:101F600000B00540D3C007B0008005402D3FF84FBA
:101F7000FCFF01000820014000A00540FFFFFF001A
:101F80007C2900208023024A9B000B43D3627047C8
:101F900000800540142310B50100188804331B8805
:101FA000984710BD162310B50100188802331B880E
:101FB000984710BDF8B54746CE4680B50F1E19D0DC
:101FC00014239946043304000025012698464B4605
:101FD0001888434621681B88984701C4431E9841CE
:101FE000013540420640AF42F1D13000C0BCB94695
:101FF000B046F8BD0126F8E7142370B50400188830
:1020000004331B880D000549984703000020002C6D
:1020100001DB0130A04029009847C046554200002E
:10202000AA23064A1B0113608D235B00D360044979
:10203000044B19605368002BFCDA704700400240E3
:1020400000B0FA00006002407047C04610B5014879
:10205000FEF7F2FD845E001070B5074D074EB542E5
:1020600009D20024013E761BB60808CD984723000C
:102070000134B342F9D170BD285D0010645D0010D9
:10208000054B064A06491A60064A074B1A601000BB
:102090000B689843FBD1704700E00040BFCDFBFECA
:1020A00008C00040FE7F3C0000F00040044BDB6CA9
:1020B000002B03D18022034BD2021A607047C04626
:1020C000000011504C201150044A054B1A60054A7B
:1020D0001368DB018033FBD17047C046FFFFFF016F
:1020E00000F0004008C000404022034B9A675A6746
:1020F0001A67DA667047C04600F0014010B5FEF777
:102100003FFE10BD70B5044D044C2800C022A168EC
:1021100000F09EFBA56070BD0000002000ED00E017
:10212000002310B5294C82B0A367FFF779FF012285
:10213000274B1A60636C012BFCD10322254B1A60DC
:10214000224A936B012BFCD1013300930121224AD7
:1021500022480433FFF77AFE052301210093204A29
:102160002048FFF773FE0022022104201E4BFFF7D8
:10217000F3FD0022012105201C4BFFF7EDFD00229D
:10218000002107201A4BFFF7E7FD0022002108205D
:10219000174BFFF7E1FD8023DB00009300220021B5
:1021A0000920134BFFF75EFD0022104B0021062093
:1021B000FFF7D2FD0420FFF743FE0E4900F024F89C
:1021C00001000020FFF7DEFE02B010BD00800040DD
:1021D0003CB0004030B00040002F68590080024001
:1021E000008C864700C00240001BB70040597307AF
:1021F000006CDC0240420F0001480421014B1847EB
:10220000A0110020B51F0010114A936F9B0813D234
:1022100010665166002905D0FFE7FFE7FFE7516F21
:10222000106F704704B5002801D00020C04303F0B0
:1022300043FD002104BDC046F0B5146E556E576FC6
:10224000166FFFF7E5FF1466556657671667F0BD12
:10225000000000D094464A4A926F9208624601D22A
:1022600028E0C046F0B5464E346E756E776F366F17
:1022700000F020F89446424A146655665767166780
:102280006246F0BD94463E4A926F9208624601D281
:1022900054E0C046F0B53A4E346E756E776F366FC7
:1022A00000F04CF89446364A146655665767166730
:1022B0006246F0BD002B24DB11D000293EDA00B5C8
:1022C000C943404200D1013100F038F8C9434042CF
:1022D00000D10131DB43524200D1013300BD002A5D
:1022E000EBD1002801D1002905D00020C90FC90772
:1022F00001D1C043410800B503F0C6FC0022002311
:1023000000BD00B500290ADBDB43524200D1013396
:1023100000F014F8C943404200D1013100BDC94367
:10232000404200D10131DB43524200D1013300F081
:1023300005F8DB43524200D1013300BD002923D10F
:10234000002B18D1002A0CD0BC460D4F38667A6697
:1023500000210023FFE7FFE7FFE77A6F386F67464A
:102360007047002801D00748010000B503F08CFC3D
:102370000022002300BD02000B0000200021704756
:10238000000000D0FFFFFFFF002B00D0BFE0130CC8
:1023900028D1002AE7D080B4114F39667A66FFE76A
:1023A000FFE730B4040C7B6F396F1B0423433B669B
:1023B0007A66FFE7FFE7FFE7C04684B27B6F3D6FB9
:1023C0001B0423433B667A66FFE7FFE7C046002312
:1023D0002C042D0C7A6F386F00196941B0BC70471E
:1023E000000000D0F0B594460025140E01D1120271
:1023F0000835140F01D112010435940F01D1920058
:102400000235D40F01D152000135D40B0134254FD0
:102410007C66254C3C660E0C93B2FFE7FFE7FFE7B6
:102420003C6F6643360C7703BE467343DF0B5B0499
:10243000C01AB941130C7343DB18C91ACE0866439E
:10244000360CB64493B273431F0F1B01C01AB94137
:10245000130C73431F0B1B05C01AB941860D8F0265
:102460003E436643360C092D24DB520A7243801A20
:102470007703460A6643360C16235B1BDE40DF40BB
:10248000BF1964466643821B70460435063301005B
:10249000D940A840C01900D30131A24206D200237E
:1024A000F0BD0000000000D0FFFFFFFF121B013055
:1024B000F3D3F1E709277F1BFE406446A2B27243C3
:1024C000801A00D20139220C7243130C1204821AB2
:1024D00099410B007046043513370100F940A840BC
:1024E000801900D30131002B02D1A2420AD2F0BDE3
:1024F000013000D30131121BFAD2013BF8D1A242C4
:1025000000D2F0BD013000D30131121BF7E7F0B566
:102510001C0C00D080E00CB400251C0A04D11B0266
:10252000160E3343120208351C0B04D11B01160F83
:102530003343120104359C0B04D19B00960F3343A7
:1025400092000235DC0B02D192185B4101351C0070
:10255000971864410134464F7C66464C3C660E0C2D
:10256000FFE7FFE7FFE7C0463C6F6643360C7703A3
:10257000BE4697B27743C01B00D20139C01B00D2C0
:1025800001399FB27743C91BC91B170C77437E04DF
:10259000FF0B801BB941CE086643360C0C2D33DB94
:1025A000B644120B1F053A431B0B97B27743C01B6F
:1025B00000D201399FB27743C91B170C77433E0401
:1025C0003F0C801BB941860D8F023E43664329278D
:1025D0007F1BFE400C3D7746AF40BF1930BCA2B216
:1025E000ABB272437343801A9941220C7243130CAD
:1025F0001204801A994102000B000137001BA94107
:10260000F9D2781E0021F0BD0C277F1BFE407746D3
:102610007F0BAF40FF19E0E700245D1C07D0144F8B
:102620007D663966FFE7FFE7FFE7FFE73C6F95B29E
:102630009EB265436643401BB141150C1E0C6543B9
:10264000664336042F0C3E432D04401BB141994292
:1026500004D202000B0020000021F0BD01D1904205
:10266000F7D3801A994101349942F2D3F6E700007A
:10267000000000D0FFFFFFFF132370B51D78012D70
:1026800019D014DD1E48FFF78DFC06001D48FFF72A
:1026900089FC1D4C80223100200000F0D9F8022D69
:1026A00006D01A48FFF776FC194B186070BD164C1F
:1026B000184BA364F5E7174B134C23606360A360CA
:1026C000E36023616361A361E36123626362A362E8
:1026D000E36223636363A363E36323646364A364C8
:1026E000E36423656365A365E36523666366A366A8
:1026F000E36623676367A367E367A364D1E7C04624
:102700005344000053460000181C00204C330000C6
:10271000E42900201927001007B5604601880A0A3D
:102720000230DF2AFAD1C9B2820804D30288408875
:102730000004104300E00068014A5050039007BDB8
:10274000181C002051434343C9188C46110C83B216
:102750004B4310B4040C614392B280B250436243C5
:102760001C041B0C001910BC59411304120CC01896
:102770005141614470470000132310B512481C7882
:10278000FFF710FC0100012C0AD003DD80220F4866
:1027900000F05EF80E48FFF7FDFB0E4B186010BD11
:1027A0000A4C5422200000F053F80B4B6365A365DC
:1027B000E36523666366A366E36623676367A367CF
:1027C000E3672362E361E5E753460000181D00203C
:1027D0004C330000E4290020DD27001007B56046D7
:1027E00001880A0A0230DF2AFAD1C9B2820804D36A
:1027F000028840880004104300E00068014A5050FD
:10280000039007BD181D002010B5040002F0C6FD9E
:10281000002804D0034B04199C4200D810BD024884
:10282000FEF70AFA00000420905E001010B502F0D6
:10283000BFFD10BD01480421014B1847B011002015
:10284000B51F0010014B1B6818470000B011002095
:10285000014B5B6818470000B011002010B500283C
:1028600000D110BD00F04EF9FBE7C04610B5094A93
:102870000300146884B0002C08D00122009106489F
:10288000524203A9A047012004B010BD00F086F910
:102890000020F9E7782900205D28001000BEFDE740
:1028A000094A03001068002805D00849C3188B4264
:1028B00007D81360704706480449C31810608B425C
:1028C000F7D901204042F5E77425002000000420DC
:1028D000142A002010B5FFF7E1FFC04670B5FFF7DE
:1028E000BBFB074D074EB54209D20024013E761BC3
:1028F000B60808CD984723000134B342F9D170BD22
:10290000645D00106C5D0010030010B5080011003C
:102910001B68984710BDC046F0B546464F46D646A0
:10292000C0B5437D80460E001700002B46D0002A1C
:102930003FDD4B1E9946244B0125002400209A467A
:102940000DE04B461B5D0D3B5A425341325DDBB2FD
:102950000A2A0BD02B00013401359F421ADD002CCE
:10296000EFD14346325D1B7D0A2AF3D1002BF1D112
:10297000A04204DA4346211A1B68301898474346A0
:1029800050461B6802219847013428002B0001356E
:102990009F42E4DC874204DD4346391A1B68301845
:1029A0009847F619013E33780D3B5A42534142464F
:1029B0001375E0BCBA46B146A846F0BD03681100E5
:1029C00030009847F5E7C046305F0010F0B5DE46AE
:1029D00057464E464546E0B585B017001C00060038
:1029E0000D00FFF77DF80023314A12184B41002BF0
:1029F00059DB304908008A4603F076F901906B1CD8
:102A000003D1300002F0C2FF0500002C26D12A4B72
:102A100098462A4B1C68002C15D0002F21D1284F36
:102A200002E02469002C0ED02368002BF9D03B680B
:102A3000002B01D0A342F4D120002A003100C0476E
:102A40002469002CF0D1019B002B28D1280005B06F
:102A5000F0BCBB46B246A946A046F0BD194B98460D
:102A6000D7E7174B994602ABDF1D0A239B4602E0CE
:102A70002469002CE7D02368002BF9D04B461B6853
:102A8000002B01D0A342F3D12A0031002000C0471F
:102A90005B460122390020003B70C047E8E7504602
:102AA00003F0EAF8D2E70122074B5242A1E7C04601
:102AB00040420F00381A0020092900106425002028
:102AC0007025002019290010FFFFFF7F0A4A1368B4
:102AD000002B05D10CE01A001B691032002B07D027
:102AE0009842F8D1002902D103691360016170474F
:102AF0000029FCD01060FAE76425002010B500F032
:102B00008BFA10BDF0B5CE46474680B583B06B4614
:102B10000600DD1D2870FEF7E3FF00231A4A121895
:102B20004B41002B2BDB19490800884603F0DCF8E9
:102B3000174B81461C68002C14D0164F02E0246904
:102B4000002C0FD02368002BF9D03B68002B01D05C
:102B5000A342F4D1200001222900FFF7DDFE246901
:102B6000002CEFD14B46002B05D1300003B0C0BC88
:102B7000B946B046F0BD404603F07EF8F5E70122C5
:102B8000054B5242CFE7C04640420F00381A0020A2
:102B90006425002070250020FFFFFF7F70B5040032
:102BA00002F0F4FE01230100050001222000FFF7DE
:102BB0000DFF084B1C68002C06D06368002B05D065
:102BC00098472469002CF8D1280070BD2469002C96
:102BD000F3D1F9E7642500207047C0460022014B7D
:102BE0001A7070470F2A00204B790020FF2B0BD161
:102BF0008B79002B08D1CB79012B05D1082A03D979
:102C00008A78024B09301A707047C0460F2A00209C
:102C10000120704710B5012909D115495379107960
:102C200009781B0203430020994202D010BD012005
:102C3000FCE75378012B08D0022BF7D10020642247
:102C40000021FFF753F90120F0E7D37891781B02B8
:102C50001943DB0507D54A0A100001231A407E33C9
:102C60001940FFF7C9F901204A0A4042F5E7C0467A
:102C70000F2A002000487047545F001070B505000F
:102C800014000120012909D153780020012B05D11E
:102C9000637912791B021343072B00D070BD21000A
:102CA0002800024A9F3301F061FAF7E7785F0010CD
:102CB0000123037000487047345F001048780B7898
:102CC0008A7800021843120410439622CB7810B57C
:102CD0001B060343D200934200D010BD0022012006
:102CE00011004042FFF788F9024B1860024B19604F
:102CF0007047C046042500200825002010B5024B6F
:102D00001878FEF77BF810BD102A0020154B70B51F
:102D10001A68002A22D0EFF3108172B610680028DA
:102D2000FCD0BFF35F8F00220F48596002701B6810
:102D3000BFF35F8F1A6081F31088002400250B4ECB
:102D40003078FEF74FF8002804D100240025290030
:102D5000200070BD3078FEF751F8F8E7FA2400251E
:102D6000A400ECE784290020112A0020102A00206A
:102D700070B5040000200E0001F022FB002835D0C1
:102D8000002001F033FB002830D0FEF7A9FE00231D
:102D9000184A12184B41002B24DB174D280002F073
:102DA000A3FF002822D0002001F00AFB00280BD14D
:102DB000012000210324404200F00AFD6442280063
:102DC00002F05AFF200070BD002001F00FFB002828
:102DD000EED021003200002001F014FB041EEED1E1
:102DE000033CECE70122054B5242D6E70324644240
:102DF000E8E7C04640420F00EC290020FFFFFF7FBC
:102E000010B5FEF76DFE00230E4A12184B41002B41
:102E100013DB0D4C200002F067FF00280CD00120CE
:102E20000021404200F0D4FC002001F035FB0028D6
:102E3000F5D1200002F020FF10BD0122034B5242C9
:102E4000E7E7C04640420F00EC290020FFFFFF7F6C
:102E5000F8B5DE46574680B505000C00FEF740FE8B
:102E60000023364A12184B41002B5ADB3449080024
:102E70008A4602F039FF002803D1C0BCBB46B246E7
:102E8000F8BD002001F09CFA00284ED00026002C4E
:102E900043DD2C4B9B4614E0A919002001F038FBC0
:102EA000070001200021404200F092FC002001F0C8
:102EB000F3FAFEF715FE234BF61918605960B44279
:102EC0002BDD002001F046FBA71B0200B84200DD0D
:102ED0003A00002AE0D101200021404200F078FCB5
:102EE000002001F0D9FA002001F06AFA002814D07D
:102EF000002001F02FFB0028E1D1FEF7F1FD5B4639
:102F00000F001A685B68002184460F4812184B4175
:102F10009F4202D8D3D19445D1D9504602F0ACFE9D
:102F2000ABE70122094B5242A0E700200021054BEC
:102F300018605960504602F09FFE9EE740420F0025
:102F4000EC290020101C002020A10700FFFFFF7FBC
:102F500030B52A4C85B00021200002F0B5FE0028D3
:102F60001CD1274B1A68002A16D0EFF3108172B6D5
:102F700010680028FCD0BFF35F8F012421485960FE
:102F800002781B68D2B20470BFF35F8F0020186014
:102F900081F31088002A17D005B030BD0120002130
:102FA000404200F015FC002001F020FA050020004E
:102FB00002F062FE002DEFD0134B1B68002BEBD00C
:102FC000124A10689847E7E7FEF724FB0400FEF773
:102FD00087FDFA220023920012184B41002B09DBD7
:102FE0000121029100210191094920000091FEF781
:102FF00015FBD1E70122074B5242F1E7EC290020F3
:1030000084290020112A0020042500200825002002
:103010000D2D0010FFFFFF7FD02310B51B0684B0DD
:103020001C68FEF7F7FAFEF7F3FBA04202D000207F
:1030300004B010BD294B002100201B7801F07EFD5B
:1030400027480368002B41D00120FEF769F8FF23D1
:10305000244C254920701840FDF7EAFE2078012114
:10306000FDF7AEFE0520FDF7D1FE002821D1082294
:1030700000211E48FFF7E6FBFEF7CCFA0400FEF73E
:103080002FFDFA220023920012184B41002B20DB67
:103090000121029100210191154920000091FEF7C4
:1030A000BDFA0028C3DB13480121FFF70FFD012003
:1030B000BEE70120FDF754FE01000C48FEF796F82C
:1030C000002205200C49FDF7DDFEECE7FEF770F865
:1030D000BAE70122094B5242DAE7C0464C620010BF
:1030E000EC290020102A0020512F001084290020F4
:1030F0000D2D0010C0110020FD2C0010FFFFFF7FE0
:1031000000487047C0600010004870476C600010B5
:1031100070B5040017480378002B21D0002C06D18D
:10312000C1241548154BA4004380048070BD052CB4
:103130001DD8134B1048A400E558811C002304E05F
:1031400001330A800231132B0ED0EA5CDCB2002A74
:10315000F6D1C0230134E4B264009B001C43E4E7D1
:10316000112100F017F8D9E7CA24A400DDE70020F8
:10317000DCE7C046F82900203C25002009040000B7
:10318000D460001010B5024800F0D8F810BDC04659
:103190009C29002030B54B1E012900D1A7E0664ACA
:1031A00011780D112C0030349F2900D9A2E0047051
:1031B000012B00D1BEE00F21147821400C003034E7
:1031C000092900DD98E04470022B00D1B2E0547868
:1031D0002511290030319F2C00D990E08170032BFC
:1031E00000D1A7E00F2121400C003034092900DD77
:1031F00087E0C470042B00D19CE09478251129004D
:1032000030319F2C00D97FE00171052B00D191E076
:103210000F2121400C003034092900DD76E0447193
:10322000062B00D186E0D4782511290030319F2C5F
:1032300000D96EE08171072B00D17BE00F21214086
:103240000C003034092966DCC471082B00D171E010
:1032500014792511290030319F2C5FD80172092B78
:1032600068D00F2121400C003034092958DC447209
:103270000A2B5FD054792511290030319F2C52D868
:1032800081720B2B56D00F2121400C0030340929BC
:103290004BDCC4720C2B4DD09479251129003031B0
:1032A0009F2C00D9073101730D2B43D00F212140F2
:1032B0000C003034092901DD37310C0044730E2B2A
:1032C00038D0D1790C11220030329F2900D9073231
:1032D00082730F2B2ED00F220A4011003731092A9A
:1032E00001DC30321100C173102B23D010300023C9
:1032F000037030BD07345AE737310C0063E70731FC
:103300006CE737310C0074E707317DE737310C008B
:1033100085E707318EE737310C0095E707319DE7E8
:1033200037310C00A3E70731AAE737310C00C4722C
:103330000C2BB1D1C018DAE79C29002030B500254C
:1033400089B004000922002101A80095FFF77AFA4C
:103350000922002105A80495FFF774FA4B236A4659
:103360006846137004A90D2202F07EFC1521082284
:1033700020006944FFF76CFA09B030BDF8B500F0E1
:1033800045F90C23194DFF22AB6705201849FDF7BD
:1033900079FD184C402200212000FFF753FA402706
:1033A000002301262121144A66702783A26013603E
:1033B00063545F31618445396354104A1049636036
:1033C000E2602787A1620B606362E26202F044FC64
:1033D00080239B052E64EB6490230A4A0120EA5067
:1033E0008022094B5202DA64F8BDC0460000115039
:1033F000E9040020782500208400105000011050BE
:103400008000105010D001000020115010B5012193
:103410000520FDF7D5FC10BD10B5002200210248A3
:1034200000F014F910BDC04698250020044B197017
:10343000002904D080219023024A8902D15070478C
:103440000A2A0020002011500B785B0602D14B782D
:10345000052B00D070478A78014B1A60FAE7C04606
:1034600000001150F0B5C646C87800B58007830F3C
:103470001800012B61D08F780C794B797F211B02CA
:10348000394023434E00FC09334D32195201AA182A
:10349000977001276740577000275B055B0DD77059
:1034A0001383D076B846CA00012C32D02B4FBC46CD
:1034B0008F016244BC46AC446746BA604746176019
:1034C000002932D0264AC9009046624641445160E4
:1034D0003F223F339343022838D0224937190A68E4
:1034E0007F01D3180B602049EF19FA608B422FD867
:1034F000341964012D19EB7E1C499B064A40134385
:1035000080220120120613436A68136080BCB8460B
:10351000F0BD174FBC468F016244BC46AC446746C1
:10352000BA6247461760002909D1002364012D19AA
:103530006B60104B0120EB60E8E70020E6E70B4AE8
:10354000C9009046624641445162C1E75B00C4E74E
:10355000FEF77CFDFA68CBE7782500208400105048
:103560000400105080290020FF0F10500000105060
:10357000800010500001105010B502F06DFB10BD1E
:1035800010B57F200C0020404000E4091100001914
:103590001A00034B4001C01800F058F8012010BD7C
:1035A000782500207F22130010B50B400A420BD073
:1035B000C9098022580040180649400140181201EC
:1035C000002102F0A9FB10BD02220348C909521ACA
:1035D0008266EEE778250020002011507F2210003F
:1035E00010B508400A4200D110BD0023C9094000AF
:1035F000401804494001081800220349C37002F032
:103600008BFBF1E778250020FFF7FFFF80220A4BB4
:10361000520410B51A60094B09491A6010000B6872
:103620009843FBD18022002152010648FFF70AF996
:103630000922054B5A6710BD00E0004000F0004031
:1036400008C00040000010500000115070B5837E8B
:1036500004000D001600002B17D10023E382013374
:103660002000A682A376256102F016FB002804D074
:1036700080219023084A8902D150200002F014FBD7
:10368000002805D00123237770BD02F03DFBE4E75D
:10369000200002F031FBF7E7002011507047C046D0
:1036A0007047C04600207047002070477047C046F2
:1036B0007047C0467047C0467047C046024B5878B6
:1036C000431E9841C0B270471C200020024B18785E
:1036D0004007C00F7047C0461C200020F0B546468A
:1036E0004F46D646C0B52F4B814698461B780E00F4
:1036F0000124FF2B43D1002940D0002154222A4825
:10370000FFF7A0F80022294C294B20001A70FDF782
:103710004FFD284B1C60284C20001430FDF756FD4F
:10372000200001F0F7FD254B254D1C60254B002B9B
:1037300004D02800FFF7BCFA234B1860234900246B
:1037400000238A462A78204F10E03A6863019446A5
:103750006344002B12D05B68002B0FD098472A7867
:103760000134E4B2511C2300A1420EDBA242ECD88A
:103770009B1A5B0153445B68002BEFD100242000AF
:10378000E0BCBA46B146A846F0BD43464A463100C1
:1037900048461A70FFF7F2FD041EEFD04846FFF7C7
:1037A00035FEECE7F41100201C200020142000203E
:1037B0000B2A002070200020D81100207420002047
:1037C000092A0020B12C00106C1E0020F0610010AE
:1037D000F0B5DE4657464E464546E0B5C44B8BB085
:1037E0001B78FF2B00D12EE1C24BC34D9A4607AC8C
:1037F0002E687269EFF3108172B61368002BFCD04B
:10380000BFF35F8FB1613000210001F0C5FB726929
:10381000B369BFF35F8F0021116083F31088002824
:1038200000D110E16378082BE2D852469B00D358B0
:103830009F466368002BDBD0A0689847D8E77F23BA
:103840002179AE4E0B405800CA093618B61832001E
:10385000012730321079B843107110790337B8431B
:103860001071002B00D1F7E0A54A337D1278934206
:1038700000D3E5E0A34A5B011268D318002B00D106
:10388000E1E09E6962792078A368B047B0E79E4A7C
:103890001378002B00D1D6E01378013BDBB2137014
:1038A0001378002BA4D10122944B01211B7893485B
:1038B0001343924A914E13703423D25C8A43C2540C
:1038C000C25C04208243F2540133F25C8A43F25416
:1038D000F25C8243F254237800209B4600F0AEFC59
:1038E000602223791A40602A0DD0402A00D1BEE020
:1038F000DB06DB0E012B00D10EE1022B00D1D0E064
:10390000002B00D1BFE020780021FFF74BFE802183
:103910002078FFF747FE6BE7784E3378DB0700D45B
:1039200066E7FFF7C9FE63E7744BDB78DB0700D47B
:103930005EE76068FFF7B4FE5AE7704E3378DB0746
:1039400000D455E730780007C00FFFF7B3FE4FE70C
:103950006E496B4E23788B466A49984689463100FA
:103960003278002346460027884611E04A4612680E
:103970007B0194466344002B6CD0DB683000984791
:1039800043461A780137FFB2511C3B008F4241DC9D
:103990009742EBD39B1A5B015B44EEE75B49584EC1
:1039A00023788B4657499846894631003278002360
:1039B00046460027884611E04A4612687B01944635
:1039C0006344002B21D0DB683000984743461A78C7
:1039D0000137FFB2511C3B008F4205DCBA42EBD8E5
:1039E0009B1A5B015B44EEE7444E542200213000F9
:1039F000FEF728FF1022FF21301DFEF723FF3000C5
:103A00002022FF211430FEF71DFF00F00DFCFFF710
:103A10004FFEEDE6394E542200213000FEF712FF32
:103A20001022FF21301DFEF70DFF30002022FF2164
:103A30001430FEF707FF00F0F7FB2379B370D7E6E9
:103A4000501C98420EDA0BB0F0BCBB46B246A946F9
:103A5000A046F0BD294EEEE762792078A36800F019
:103A600001FCC5E69B1A294A5B01D31809E72848DF
:103A700000F0E4FB0121584608AAFFF7FFF80028F0
:103A800000D0B5E63FE7202A00D14EE1002A00D061
:103A900039E76379092B00D935E71E4A9B00D358D3
:103AA0009F467023217A0B4200D02CE77F26CB095A
:103AB00098460E40114B76009B1943441F7D104BD6
:103AC0001B789F425ED3581CB84200DA49E1FF1AC6
:103AD0000E4B7F01DF19002A00D146E1786900F022
:103AE000ADFB012158467B6908AA9847C7E7C04645
:103AF000F411002048610010742000201C200020D8
:103B0000092A00206C1E00200B2A0020F061001002
:103B10007D2C00106C610010237A0F2B00D9F2E687
:103B2000D64A9446D64A63441B791278934234D3DA
:103B3000511C994200DAE6E6D24E9B1A5B01F61858
:103B4000706900F07BFB01215846736908AA984709
:103B5000002800D04CE66022160023791E401A424D
:103B600000D0D0E663790A3B012B00D9CBE600F008
:103B700065FB63790A2B00D150E1584608A900F093
:103B8000DDFA35E6C04B7F011B68DF19002A00D142
:103B9000EBE0002F00D1B6E6A0E7BB4A5B01166858
:103BA000F618002E00D1AEE6CAE7B44BA7795B78D1
:103BB0009F42E2D0B14B5B78002B00D06AE1AF4B63
:103BC0005F70002F00D155E1781EC0B2FFF79CFA5C
:103BD000002800D14AE143780493022B00D045E14C
:103BE0000121C279931152110B400A4012015B016D
:103BF0001343A24A2F3112788A4313439F4A13700A
:103C000009239946C37882781B021343C318029391
:103C10009D4B814498464F46029BBB4200D806E12B
:103C200001227B7800920B2B04D1FB7800933B7828
:103C3000FF187B78042B00D018E1029BB946DB1BF0
:103C40009BB203938E4B1E7800231F0001931BE051
:103C5000424612687B01D618002E00D106E1494683
:103C60005846039A336998470590082803D9039A60
:103C7000824200D3DEE0824B01371E78FFB2731C14
:103C800001979F4200DDF1E0BE42E1D8019B9E1BFF
:103C90007C4B76019C466644E1E7784B06AA5B784C
:103CA000023213705846012308A900F05FFA9FE51D
:103CB000E088030AC0B20F2B00D924E673499A00AA
:103CC0008A58974608A800F0BFFA5846A179FFF72E
:103CD000A3FB0222694B1B781343684A137087E5E4
:103CE000E388012B00D00EE60822644B1B78934337
:103CF000624A137041E70220604B197806AB9A1CA8
:103D00008B068908DB0F01400B43138058460223C2
:103D100008A900F02BFA6BE5E388012B00D0F2E54F
:103D20000822564B1B781343E2E7237A0F2B00D966
:103D3000E9E5524A9446524A63441B791278934209
:103D400027D2514A5B011668F618002E00D1DAE539
:103D5000706900F073FA01215846736908AA984700
:103D60008DE60027002A00D0CDE50222637999462E
:103D70009343012B16D04B46002B00D0C3E53F4B9D
:103D800006AA9B19434430331B7902329B07DB0F91
:103D9000BBE7511C994200DAB5E53A4E9B1A5B012C
:103DA000F618D5E7E388002B12D14B46012B24D01F
:103DB000374B1878FFF7F6FB0221304B9B19434431
:103DC00030331A790A4301211A711A790A431A7198
:103DD000002F00D10CE5786900F030FA7B6908AA61
:103DE000012158469847002000F028FA3523234A3D
:103DF000D35CDB0700D5FBE4BFE6254B1878FFF763
:103E0000EDFB02211D4B9B19434430331A798A4341
:103E100049461A711A798A431A71D9E706AB9A1C76
:103E20005846012308A9167000F0A0F9E0E4FFF756
:103E30003DFCA2E63B004F469946009B012B00D17A
:103E400089E0009B002B75D000234E46B97805E031
:103E500016710133009ADBB293426AD207485A18AE
:103E60008446D2B262441079FF28F1D00023034A7D
:103E7000537048E5FFF71CFC7FE6C0461C2000207D
:103E8000092A0020F06100106C1E002094610010CF
:103E9000F411002000215846FFF7C8FA5846FFF7F2
:103EA0006BFB454B454E9B78454900938946002363
:103EB0003100327888461E0011E04A4612687301CC
:103EC00094466344002B22D0DB685846984743460B
:103ED0001A780136F6B2511C33008E4207DCB2422A
:103EE000EBD89B1A374A5B0194466344ECE75422B3
:103EF00000213148FEF7A6FC2F4B1022FF21181D90
:103F0000FEF7A0FC2022FF212F48FEF79BFC2A4B46
:103F1000009A9A7053E6FEF7ADFE021E00D1F2E45D
:103F2000D37891781B020B43584608A900F01EF97C
:103F3000A5E5B146059E4B4632003900224800F007
:103F4000A1FEB4461D4B019A1B786744013393428E
:103F500000DB61E68AE71D4B32699A4200D073E7C5
:103F6000049B009370E7FFF79DFB021E00D1CAE49B
:103F70005846137808A900F0F9F880E52189FFF781
:103F8000C7F8021EF4D1BEE4022B0FD0FFF78CFB62
:103F9000021EC5D1B7E4FFF7B3F8021E00D1B2E4A8
:103FA0001223584608A900F0E1F868E5FFF7ACF8DD
:103FB000021EB5D1A7E4C0461C200020092A00201B
:103FC0006C1E0020F0610010302000204D460010D3
:103FD000F8B557464E46DE4645460C00E0B516009D
:103FE0001F00002A3CD0702398461E4B00259B469C
:103FF0001D4B9A461AE05B461B78200099465346B3
:10400000997800F003FE00281CD021004846FFF7F5
:1040100029FA002816D0A378DA09012A19D00A9AB9
:10402000013513702378E418B54219DA6378052B4B
:1040300008D1E3789B079B0FBB4203D14246A3788C
:104040001A42D8D00020F0BCBB46B246A946A046D2
:10405000F8BD0B9A013513702378E418B542E5DBFF
:104060000120F0E7F41100201C200020702270B520
:104070008B780C001A4201D0002070BD064B200046
:104080001D78064B997800F0C1FD0028F4D021007E
:104090002800FFF7E7F9F0E7F41100201C200020CA
:1040A000074B080019687F2310B50340C0095B0067
:1040B00034301818034B181800F064FD10BDC046CA
:1040C000702000201C200020074B080019687F2367
:1040D00010B50340C0095B0034301818034B1818A2
:1040E00000F078FD10BDC046702000201C2000208C
:1040F0007F2070B508400F4C4000CD09241864198A
:10410000303425790020ED0700D570BD01262579D2
:104110000948354300782571FFF732FA0028F4D1B9
:10412000012223799343237123790332934323712B
:10413000EBE7C0461C200020F411002070B50A4EA9
:104140000500300008220C00FEF782FB00237F21CF
:10415000F3602278B36091425B412800D9010022CC
:104160000023FFF7C5FF70BDFC1F0020F8B5CE4649
:10417000474691462A4E80B50822070030000D00C0
:104180009846FEF765FB4B46B3600023F381EC795C
:10419000A97924020C43231C444500D943469AB212
:1041A0009046B381002C13D0002A1FD04B46002B21
:1041B00034D0131C402A1FD89BB2984633787F2BEB
:1041C00020D80021174A43463800FFF791FF09E045
:1041D0007F222B7838009A42644100230022E101BB
:1041E000FFF786FFC0BCB946B046F8BD33787F2BD9
:1041F00011D980210022E6E740239BB2984633780C
:104200007F2BDED9074C424649462000FEF720FBB3
:1042100080212200D7E700210022D4E70020E1E737
:10422000FC1F0020BC1F002010B5142200210248F2
:10423000FEF708FB10BDC046FC1F0020014B1861B3
:104240007047C046FC1F002010B5054C0100082235
:104250002000FEF7FDFA0023A360E36010BDC04616
:10426000FC1F0020F8B5394C1D0023780600DA0940
:10427000C9098A4210D00020002D00D0F8BD2100CD
:104280003000FFF7E1F82369002B42D02200032120
:10429000300098470120F1E77F2B06D8A06800285E
:1042A00039D02A002A49FEF7D3FAA368E2895919BE
:1042B0005219E38892B2E281A160934214D03F2D5B
:1042C00012D9A589A81A071C80B240282FD82378B4
:1042D000BFB27F2B2DD80021AA4235D01C4A3B000B
:1042E0003000FFF705FFC9E72369002B05D0220046
:1042F00002213000984700280FD07F220021237828
:1043000030009A42494100230022C901FFF7F0FE24
:10431000B4E70120B2E70020B0E700213000FFF74A
:1043200041F930008021FFF73DF90120A6E7402741
:10433000CDE7AA4207D0064C3A002000FEF788FAE3
:1043400080212200CBE780210022C8E7FC1F00204B
:10435000BC1F002070B50500FFF7B0F9002800D1A0
:1043600070BDFFF7B3F90028FAD1C8236B43124A96
:10437000D618F1780029F3D010339C18200000F0F3
:10438000F5FD3F28ECD90020F178FFF789FE0028E1
:10439000E6D0200000F0EAFD3F2808D9EA01074DE9
:1043A0004023F17852190020FFF7A2FED8E7F178F8
:1043B0000020FFF789FED3E7F41E0020701E0020C6
:1043C00010B50400FFF77AF9002801D1002010BDD4
:1043D000FFF77CF90028F9D1C8304443024800199E
:1043E000037901201840F2E7F41E0020C823584347
:1043F00010B5034B1030C01800F09AFD10BDC04638
:10440000F41E0020F0B5C824C64644431E4F1F4B7F
:104410001034050000B53C199A4200D91C4A20000E
:1044200092B200F009FE8046FFF748F9002803D158
:10443000404680BCB846F0BDFFF748F90028F7D1E8
:10444000C8266E43BE19F378002BF1D0200000F08F
:104450008DFD3F28ECD90020F178FFF721FE0028E0
:10446000E6D0200000F082FD3F2808D9EA01094D7E
:104470004023F17852190020FFF73AFED8E7F1788F
:104480000020FFF721FED3E7F41E0020FEFF00000E
:10449000FFFF0000701E0020F8B50600FFF70EF9C0
:1044A000002801D10020F8BDFFF710F90028F9D14C
:1044B000C82474432500144F2435ED19280000F05A
:1044C00037FD0028EED03F190020B978FFF7E8FD4E
:1044D0000028E7D00D48F60140363618310040225A
:1044E000280000F0A9FDB978041E08D003003200AE
:1044F0000020FFF7FDFD0028D4D02000D3E70020E6
:10450000FFF7E2FDCEE7C046F41E0020701E00203B
:1045100070B5C82444430C4B2434E4180B4B0500FD
:104520009A4200D90A4A200092B200F03FFE0600EB
:10453000200000F0FDFC3F2801D8300070BD2800AD
:10454000FFF7AAFFF9E7C046F41E0020FEFF0000B7
:10455000FFFF0000C823584310B5034B2430C01898
:1045600000F004FD10BDC046F41E0020F0B500258B
:10457000184C83B0C82200212000FEF763F9164BC7
:1045800021001D70FF236371E1235B02A360200003
:1045900008234022A37338310095073B103000F008
:1045A0008FFC2700012321002000260040227831C3
:1045B0000093B837243000F083FCC0363800FCF795
:1045C000F7FD3000FCF7F4FDE561276226636563C3
:1045D00003B0F0BDF41E0020F01E0020074B1A6A45
:1045E000196B002A02D00022DA611A62002902D077
:1045F00000221A635A6301207047C046F41E00204F
:1046000070B50F4C052200212000FEF71BF90D4D5F
:104610002B78DA0707D50C4C9B070CD5012120001D
:1046200000F098FE70BD2000103000F073FE2B7873
:10463000054C9B07F2D4200000F06CFEEEE7C0466C
:10464000F41E0020F01E0020181F0020F0B54B794A
:10465000060083B0022B02D18B79022B03D00025F8
:10466000280003B0F0BD214FBB78002BF7D18B7829
:1046700009253B700C780C196378242B0BD1082A80
:1046800002D80FE0AA420DD32378E418ED1863781E
:10469000ADB2242BF6D0052B08D0042B02D16379C0
:1046A0000A2B11D00020FFF755FED9E7210030007A
:1046B000FFF7DCFC0028D2D0A3787B702378ED18BC
:1046C000E4186378ADB2E8E7094B2778019301332A
:1046D0000093022202233000E119FFF779FC002841
:1046E000BDD00E35ED19ADB2DCE7C046F41E00209A
:1046F000F61E0020F8B56023140012780500134060
:104700000020202B07D1304A6379277916781B02C5
:104710003B439E4200D0F8BD6378222B28D007D8B7
:10472000202B17D0212BF6D101293ED00120F2E712
:10473000232BF0D1012940D00329F7D1234B002BA3
:10474000F4D0E178A37809020020194300E000BF0B
:104750000120E0E7012928D00329E7D11C4B002BD9
:10476000E4D0083200201100FEF7A8FA0120D2E7B9
:10477000012922D00329D9D10125A178E4782E007E
:1047800024020C4301211471264024321000714090
:1047900000F0E0FD0F4B002BC8D062080020310074
:1047A0002A4000E000BF0120B5E7072321002800D0
:1047B000094AFFF7DBFC0120ADE721002800FFF7E5
:1047C000BDFC0120A7E7C046F41E00200000000049
:1047D000BD2C001000000000FC1E0020F0B54F466C
:1047E0004646D646C0B5354D8046EA780C001F00D7
:1047F0008A425BD19AB210239A46314EAA443100C4
:10480000504600F0D3FC2F4B002B17D06B79FF2BB9
:1048100014D0002F12D0F219914603E001364E4514
:104820000CD06B7932789A42F8D1504600F096FB62
:104830000028F3D1697900E000BFEFE7224B002B9D
:1048400004D0224800F08AFB002834D00020FFF773
:1048500081FDAB78A34206D001242000E0BCBA461B
:10486000B146A846F0BD1A4B002B02D0002000E054
:1048700000BF0020FFF710FE0028EDD1154D2800E5
:1048800000F056FB0028E7D1002FE5D0BB06E3D1AE
:10489000243D4046A978FFF703FC041EDCD000232A
:1048A00000224046A978FFF723FCD6E7AB788B427D
:1048B000D9D00024D1E7FBF759FDC7E7F41E00204B
:1048C000701E0020000000006D030010041F002077
:1048D00000000000181F00209322F0B5134C85B093
:1048E000002120009200FDF7ADFF2300200080266C
:1048F00040270F4D4D337600FF332930029500934A
:1049000000220023002103970196FF3000F0D4F924
:104910004035201D283400230122002103970295F1
:104920000196009400F0C8F905B0F0BDB821002050
:104930003821002010B5054C200000F0F3F92000CC
:104940002538FF3800F0EEF9012010BDE0220020EC
:1049500070B5084C0025200031302570FF3000F084
:10496000D9FC20000C3000F0D5FC2A23FF33E5549D
:10497000657170BDB8210020F8B54E464546DE464B
:104980005746E0B54B7981468846FF2B25D12A232F
:10499000414FFF330C78FE5C7B794444A5181E43DD
:1049A0001BD1982252009246253AFF3A93468B78C3
:1049B000BA443B700B79BB44002B0AD06378052BBB
:1049C00005D111E02378E4186378052B0CD0A542BB
:1049D000F8D84346E01A80B200E00020F0BCBB46A5
:1049E000B246A946A046F8BDA542F2D921004846E4
:1049F000FFF73CFB0028F0D0A3780136F6B2DB09C4
:104A0000012B2AD0504600F085FC2A23A278FF33E0
:104A1000FA54224A6379944621791B020B435B05C1
:104A200094215B0D63445A425341022049007A5C51
:104A30005B00824313437B5451464846083900F0DB
:104A4000D1F90028C9D02378E41843461B79B34232
:104A5000B4D84346E01A80B2C0E7584600F05AFC8A
:104A60005A460E49A3788C460C3A537163792079E3
:104A70001B0203435B055B0D634459424B4102201B
:104A800011795B0081430B435946137108390020AB
:104A900000F076F9D7E7C046B821002000FEFFFFFE
:104AA000F8B52A251F4CFF35655D06001F008D42B5
:104AB0001DD19A235B00E35A002B0ED11A4B002B19
:104AC00004D000201949BAB200E000BF30001849F4
:104AD00000F088F901242000F8BD20009623313031
:104AE0005B00E158BAB2FF3000F060FBE6E76379A3
:104AF0008B4201D00024EEE70E4B002B04D039048A
:104B00000020090C00E000BF0B4D3000290000F030
:104B100037F901240028DED13A002900300000F0E6
:104B200003F9D8E7B8210020000000003821002058
:104B3000E022002000000000BC21002000B503009E
:104B400083B0002910D00020012B07D80A78002A52
:104B500004D00B48C2540120012A01D003B000BD8B
:104B60001800FEF7BBFDF9E7012301A900200B8027
:104B7000FEF7B4FD0028F1D00122014B1A70EDE7D9
:104B800010200020037870B5DB0704000E00DD0F55
:104B9000002B17D103785B0701D5280070BD0121D8
:104BA0003000494201F098F82378DB07DD0F002B35
:104BB0000AD123785B0708D4042223780125134304
:104BC000237002E00025E8E70025300001F054F8EA
:104BD000E3E7C04670B50D000121040049422800FA
:104BE00001F07AF823785B07DE0F002B04DB280046
:104BF00001F042F8300070BD2378DB0704D40422B2
:104C0000237893432370F2E70026F0E710B5437949
:104C100004791B0223435B055A0DC3789B079B0F46
:104C2000022B05D0032B15D00020012B08D010BD7E
:104C300002291CD00020402393424041C0B2F6E735
:104C400002394B4259410D4B9C46614491424041CF
:104C5000C0B2ECE702394B425941F02300204942EF
:104C60009B001940403191424041C0B2DFE7044B04
:104C7000D3185A425341D8B2D9E7C046FF030000C7
:104C800000FEFFFF8A1870B5914207D27F264C784C
:104C9000052C04D00C7809198A42F8D870BD34006C
:104CA0008D782C4064000419ED0963550C780919BE
:104CB0008A42ECD8F2E7C046F0B5C64600B582B0ED
:104CC000150008AA40CA040017880BAA1288012000
:104CD00090460A0021780240814320001143217050
:104CE00000933A0001233100083000F0E9F8002E6B
:104CF00001D0002F08D10A9B0120636043466380E6
:104D000002B080BCB846F0BD26001C363000FCF76F
:104D10004FFA0023002D01D0330000266361A66105
:104D2000E9E7C04601207047F8B5E0230700080016
:104D30000C785B00A407E4171C4008300D00160037
:104D40003F3400F0F5F8002807D1002E05D034429A
:104D500003D101242B781C4201D00020F8BD38007B
:104D60006978FFF79DF90028F7D02B781C42F4D121
:104D70000023002238006978FFF7BAF9EEE7C04651
:104D8000F8B50D000835060028000C0000F0D0F83A
:104D9000002803D0012723781F4201D00020F8BD4E
:104DA00030006178FFF77CF90028F7D0280062888E
:104DB000616800F041F92378051E0BD01F42EDD148
:104DC0000300626830006178FFF792F90028E5D0AF
:104DD0002800E4E71F42E1D130006178FFF774F961
:104DE000DCE7C046F8B5CE46474680B58B8906005D
:104DF0000C00002B08D101250B781D4241D000206A
:104E0000C0BCB946B046F8BD0B789B0734D44023EC
:104E10005B429946402527000837380000F0A6F885
:104E2000A842ECD30122237890461A42E7D1300001
:104E30006178FFF735F90028E1D0380000F096F8E6
:104E400042462378854231D81A42D8D14B466288EF
:104E50001840051C80B2904200D9151CADB200224A
:104E60006178002D00D062682B003000FFF740F918
:104E70000028C4D02800C3E78025104BAD00994618
:104E8000C9E74978FFF70CF90028B8D023781D420C
:104E9000B5D1638800226178002B00D062683000B1
:104EA000FFF726F90028AAD06088A9E71A42A6D100
:104EB00030006178FFF708F9A1E7C04600FEFFFF68
:104EC000F0B5C64600B5040006A8057880208846DF
:104ED00017001E000002824227D8E068002803D095
:104EE0000121494200F0F8FE2069002803D0012189
:104EF000494200F0F1FE4346236073045B0CED036E
:104F00001D430023E0686381A780E580238100289A
:104F100001D000F0B1FE20690124002801D000F08A
:104F2000ABFE200080BCB846F0BD0024F9E7C046C7
:104F300010B5048941898288A3B288B28C4207D314
:104F40001B1A9BB2101C9A4200D9181C80B210BDCB
:104F50005100091A5B189BB2F4E7C04603000089B0
:104F60005B89C01A43425841C0B2704710B50489EA
:104F700041898288A3B288B28C4207D31B1A9BB2A4
:104F800000209A4201D9D31A98B210BD5100091AD3
:104F90005B189BB2F4E7C04670B5040000690E00D0
:104FA000002803D00121494200F096FE258960893E
:104FB000A288A9B283B285422CD3CD1AADB2002DFE
:104FC0002ED0AA4208D2914231D38B1A9BB2638170
:104FD0009A4203D89B1A9BB29A42FBD9E288216875
:104FE0005204520C53433000C918FDF731FC61895B
:104FF00001254B1C9BB2A288994214D90023520070
:105000009B1A9BB220696381002801D000F034FE16
:10501000280070BD5500ED1A4D19ADB2002DD0D14C
:10502000002563899BB252009342EBDBE8E78918C5
:105030008BB26381CCE7C046F0B546464F46D646B4
:10504000C0B50600006989469046002803D00121BA
:10505000494200F041FE31897289B5888BB294B221
:10506000914257D31F1BBFB2002F4DD0BD4205D276
:10507000AB4254D25B199CB22F0074814346B845B1
:1050800040D89FB2A54203D8641BA4B2A542FBD965
:10509000F288281B5204530C190098463368614368
:1050A0009C4680B26144874226D94346584383B226
:1050B0001A0048469A46FDF7CBFB434648467D1BFF
:1050C00064195C4331685044A2B2FDF7C1FB718999
:1050D000B588CB199BB26A00994217D99B1A9BB22B
:1050E00030697381002801D000F0C6FD3800E0BCB3
:1050F000BA46B146A846F0BD424648467A43FDF757
:10510000A7FBE4E73B1CBCE773899BB26A009342B0
:10511000E6DBE3E76F003F1BDF19BFB2A4E75B1BD1
:105120009CB2A9E7F8B50400C0680E00002803D0BF
:105130000121494200F0D0FD258920896189A2889A
:10514000ADB283B28FB2884228D3DB1B9BB29A42A6
:1051500009D8E779FF0906D1E068002801D000F0FE
:105160008BFD3800F8BD2B00954203D39B1A9BB2F0
:105170009342FBD2E28821685204520C5343C81870
:105180003100FDF765FBA2886B1C9BB252009D426B
:1051900009D99B1A9BB201272381DDE75100C91B66
:1051A0005B189BB2D3E79342F5DBF2E7F0B54E46CE
:1051B0004546DE465746E0B589460500140083B0F3
:1051C000002A6ED0C068002803D00121494200F0B7
:1051D00083FD2F89EA796B89BFB29BB2D20942D194
:1051E000AE889F4267D27200D31AFB189BB200228E
:1051F00090469E4231D9F31A1A1C9BB2A34200D9A1
:10520000221C93B29846E8884346DB199BB29B4622
:105210003C00BE4203D8A41BA4B2B442FBD240045B
:10522000430C18009A462B6860439C46311B89B298
:10523000604441454ED35246434649465A43FDF7E2
:1052400007FBAB885B00BB4501D39B4503DB5A469C
:10525000D31A9BB29B465B462B81E868002822D07C
:1052600000F00AFD1FE0AA889046944226D29F4291
:1052700044D34146FA1A92B2490012198A4209DB14
:1052800042469A1892B2171BBFB29346BB423AD914
:105290007F1ABFB2E3199BB246469B46A046E888F8
:1052A000B6E700239846404603B0F0BCBB46B24682
:1052B000A946A046F0BDFB1A9BB298E7E888A21A5F
:1052C0004404640C54434246A144002AC5D04646D7
:1052D0001F0099E75346594389B20A000191494694
:1052E000FDF7B6FA43469A1B5346A2185A43019952
:1052F000286892B24944FDF7ABFAA2E75100CA1AF6
:10530000BA1892B2B9E7B942C2DD4646E888A0466B
:105310007EE7C04610B50400C068002803D0012114
:10532000494200F0D9FC2069002803D001214942FC
:1053300000F0D2FC0023E06863812381002801D0C3
:1053400000F09AFC2069002801D000F095FC0120B3
:1053500010BDC04670B50400C0680D00002803D021
:105360000121494200F0B8FC2069002803D0012146
:10537000494200F0B1FC7F21E379ED011940E0687A
:105380002943E171002801D000F076FC2069002853
:1053900001D000F071FC012070BDC04610B5034B78
:1053A0000100186800F00EF810BDC046F81100208A
:1053B00010B5034B0100186800F064FB10BDC04637
:1053C000F8110020F0B54E464546DE465746E0B59A
:1053D0000D000B35060083B0162D22D8102900D9F8
:1053E000B2E000F0B1FA102518230220CC4FFB18D0
:1053F0001A005C68083A944200D1B5E00323626861
:105400009A431300E268A168CA6091600122E31820
:10541000596830000A435A6000F09EFA20000830B4
:1054200095E007239D4300D58EE0A94200D98BE08B
:1054300000F08AFAFC235B009D4200D2A7E1680AD3
:1054400000D18BE0042800D97AE138239846A809D6
:1054500080443930C100B24F79184C680839A142F4
:105460000ED003239C4604E0002ACBDAE468A14274
:1054700006D06246636893435A1B0F2AF4DD404608
:105480003A003C690832944200D178E00323616815
:10549000994389460B00491B0F2900DD7BE17A61A6
:1054A0003A610029B2DA80229200914500D30FE1DF
:1054B0005909DA0801238B40D2007968D2190B43CD
:1054C00091687B60E260A1609460CC6001218210F1
:1054D0009140994259D80B4205D10322904349008B
:1054E00004300B42FBD003239846C3009946B944CD
:1054F000CC4682466346DC68A44507D12CE1002AED
:1055000000DB35E1E468A44500D125E1424663684B
:1055100093435A1B0F2AF2DD01208046611905438F
:105520006560A068E5680837C560A860404610431C
:10553000F960B9604860CF6030008F60E25000F0E1
:105540000BFA2000083002E00C230020336003B087
:10555000F0BCBB46B246A946A046F0BD80213F2321
:1055600040209846890076E7DC680230A34200D0EC
:1055700044E73A003C690832944200D086E70121B2
:105580007B68821091409942A5D90323BC68626868
:105590009A439146954203D8531B0F2B00DD89E0B7
:1055A00023004B445F4A01935F4B93461B6812688C
:1055B000EB18013200D13DE15C4A944663441B0B79
:1055C0001B0300933000009900F0CEF903008046E1
:1055D000013300D1FAE0019B834200D9F4E0544B3F
:1055E00000981A009A461268030094465146634494
:1055F0000B6001991A00414500D151E15B461B68DF
:10560000013300D156E1434601995B1A9A1853467B
:105610001A600723424641461A400192194200D1BE
:1056200012E108239846881A424B0099804441446D
:105630009B1A5B1A1B051B0D0091300019009B463D
:1056400000F092F9431C00D150E14346C01A030018
:105650005B440093534652461B6801215B44136030
:1056600042464046BA60009A0A434260BC4200D1BA
:1056700024E14A460F2A00D822E107200C3A82434F
:1056800060680140052011436160A118486088608E
:105690000F2A00D935E14246444652682649086837
:1056A000984200D20B6025490868984200D38FE0E9
:1056B0000B608DE0012229001343114365196160DD
:1056C0003000BD606B6000F047F9200008303EE715
:1056D0005A0A042A72D9142A00D9C5E011005C3292
:1056E0005B31D20008235B429C46BA18944463465F
:1056F0009A6803239846944500D19EE0434651683A
:105700009943494502D992689445F7D1D3689C469C
:105710007B686146A260E1608C60D460D6E6C046DA
:1057200028160020301A0020681E00200F100000EC
:10573000381E002008100000601E0020641E00209B
:10574000142852D9542800D996E06E239846280B85
:1057500080446F30C1007EE608239B46073BDC4453
:105760009B46DA4443465246134200D0C2E64CE020
:105770000122E318596830000A435A60E368A268BE
:10578000D3609A6000F0E8F820000830DFE62B00D4
:10579000E80808332AE6012360191D436560786133
:1057A0003861C26082601A004B460A434260300092
:1057B000E15000F0D1F820000830C8E69A09110045
:1057C00039323831D2008DE7BC4260D0BC686268A3
:1057D00003239A43531B954202D80F2B00DD69E740
:1057E000300000F0B9F80020B1E65B239846804411
:1057F0005C30C1002FE608235B429C46E1444B46E7
:105800009B6801384B4500D098E043460342F2D1F3
:105810007B688B437B604900994200D9B5E600293B
:1058200004D1B2E6042294464900E2440B42F9D086
:1058300050465AE610330093C4E68910023B8B4071
:1058400079680B437B6064E7009B300043445B4214
:105850001B051B0D19009B4600F086F8431C00D069
:10586000F3E600239B46F5E6542A2BD81A0B1100C9
:105870006F326E31D20035E7AA235B0098422BD8F5
:10588000DD3B9846E80B80447830C100E3E52C4BC3
:10589000009A9A461B689C46534662441A60ADE6DD
:1058A000090500D0AAE60200BC684A4401310A4357
:1058B0006260F3E65B4642461A60AAE64446EDE6BD
:1058C00041608DE7AA2149008A4224D8DA0B1100F1
:1058D00078327731D20005E71A4B984224D87C23DE
:1058E0009846A80C80447D30C100B4E5009A019B25
:1058F00094464246083B63449B1A009300239B4610
:10590000A8E621003000083100F0BCF85346BC681E
:105910001B686268C2E60B498A420BD89A0C1100D8
:105920007D327C31D200DDE6FE217E237F20984649
:10593000890090E5FE227E219200D3E67B686AE72B
:10594000381E00205405000010B5024800F07CF914
:1059500010BDC046341E002010B5024800F076F994
:1059600010BDC046341E0020002370B5064D040053
:1059700008002B60FCF794FF431C00D070BD2B681F
:10598000002BFBD02360F9E76C25002010B58307BE
:105990000AD00300032102E001330B4205D01A783C
:1059A000002AF9D1181A10BD030019680C4A0D4CD1
:1059B0008A188A4322420FD15968094A04338A1847
:1059C0008A43224208D15968054A04338A188A4317
:1059D0002242F1D000E001331A78002AFBD1E1E73E
:1059E000FFFEFEFE80808080F8B50C000500FFF70A
:1059F000ABFF204FBB685E6803239E431E4B341BE6
:105A00009C466444240B013C113324039C4207DB75
:105A100000212800FFF7A8FFBB689B19984204D01B
:105A20002800FFF799FF0020F8BD28006142FFF72A
:105A30009BFF431C0DD00122BB68361B16435E60E2
:105A40000E4B28001A68141B1C60FFF785FF01200D
:105A5000EAE700212800FFF787FFBA68831A0F2BB7
:105A6000DEDD07490968401A0449086001210B433B
:105A70005360D5E728160020EF0F0000381E0020E5
:105A8000301A0020F0B5C64605000C0000B500290C
:105A90004FD0FFF759FF210008394C68012622003A
:105AA0000320B2438F187B6883436248984683681B
:105AB000BB426AD043467B6026421ED108239C46E7
:105AC0000C688444091B12198C6864454FD0CB685C
:105AD000E3609C604346FC186468344211D1BB68A3
